:1000000083177C3084007E300A128A110D200A1278
:100010008A1183010A128A11152864008001840A5A
:1000200004060319003404060E280A128A11062653
:100030000A128A110A128A11CE260A128A110A128B
:100040008A1158270A128A11D030F7000730F800B9
:100050000A128A1143260A128A111F280A128A11CB
:02006000002876
:100C0C000A128A11A3260A128A110800F400831210
:100C1C000313081574080A128A1179260A128A110C
:100C2C000800F20083120313081172080A128A11C9
:100C3C0079260A128A11080088150A30F70000304C
:100C4C00F8000A128A1143260A128A11831203131E
:100C5C008811080033300A128A1117260A128A11D9
:100C6C0033300A128A1117260A128A1132300A12EC
:100C7C008A1117260A128A110800552EF901F90358
:100C8C00472E0130F9027908FF3A031D4E2E4F2EE4
:100C9C00472E0130F7020030031CF803F8027808E5
:100CAC007704031D5A2E5B2E442E0800F2006D2E85
:100CBC0072080A128A1109270A128A110A128A1159
:100CCC000C260A128A110130F3007308F20772081D
:100CDC000A128A1109270A128A110038031D772E6D
:100CEC00782E5E2E0800F5007508F039F60008081D
:100CFC000F39760488000A128A1122260A128A11E8
:100D0C007508F60004300310F60DFF3E031D892E06
:100D1C008312031308080F39760488000A128A110B
:100D2C0022260A128A110230F7000030F8000A124B
:100D3C008A1143260A128A11080083160313080825
:100D4C000339880083120313881108110F30F00047
:100D5C00700888050A128A1130260A128A11283066
:100D6C000A128A1117260A128A110C300A128A11D9
:100D7C0017260A128A1106300A128A1117260A122D
:100D8C008A1101300A128A1117260A128A110800D8
:100D9C0012300A128A115C260A128A11C0300A1209
:100DAC008A1117260A128A11031000300318013019
:100DBC00F000E02E2E300A128A110C260A128A112B
:100DCC006430F7000030F8000A128A1143260A1228
:100DDC008A110130F1007108F00710307002031C09
:100DEC00F82EF92EE02E01300A128A1117260A125B
:100DFC008A110800FE00FE1F082F83137E1883172C
:100E0C00000808000408FE0007308A007E088207EC
:100E1C0000346D3461346E3479342034703472346F
:100E2C006F346A346534633474347334213421344C
:100E3C002134003449344E34493454344934413427
:100E4C004C3449345A3449344E3447342E342E34CD
:100E5C002E342E34003447346F3469346E34673496
:100E6C00203474346F3420346234753469346C3407
:100E7C00643420340034483445344C344C342034FD
:100E8C00593445344134483421342134213400342C
:100E9C007434693463346B34203474346F34633495
:100EAC006B34003401300A128A1117260A128A1187
:100EBC0023300A128A115C260A128A11C0300A12D7
:100ECC008A1117260A128A1101300A128A115C261D
:100EDC000A128A11F430F7000130F8000A128A1154
:100EEC0043260A128A1101300A128A1117260A1295
:100EFC008A1183300A128A1117260A128A1133308A
:100F0C000A128A115C260A128A11E830F7000330A3
:100F1C00F8000A128A1143260A128A11C92F0130CD
:100F2C000A128A1117260A128A1140300A128A11E3
:100F3C005C260A128A116430F7000030F8000A129D
:100F4C008A1143260A128A1101300A128A111726B5
:100F5C000A128A11C0300A128A1117260A128A1133
:100F6C0040300A128A115C260A128A116430F7008A
:100F7C000030F8000A128A1143260A128A11013035
:100F8C00F0007008FC070A307C02031CCE2FCF2F18
:100F9C00952F0310003003180130FC003030F000A6
:100FAC007008FD00D92F01300A128A1117260A1277
:100FBC008A1183300A128A1117260A128A117D08A7
:100FCC000A128A110C260A128A11F430F700013029
:100FDC00F8000A128A1143260A128A110130F00015
:100FEC007008FD073B307D02031CFD2FFE2FD92F0F
:020FFC000800EB
:02400E000A2F77
:00000001FF
