:0600000000308A00122806
:10000800FF00030883120313AE000408AF000A08B8
:10001800B0007E08B1000A128A11232983177830AC
:1000280084007E300A128A111F200A128A11830165
:100038000A128A11272864008001840A0406031919
:100048000034040620280030A0000030A100003051
:10005800A200031083160313003003180130860032
:10006800A03083120313A300230886040A128A11FE
:1000780062220A128A110A128A110B220A128A11A2
:1000880001300A128A118D220A128A110A128A1163
:0E00980080220A128A114F280A128A11122899
:10020000FE00FE1F082983137E18831700080800CC
:100210000408FE0001308A007E0882070034493459
:100220004E3449345434493441344C3449345A34CA
:1002300049344E3447342E342E342E342E34003488
:100240002034203400340C1C262927299C297330A3
:10025000AB007C082B02AC007D090318013EAD0009
:100260002D087902031D36292C087802031C392930
:100270003A294D29733078067904031D4029412914
:100280004B290030F8000030F9000130FA0703185C
:10029000FB0A0030FB07861061297330AB007C0835
:1002A0002B02AC007D090318013EAD002D08790238
:1002B000031D5C292C08780203185F296029612935
:1002C00086143230B4000030B5007B08B301B307A8
:1002D0007A08B201B2070A128A11A7210A128A11FA
:1002E0008312031333083204031D772978298E29DA
:1002F00000307D02733003197C02031C80298129A0
:1003000086290030FC000030FD008E297C08033E69
:10031000FC007D080318013E003EFD000130F80797
:100320000318F90A0030F9070C10831603130C1494
:10033000FE30831203138F003108FE0030088A005C
:100340002F0884002E088300FF0E7F0E0900350859
:1003500034040319AC29AD29DD29B6010314B60D07
:10036000BC2901300310B40DB50DFF3E031DB229A9
:100370000130B7003708B607B51FBF29C029B1291A
:1003800035083302031DC62934083202031CC9296B
:10039000CA29D0293408B2023508031CB303B302BA
:1003A00001300310B50CB40CFF3E031DD129013000
:1003B000B602031DDC29DD29C029DE290800A600BC
:1003C0002608F039A70008080F39270488000A1208
:1003D0008A1172220A128A11831203132608A700B7
:1003E00004300310A70DFF3E031DF12908080F3943
:1003F000270488000A128A1172220A128A11023016
:1004000083120313A8000030A9000A128A113622B1
:100410000A128A110800831603130808033988009A
:1004200083120313881108110F30A40024088805D3
:100430000A128A114F220A128A1128300A128A11CE
:100440008D220A128A110C300A128A118D220A1288
:100450008A1106300A128A118D220A128A1101307D
:100460000A128A118D220A128A110800482AFA30CB
:10047000AA003A2A0130AA022A08FF3A031D412A9B
:10048000422A3A2A0130A8020030031CA903A9021B
:1004900029082804031D4D2A4E2A372A0800333024
:1004A0000A128A118D220A128A1133300A128A1115
:1004B0008D220A128A1132300A128A118D220A12F2
:1004C0008A1108001F14831603139F178312031346
:1004D0001F139F13831603131F131F109F101F1149
:1004E0009F11080088150A30A8000030A9000A12E0
:1004F0008A1136220A128A11831203138811080006
:10050000FE30831203138F009012101210148B17F9
:100510000B17831603130C14080083120313A50092
:10052000081125080A128A11DF210A128A1108000F
:02400E000A2F77
:00000001FF
