:020000040000FA
:0600000091EF01F0120077
:020006001200E6
:060008000EEF00F01200F3
:02000E000100EF
:0C0010003E0300006000000050000000F3
:04001C00DACFE4FF54
:10002000E2CFDAFFE9CFE4FFEACFE4FFF6CFE4FF67
:10003000F7CFE4FFF3CFE4FFF4CFE4FFFACFE4FF20
:1000400000EE00F0100EE80403E3EECFE4FFFBD770
:10005000E652F2A227D00001622B000E63230A0EA3
:100060006427000E652366C010F067C011F0090E0A
:100070000B6E0C6A10C006F011C007F06BEC01F0BB
:1000800006C010F007C011F000011050625D115061
:10009000635901E3836AF1BC02D0F18C01D0F19C79
:1000A000F292F28800D0E55200EE0FF0100EE80454
:1000B00003E3E5CFEDFFFBD7E5CFFAFFE5CFF4FF94
:1000C000E5CFF3FFE5CFF7FFE5CFF6FFE5CFEAFF9A
:1000D000E5CFE9FFE5CFDAFF11009368956A836AFF
:1000E0000BEC01F00A0EE66E12EC01F0E5520D0E7B
:1000F000E66E12EC01F0E5526A0EE66E000EE66E58
:1001000028EC01F0E552E5527E0EE66E000EE66E3A
:1001100028EC01F0E552E5529EAAFED7000173518A
:10012000EA6A740FE96E000EEA22AECFEFFF732B7E
:100130007305EA6A740FE96E000EEA22EF50400878
:10014000EBE10A0EE66E12EC01F0E5520D0EE66EE2
:1001500012EC01F0E552740EE66E000EE66E28EC2D
:1001600001F0E552E552F19EF28EF19CF292F28896
:08017000120E836EFFD712008E
:080178000E0EF66E000EF76E8C
:10018000000EF86E00010900F550B56F0900F5503A
:10019000B66F03E1B56701D03DD00900F550B06FEF
:1001A0000900F550B16F0900F550B26F0900090060
:1001B000F550E96E0900F550EA6E090009000900E2
:1001C000F550B36F0900F550B46F09000900F6CF80
:1001D000B7F0F7CFB8F0F8CFB9F0B0C0F6FFB1C0C4
:1001E000F7FFB2C0F8FF0001B35302E1B45307E0D8
:1001F0000900F550EE6EB307F8E2B407F9D7B7C0BF
:10020000F6FFB8C0F7FFB9C0F8FF0001B507000E50
:06021000B65BBFD712002F
:0A021600400EAF6E900EAB6E200E8E
:10022000AC6E1200D9CFE6FFE1CFD9FF9EB802D065
:10023000FDD7FCD7FE0EDB50AD6EE552E7CFD9FF00
:1002400012009EBA02D0FDD7FCD7AE5000D01200EB
:10025000D9CFE6FFE1CFD9FFFD0EDBCFE9FFFE0EE0
:10026000DBCFEAFFEF5010E0FD0EDBCFE9FFFE0E23
:10027000DBCFEAFFEF50E66ED5DFE552FD0EDB2A5D
:10028000FE0E01E3DB2AE8D7E552E7CFD9FF1200E3
:10029000D9CFE6FFE1CFD9FFE652D950FD0FE96E85
:1002A000FF0EDA20EA6E000ED880EE54000EED54F8
:1002B0000DE2FA0EDF6EDF50DF06000901E0FBD72A
:1002C000FD0EDB06FE0E01E2DB06E7D7E552E55246
:0602D000E7CFD9FF120088
:0A02D600036A026A100EE76ED8906A
:1002E00006360736023603360B50025C0C500358B4
:1002F00005E30B50025E0C50035A062AE72EF0D796
:020300001200E9
:0E030200000EF36E00EE00F0060E01D81200A1
:10031000EA6002D0EE6AFCD7F350E9601200EE6AA0
:02032000FCD708
:0E03220015EE00F025EE00F0F86A0F9CBCEC22
:0E03300000F003EC00F06DEC00F0FBD71200C3
:02033E000000BD
:10034000000000005A00000053657269616C0A0DDC
:10035000000000000000000000000000456E746511
:100360007220616E676C6573206173202D20746844
:10037000657461312C74686574613220616E64202B
:0E038000656E6420776974682040203A200082
:00000001FF
