:100000000A128A1103288316031381130310003088
:100010000318013086000310003003180130F0008F
:10002000112870080A128A11B8270A128A110310BF
:100030008312031300300318013086000030F400EF
:100040000030F300EA30F2006030F1002728FF3082
:10005000F107FF3003110318013E031DF207FF30C3
:1000600003110318013E031DF307FF3003110318AA
:10007000013E031DF4077408803AF50080307502D4
:10008000031D4C2800307302031D4C2800307202FF
:10009000031D4C280130710203184F2850282728CF
:1000A0000130F5007508F00764307002031C592810
:0A00B0005A2811280A128A110028AC
:100F7000F6000310003003180130F700F92F831238
:100F80000313FF3086000030FB000030FA00EA3027
:100F9000F9006030F800CC2FFF30F807FF30031164
:100FA0000318013E031DF907FF3003110318013E2A
:100FB000031DFA07FF3003110318013E031DFB0751
:100FC0007B08803AFC0080307C02031DF12F00304A
:100FD0007A02031DF12F00307902031DF12F013039
:100FE00078020318F42FF52FCC2F0130FC007C0879
:100FF000F70776087702031CFE2FFF2FBF2F08008C
:02400E000A2F77
:00000001FF
