:020000040000FA
:060000007AEF01F012008E
:020006001200E6
:060008000EEF00F01200F3
:02000E000100EF
:0C001000100300006A0000000400000063
:04001C00DACFE4FF54
:10002000E2CFDAFFE9CFE4FFEACFE4FFF6CFE4FF67
:10003000F7CFE4FFF3CFE4FFF4CFE4FFFACFE4FF20
:1000400000EE00F0100EE80403E3EECFE4FFFBD770
:10005000E652D9CFE6FFE1CFD9FFE6529EA039D0D4
:100060006AC010F06BC011F06CC012F06DC013F0DC
:10007000640E0B6E0C6A0D6A0E6A10C006F011C099
:1000800007F012C008F013C009F0EFEC00F002C056
:1000900010F003C011F004C012F005C013F01050AE
:1000A0001110121013100BE18150020B01E0010E30
:1000B000DF6E010EDF18E8B08182E8A081920001B6
:1000C0006A2B000E6B236C236D23CE6ACF6A9E9041
:1000D0009D80E552E552E7CFD9FFE55200EE0FF0E3
:1000E000100EE80403E3E5CFEDFFFBD7E5CFFAFF01
:1000F000E5CFF4FFE5CFF3FFE5CFF7FFE5CFF6FF60
:10010000E5CFEAFFE5CFE9FFE5CFDAFF1100CD80CB
:10011000CD8ECD98CD9ACD86CD929F80D08E120077
:10012000936A816A00016A6B6B6B6C6B6D6BEFDFBE
:10013000CE6ACF6AF28EF28C9E909D80FFD712001D
:100140000E0EF66E000EF76E000EF86E000109003E
:10015000F550656F0900F550666F03E1656701D0E2
:100160003DD00900F550606F0900F550616F09003E
:10017000F550626F09000900F550E96E0900F5506D
:10018000EA6E090009000900F550636F0900F55097
:10019000646F09000900F6CF67F0F7CF68F0F8CF79
:1001A00069F060C0F6FF61C0F7FF62C0F8FF0001B0
:1001B000635302E1645307E00900F550EE6E6307F4
:1001C000F8E26407F9D767C0F6FF68C0F7FF69C0B7
:0E01D000F8FF00016507000E665BBFD7120046
:0201DE00006AB5
:1001E000E86A0EAEFCEF00F00B6C0C1E0D1E0E1E2E
:1001F0000C220D220E22001E09AE07EF01F0066C44
:10020000071E081E091E072208220922001E23ECD1
:1002100001F009BE1EEF01F000AE000C066C071ED7
:10022000081E091EE86A072208220922026C031E22
:10023000041E051E032204220522000C00BE0EEF40
:0602400001F00188FF0C33
:0A024600056A046A036A026A200ECA
:10025000E76ED8900636073608360936023603367A
:10026000043605360B50025C0C5003580D500458F0
:100270000E50055809E30B50025E0C50035A0D5006
:0E028000045A0E50055A062AE72EE4D7120043
:02028E00D9CFC6
:10029000E6FFE1CFD9FFE652D950FD0FE96EFF0E20
:1002A000DA20EA6E000ED880EE54000EED540DE216
:1002B000FA0EDF6EDF50DF06000901E0FBD7FD0E0E
:1002C000DB06FE0E01E2DB06E7D7E552E552E7CF9B
:0402D000D9FF120040
:0C02D400000EF36E00EE00F0060E01D8E4
:1002E0001200EA6002D0EE6AFCD7F350E960120017
:0402F000EE6AFCD7DF
:0C02F40015EE00F025EE00F0F86A019C09
:10030000A0EC00F003EC00F090EC00F0FBD7120042
:0403100000000000E9
:00000001FF
