:10000000783084000730FE005730FF001120800058
:10001000840A04087E3A03191528FF0A0319FE0A08
:1000200006287E088A007F0882000A128A11182892
:10003000FF30A6000030A7000030AB000030AC005D
:100040000030AD000A128A11E8210A128A110A1240
:100050008A1568260A128A110310831603130030CA
:1000600003180130870003100030031801308800A6
:10007000831203131F14831603139F178312031392
:100080001F13831603131F13831203139F13831667
:1000900003139F101F119F111F10831203131F14AE
:1000A00001300A128A152D250A128A1112300A12FD
:1000B0008A159A250A128A11831203130030AE00A2
:1000C0000030AF000030B0000030B1000030B200AE
:1000D0000030B3000030B4000030B5000030B6008E
:1000E0000030CB00C830CC004230CD003408C8000E
:1000F0003508C9003608CA000A128A15A0260A1255
:100100008A11031C842885288628572901308312E8
:100110000313D5000030D6000A128A1564250A128E
:100120008A11831203131F1595281F080239013AFB
:1001300003199B289C289528831603131E088312F5
:10014000031386001E0888001E08B700B801370890
:10015000A2003808A300831603131E08831203139A
:10016000B700B8013708A4003808A5002708BC016B
:10017000BC072608BB01BB072308BA01BA0722083F
:10018000B901B9070A128A15BD250A128A1183120C
:10019000031324083907A00025080318250A3A0785
:1001A000A1002108BA01BA072008B901B9070A124B
:1001B0008A15E7250A128A11831203133908A80049
:1001C0003A08A9003B08AA004830CB00B930CC005F
:1001D0004030CD002808C8002908C9002A08CA00F4
:1001E0000A128A115D270A128A1183120313480822
:1001F000B9004908BA004A08BB00C030BC007F30D3
:10020000BD004430BE000A128A112F230A128A113F
:10021000831203133908AB003A08AC003B08AD0069
:100220002B08D1002C08D2002D08D3002E08CE00B8
:100230002F08CF003008D0000A128A1184240A1235
:100240008A11831203134E08AE004F08AF00500806
:10025000B0000030D1008030D2003F30D3003408ED
:10026000CE003508CF003608D0000A128A11842447
:100270000A128A11831203134E08B4004F08B50006
:100280005008B6000030CB00C830CC004230CD0062
:100290003408C8003508C9003608CA000A128A1591
:1002A000A0260A128A11031C562957298628831270
:1002B00003130030BC00C830BD004230BE002E0821
:1002C000B9002F08BA003008BB000A128A112F2388
:1002D0000A128A11831203133908B1003A08B200D6
:1002E0003B08B30001300A128A152D250A128A1123
:1002F00080300A128A152D250A128A1122300A121C
:100300008A159A250A128A11831203133108B9003B
:100310003208BA003308BB000A128A11A2250A1259
:100320008A11323083120313D5000030D6000A122E
:100330008A1564250A128A11831203131430CB0024
:100340009630CC004030CD003108C8003208C900DA
:100350003308CA000A128A15A0260A128A11031C41
:10036000B229B329CB29C0300A128A152D250A12C9
:100370008A112F300A128A159A250A128A11E8303A
:1003800083120313D5000330D6000A128A156425A0
:100390000A128A11E229C0300A128A152D250A1282
:1003A0008A113B300A128A159A250A128A11F430F2
:1003B00083120313D5000130D6000A128A15642572
:0C03C0000A128A115C280A128A11002817
:1003D0000A128A1511260A128A11080049084804CF
:1003E000031DF329F429FB290030C8000030C9009F
:1003F0000030CA003D2A4808CE004908CF0000302E
:10040000CF1BFF30D0004E08CB004F08CC00500867
:10041000CD00C91F0C2A0D2A152ACB09CC09CD09FC
:10042000CB0A0319CC0A0319CD0A8E30DA004B30FF
:100430000A128A11BE230A128A1183120313C91FDA
:10044000222A232A362A4B08D1004C08D2004D0814
:10045000D3000A128A1522250A128A118312031365
:100460005108CB005208CC005308CD004B08C800FF
:100470004C08C9004D08CA003D2A0800031000308E
:1004800003180130D700D51F462A472A4F2AD4091E
:10049000D509D40A0319D50AD7010314D70DD31FE0
:1004A000522A532A5C2AD209D309D20A0319D30A41
:1004B0000130DA005A08D7060030D8000030D900E1
:1004C000550854040319652A662AA12AD601031483
:1004D000D60D752A01300310D40DD50DFF3E031D36
:1004E0006B2A0130DA005A08D607D51F782A792AF4
:1004F0006A2A01300310D80DD90DFF3E031D7A2A58
:1005000055085302031D862A54085202031C892AE7
:100510008A2A942A5408D2025508031CD303D30212
:100520000130D8040030D90401300310D50CD40CAC
:10053000FF3E031D952A0130D602031DA02AA12AE1
:10054000792AD708031DA52AAA2AD809D909D80AC1
:100550000319D90A5908D301D3075808D201D20781
:10056000B12A08000310003003180130CA00C91F67
:10057000BA2ABB2AC82A2D300A128A1538250A122F
:100580008A1183120313C809C909C80A0319C90AC1
:1005900049084804031DCD2ACE2AD42A30300A1235
:1005A0008A1538250A128A110A2B0A30D400003025
:1005B000D5004908D301D3074808D201D2070A124F
:1005C0008A1532270A128A1183120313520830380F
:1005D000D1004A084B3E831384005108800001304B
:1005E000D1005108CA070A30D4000030D5004908AC
:1005F000D301D3074808D201D2070A128A113E223A
:100600000A128A11831203135308C901C907520839
:10061000C801C807831203134908803AD10080300B
:100620005102031D152B013048020318182B192BFA
:10063000D52A242B4A084B3E8313840000080A1253
:100640008A1538250A128A11831203130130CA024F
:100650004A08FF3A031D2D2B2E2B1A2B08000030C1
:10066000C3000030C4000030C5004130DA0039302A
:100670000A128A15D8260A128A1183120313C0009F
:10068000C108031D442B452B4C2B4308B9004408DB
:10069000BA004508BB00BD2B3F30DA003C300A12DF
:1006A0008A15D8260A128A1183120313C200BF08C2
:1006B000031D5B2B5C2B632B4308B9004408BA0075
:1006C0004508BB00BD2B3F08893EC6004608C10255
:1006D0004208C6004608C0061830C20001300310A8
:1006E000C30DC40DC50DFF3E031D6F2B3E083B021D
:1006F000031D802B3D083A02031D802B3C08390264
:10070000031C832B842B942B3C08B9023D08031C4B
:100710003D0FBA023E08031C3E0ABB020130C3046F
:100720000030C4040030C50401300310B90DBA0D07
:10073000BB0DFF3E031D952B0130C202031DA12BF3
:10074000A22B6E2B4108DA0043300A128A11BE2315
:100750000A128A1183120313C008031DB02BB62B93
:100760000030C3040030C4048030C5044308B9001D
:100770004408BA004508BB00BD2B0800DB00DA08BE
:10078000031DC32BD52B5B08840083130008DC00FA
:10079000840A0008DD00840A0008DE005E085D04AB
:1007A0005C04031DD42BD52BE12B5B0884000030A7
:1007B00083138000840A00308000840A00308000A7
:1007C000832CF42B0130DC005C08DA075B08840022
:1007D0000130DC00840A840A0310800C8403800C3E
:1007E0008403800CDC0BEA2B5B08840000300005DE
:1007F000DC00840A00300005DD00840AFE300005BC
:10080000DE005E085D045C04031D072C082CE22B4F
:100810002A2C0130DC005C08DA075B088400013018
:100820008007840A00300318013E031D8007840AF4
:1008300000300318013E80075B0884000130DC00B3
:10084000840A840A0310800C8403800C8403800CC7
:10085000DC0B202C5B08840000300005DC00840ADF
:1008600000300005DD00840AFF300005DE005E0870
:100870005D045C04031D3D2C3E2C092C4F2C0130E3
:10088000DA025B08840001300310800D840A800DB9
:10089000840A800D84038403FF3E031D442C5B08FF
:1008A00084000008DC00840A0008DD00840A0008D7
:1008B000DE00DD1F5C2C5D2C3F2C5A18602C612C57
:1008C0006B2C5B088400FF308005840A7F30800534
:1008D000840AFF3080050310DA0C5A08DC00DD01C1
:1008E000DE0110300310DC0DDD0DDE0DFF3E031DBB
:1008F000722C5B0884005C088004840A5D08800414
:10090000840A5E0880040800852C5830DA004E30D6
:100910000A128A15D8260A128A1183120313D600E6
:10092000D808031D942C952C9C2C5108CE005208FD
:10093000CF005308D000A12D5730DA0051300A12F1
:100940008A15D8260A128A1183120313D400D708F5
:10095000031DAB2C902D0630D50057085802031804
:10096000B22CB32CF22C5708D9005808D9021930F0
:100970005902031CBC2CBD2CC82C0030CE0000300A
:10098000CF000030D0005708D8005408D600F12C12
:1009900001300310D10DD20DD30DFF3E031DC92C24
:1009A0000130D702570858060319D72CD82CDE2C53
:1009B0000130D502031DDD2CDE2CC82CEB2C0130C0
:1009C0000310D00CCF0CCE0CFF3E031DE02C0130E9
:1009D000D9005908D80758085706031DF02CF12CE8
:1009E000DF2C322D580857060319F72CF82C322D1E
:1009F0005808D9005708D90219305902031C012D93
:100A0000022D092D0030D1000030D2000030D3007B
:100A1000322D01300310CE0DCF0DD00DFF3E031D42
:100A20000A2D0130D802570858060319182D192D20
:100A30001F2D0130D502031D1E2D1F2D092D2C2D1C
:100A400001300310D30CD20CD10CFF3E031D212D1D
:100A50000130D9005908D70758085706031D312D12
:100A6000322D202DD608031D362D4A2DFF30CE06FF
:100A7000FF30CF06FF30D0060130CE070030031123
:100A80000318013E031DCF07003003110318013E78
:100A9000031DD007D408031D4E2D622DFF30D10653
:100AA000FF30D206FF30D3060130D10700300311EA
:100AB0000318013E031DD207003003110318013E45
:100AC000031DD3070310003003180130D60051086E
:100AD000CE07520803110318520A031DCF0753080B
:100AE00003110318530A031DD007D01F782D792D49
:100AF000902DFF30CE06FF30CF06FF30D0060130FC
:100B0000CE07003003110318013E031DCF0700304C
:100B100003110318013E031DD007D6010314D60D9F
:100B20005808DA004E300A128A11BE230A128A11BE
:100B300083120313D608031D9E2DA02D8030D006EE
:100B4000A12D08000310003003180130BC00003054
:100B5000CB000030CC000030CD003908C8003A0886
:100B6000C9003B08CA000A128A15A0260A128A1177
:100B70000318BB2DBC2DD72D2D300A128A15382510
:100B80000A128A11831203133908D1003A08D200DD
:100B90003B08D3000A128A1522250A128A118312F1
:100BA00003135108B9005208BA005308BB0083125E
:100BB00003133908C8003A08C9003B08CA000A12E2
:100BC0008A158D270A128A11831203134908C0015E
:100BD000C0074808BF01BF074008BE01BE073F0865
:100BE000BD01BD074008C901C9073F08C801C807C2
:100BF0000A128A11B2220A128A112E300A128A159A
:100C000038250A128A11831203134008C901C90743
:100C10003F08C801C8070A128A11EE210A128A1178
:100C2000831203134808CB004908CC004A08CD00C2
:100C30003908C8003A08C9003B08CA000A128A15D8
:100C40007D250A128A11831203134808CE00490831
:100C5000CF004A08D0000030D1008030D2003F30B1
:100C6000D3000A128A1184240A128A1183120313F0
:100C70004E08C8004F08C9005008CA000030CB0019
:100C80007A30CC004430CD000A128A115D270A1256
:100C90008A11831203134808B9004908BA004A08A8
:100CA000BB003908C8003A08C9003B08CA000A124C
:100CB0008A158D270A128A11831203134908C0016D
:100CC000C0074808BF01BF079A2E0A30D400003081
:100CD000D5004008D301D3073F08D201D2070A123A
:100CE0008A1532270A128A11831203135208303EE2
:100CF000C7003C08413E8313840047088000013050
:100D0000C7004708BC070A30D4000030D5004008AF
:100D1000D301D3073F08D201D2070A128A113E221B
:100D20000A128A11831203135308C001C007520824
:100D3000BF01BF074008803AC70080304702031D4B
:100D4000A32E01303F020318A62EA72E652E0130D8
:100D5000BC02B42E3C08413E8313840000080A12F2
:100D60008A1538250A128A11831203130130BC0236
:100D700001303C020318BD2EBE2EAA2E3E08803A3A
:100D8000C70080304702031DC72E0A303D020318FA
:100D9000CA2ECB2ED72ECC300A128A152D250A1238
:100DA0008A1146300A128A159A250A128A1183126C
:100DB00003133E08803AC70080304702031DE22E2D
:100DC0000A303D02031CE52EE62EFF2E3E08803A37
:100DD000C70080304702031DEF2E64303D02031828
:100DE000F22EF32EFF2ECD300A128A152D250A126F
:100DF0008A1147300A128A159A250A128A110800A8
:100E0000FE00FE1F082F83137E18831700080800BA
:100E10000408FE0007308A007E0882070034493447
:100E20004E3449345434493441344C3449345A34BE
:100E300049344E3447342E342E342E342E3400347C
:100E4000743468346534203476346F346C347434DC
:100E50006134673465342034693473343A3400348F
:100E600076346F346C3474346134673465342034D0
:100E7000693473343A342034003467346134733461
:100E80002034703472346534733465346E347434A1
:100E90000034673461347334203461346234733421
:100EA00065346E34743400342034203400343034EB
:100EB000003430340034303400340030D10000309D
:100EC000D2000030D3004F30DA0048300A128A15C1
:100ED000D8260A128A1183120313CE005030DA008A
:100EE0004B300A128A15D8260A128A11831203136C
:100EF000D4005408CE06D008031D7F2F842FCF08BE
:100F0000031D832F842F8B2F5108C8005208C9005E
:100F10005308CA00FF2F50087B3ED4005408CF0767
:100F20000730D000481C952F962FA42F4B08D107CF
:100F30004C08031103184C0A031DD2074D08031176
:100F400003184D0A031DD30701300310CA0CC90C46
:100F5000C80CFF3E031DA52F01300310CB0DCC0D97
:100F6000CD0DFF3E031DAD2F0130D002031DB92F63
:100F7000BA2F922F0930D000481CBF2FC02FCE2F80
:100F80004B08D1074C08031103184C0A031DD20764
:100F90004D08031103184D0A031DD3070130031038
:100FA000CA0CC90CC80CFF3E031DCF2F0130031023
:100FB000D30CD20CD10CFF3E031DD72F0130D00231
:100FC000031DE32FE42FBC2F4F08DA0051300A1223
:100FD0008A11BE230A128A1183120313CE08031D3D
:100FE000F22FF82F0030D1040030D2048030D30427
:100FF0005108C8005208C9005308CA00FF2F080052
:101A44005308520451040319282D292D2B2D8030BD
:101A5400D3062C2D080083120313C800081148086C
:101A64000A128A153C260A128A15080083120313E7
:101A7400D200081552080A128A153C260A128A1541
:101A8400080088150A30D5000030D6000A128A15DD
:101A940064250A128A15831203138811080033304F
:101AA4000A128A152D250A128A1533300A128A154C
:101AB4002D250A128A1532300A128A152D250A128A
:101AC4008A150800762DD701D703682D0130D70277
:101AD4005708FF3A031D6F2D702D682D0130D50274
:101AE4000030031CD603D60256085504031D7B2D73
:101AF4007C2D652D08008030CD064B08D1004C08A4
:101B0400D2004D08D3004808CE004908CF004A0847
:101B1400D0000A128A1184240A128A15831203132C
:101B24004E08C8004F08C9005008CA00992D080083
:101B340083120313C800AF2D48080A128A1109271B
:101B44000A128A150A128A1538250A128A150130D2
:101B540083120313C9004908C807831203134808F2
:101B64000A128A1109270A128A150038031DBB2D8F
:101B7400BC2D9E2D08000030BD000030BE00391C75
:101B8400C42DC52DCB2D3B08BD070318BE0A3C0848
:101B9400BE0701300310BB0DBC0DFF3E031DCC2D51
:101BA40001300310BA0CB90CFF3E031DD32D3A08C3
:101BB4003904031DDE2DDF2DC12D3E08BA01BA07FD
:101BC4003D08B901B907E62D08003A083904031D98
:101BD400EC2DED2DF42D0030B9000030BA000030AA
:101BE400BB00102E3908BF003A08C000C1013F08ED
:101BF400BC004008BD004108BE008E30DA003C3015
:101C04000A128A11BE230A128A15831203133C088E
:101C1400B9003D08BA003E08BB00102E0800831628
:101C24000313080803398800831203138811081169
:101C34000F30B900390888050A128A1551250A128D
:101C44008A1528300A128A152D250A128A150C3095
:101C54000A128A152D250A128A1506300A128A15C7
:101C64002D250A128A1501300A128A152D250A1209
:101C74008A150800D3005308F039D40008080F3936
:101C8400540488000A128A1543250A128A158312FD
:101C940003135308D40004300310D40DFF3E031D76
:101CA4004E2E08080F39540488000A128A15432559
:101CB4000A128A15023083120313D5000030D600AD
:101CC4000A128A1564250A128A15080001300A12BC
:101CD4008A159A250A128A15C0300A128A152D25EA
:101CE4000A128A15031083120313003003180130FB
:101CF400B9007C2E2E300A128A1538250A128A154C
:101D0400643083120313D5000030D6000A128A15FA
:101D140064250A128A15013083120313BA003A08A3
:101D2400B90710303902031C982E992E7C2E0130ED
:101D34000A128A152D250A128A150800CA1FA32E15
:101D4400A42EB12E4808003CC8004908031C490AC7
:101D5400003CC9004A08031C4A0A803CCA00CD1F43
:101D6400B42EB52EC22E4B08003CCB004C08031CED
:101D74004C0A003CCC004D08031C4D0A803CCD00AD
:101D84008030CA068030CD064D084A02031DD02E8D
:101D94004C084902031DD02E4B0848020318D32EC9
:101DA400D52E0314D62E0310D72E0800DB005B08B3
:101DB400840083130008DD00840A0008DE00840A1E
:101DC4000008DF000F300310DF0CDE0CDD0CFF3EDB
:101DD400031DE52E5D08DC00E0005A08840060085D
:101DE4008000DC08031DF72EF82E042F5B08840006
:101DF40000308000840A00308000840A00308000B3
:101E04000030312F0310003003180130DC005B0870
:101E1400840000308004840A80308004840A003006
:101E240080045B0884000008DD00840A0008DE00EA
:101E3400840A0008DF00DF1F202F212F252F013007
:101E4400DD005D08DC075B088400FF308005840A40
:101E5400FF308005840A003080055C08312F0800BB
:101E64000310003003180130D600D31F3A2F3B2F44
:101E7400432FD209D309D20A0319D30AD601031472
:101E8400D60DD51F462F472F4C2FD409D509D40A78
:101E94000319D50A550854040319512F522F822FC0
:101EA400D7010314D70D612F01300310D40DD50DC4
:101EB400FF3E031D572F0130D8005808D707D51F00
:101EC400642F652F562F55085302031D6B2F54089A
:101ED4005202031C6E2F6F2F752F5408D20255081F
:101EE400031CD303D30201300310D50CD40CFF3EE2
:101EF400031D762F0130D702031D812F822F652FFA
:101F0400D608031D862F8B2FD209D309D20A0319B1
:101F1400D30A8C2F08004D30DA0048300A128A1593
:101F2400D8260A128A1583120313CC004808CE005F
:101F34004908CF004A08D000D1018E30CD02CD1F10
:101F4400A42FA52FC72F4D08803A8F3E0318AB2F1F
:101F5400AC2FB52F0030CB000030CA000030C900D0
:101F64000030C800FF2F01300310D10CD00CCF0C6F
:101F7400CE0CFF3E031DB62F0130D2005208CD0710
:101F8400031DC52FC62FB52FE72F20304D02031C8C
:101F9400CC2FCD2FD62F0030CB000030CA0000301C
:101FA400C9000030C800FF2FE22F0130D200031017
:101FB400CE0DCF0DD00DD10DD20BD92F0130CD02C6
:101FC400CD08031DE62FE72FD72FCC08031DEB2FD9
:101FD400F62FCE09CF09D009D109CE0A0319CF0AA9
:101FE4000319D00A0319D10A5108CB005008CA00BA
:0C1FF4004F08C9004E08C800FF2F08006D
:02400E000A2F77
:00000001FF
