:020000040000FA
:06000000BCEF07F0120046
:020006001200E6
:06000800C0EF06F012003B
:02000E000100EF
:0C001000B50F00006000000010000000B0
:04001C008386320E97
:10002000E66EE66A73EC07F0E552E552839612003D
:10003000D9CFE6FFE1CFD9FF8394FE0EDBCFE6FFF9
:10004000BBD8E552E552E7CFD9FF1200D9CFE6FF82
:10005000E1CFD9FF8384FE0EDBCFE6FFADD8E552BA
:10006000E552E7CFD9FF1200D9CFE6FFE1CFD9FFA4
:10007000160EE126D9CFE9FFDACFEAFF490EEE6E80
:100080004E0EEE6E490EEE6E540EEE6E490EEE6E94
:10009000410EEE6E4C0EEE6E490EEE6E5A0EEE6E88
:1000A000490EEE6E4E0EEE6E470EEE6E2E0EEE6E9C
:1000B000EE6EEE6EEE6EEE6EEE6EEE6EEE6EEE6A64
:1000C000800EE66EB5DFE552D9CFE6FFDACFE6FF68
:1000D0002DD8E552E552C00EE66EAADFE552150EA8
:1000E000DB6A140EF36E150EDBCFF4FFF350F45CF5
:1000F0000FE22E0EE66EAADFE552F40EE66E010E5A
:10010000E66E73EC07F0E552E552150EDB2AE9D7EF
:10011000010EE66E8DDFE552160EE15C02E2E16A49
:10012000E552E16EE552E7CFD9FF1200D9CFE6FFE5
:10013000E1CFD9FFFD0EDBCFE9FFFE0EDBCFEAFFFB
:10014000EF5010E0FD0EDBCFE9FFFE0EDBCFEAFF44
:10015000EF50E66E7BDFE552FD0EDB2AFE0E01E37B
:10016000DB2AE8D7E552E7CFD9FF1200030E95143A
:10017000956E83968394030E831611D8280EE66E2F
:1001800057DFE5520C0EE66E53DFE552060EE66EC3
:100190004FDFE552010EE66E4BDFE5521200330EE3
:1001A000E66E46DFE552330EE66E42DFE552320E72
:1001B000E66E3EDFE5521200D9CFE6FFE1CFD9FF70
:1001C000FE0EDB50F00B146E0F0E83141410836EB2
:1001D00025DFFE0EDB38F00B146E0F0E83141410A7
:1001E000836E1CDF320EE66EE66A73EC07F0E552B2
:1001F000E552E552E7CFD9FF1200D9CFE6FFE1CFB4
:10020000D9FFFE0EDBCFE6FF13DFE552640E146E5E
:1002100014C00EF0FD0EDBCF09F0CAEC07F0095058
:1002200005E1200EE66E12DFE5520ED0640E146E6C
:1002300014C00EF0FD0EDBCF09F0CAEC07F0095038
:100240003009E66E03DFE552640E156E15C00EF040
:10025000FD0EDBCF09F0CAEC07F005C014F00A0E62
:10026000166E16C00EF014C009F0CAEC07F0095063
:1002700029E1640E146E14C00EF0FD0EDBCF09F000
:10028000CAEC07F0095005E1200EE66EDFDEE5520C
:1002900018D0640E156E15C00EF0FD0EDBCF09F000
:1002A000CAEC07F005C014F00A0E166E16C00EF068
:1002B00014C009F0CAEC07F009503009E66EC6DE3A
:1002C000E55218D0640E156E15C00EF0FD0EDBCF92
:1002D00009F0CAEC07F005C014F00A0E166E16C03D
:1002E0000EF014C009F0CAEC07F009503009E66EB0
:1002F000ADDEE5520A0E146E14C00EF0FD0EDBCF1B
:1003000009F0CAEC07F005503009E66E9FDEE552B1
:10031000E552E7CFD9FF1200D9CFE6FFE1CFD9FFF1
:100320000B0EE126060EDB6AFB0EDBCF14F0FC0E93
:10033000DBCF15F0FD0EDBCF16F0FE0EDBCF17F096
:100340000C6A0D6A0E6A0F6A14C007F015C008F037
:1003500016C009F017C00AF06CEC05F0010A2CE198
:100360002D0EE66E73DEE552FB0EDBCF14F0FC0EB5
:10037000DBCF15F0FD0EDBCF16F0FE0EDBCF17F056
:100380000C6A0D6A800E0E6EBF0E0F6E14C007F061
:1003900015C008F016C009F017C00AF07DEC04F093
:1003A000FB0E07C0DBFFFC0E08C0DBFFFD0E09C023
:1003B000DBFFFE0E0AC0DBFFFB0EDBCF07F0FC0EFF
:1003C000DBCF08F0FD0EDBCF09F0FE0EDBCF0AF02D
:1003D0003DEC05F0070E08C0DBFF080E09C0DBFF8F
:1003E000070EDBCF08F0080EDBCF09F0090E08C0BE
:1003F000DBFF0A0E09C0DBFF070EDBCFE6FF080EAE
:10040000DBCFE6FF30D9E552E5522E0EE66E1EDE5A
:10041000E552FB0EDBCF1CF0FC0EDBCF1DF0FD0E1A
:10042000DBCF1EF0FE0EDBCF1FF0070EDBCF08F098
:10043000080EDBCF09F0D3EC03F007C020F008C0B2
:1004400021F009C022F00AC023F020C00CF021C026
:100450000DF022C00EF023C00FF01CC007F01DC02D
:1004600008F01EC009F01FC00AF0E6EC03F007C058
:1004700018F008C019F009C01AF00AC01BF00C6A85
:100480000D6A800E0E6E3F0E0F6E18C007F019C079
:1004900008F01AC009F01BC00AF0E7EC03F007C02F
:1004A00014F008C015F009C016F00AC017F00C6A65
:1004B0000D6A7A0E0E6E440E0F6E14C007F015C052
:1004C00008F016C009F017C00AF07DEC04F0FB0E2E
:1004D00007C0DBFFFC0E08C0DBFFFD0E09C0DBFF21
:1004E000FE0E0AC0DBFFFB0EDBCF07F0FC0EDBCFFE
:1004F00008F0FD0EDBCF09F0FE0EDBCF0AF03DEC7D
:1005000005F0070E08C0DBFF080E09C0DBFF070E71
:10051000DBCF14F0080EDBCF15F0153404E21450D5
:100520000008000E15543BE2070EDBCF16F0080E54
:10053000DBCF17F00A0E0D6E0E6A16C008F017C05A
:1005400009F0EAEC04F004C016F005C017F0300E14
:100550001626000E1722D9CF14F0DACF15F0060EAA
:10056000DBCFF3FFDB2AF3500F011424E96E000EFA
:100570001520EA6E16C0EFFFD950070FE96EDACFEB
:10058000EAFF0A0E0D6E0E6AEECF08F0EDCF09F00D
:10059000EAEC04F008C0EEFF09C0EDFFB8D7060E84
:1005A000DB06060EDBCFF3FFDB06F350010811E29A
:1005B000D9CF14F0DACF15F0060EDB500F0114245A
:1005C000E96E000E1520EA6EEF50E66E3FDDE55253
:1005D000E8D7090EDBCF14F00A0EDBCF15F0D89068
:1005E000155004E60A0E145C000E15580BE2CC0EF2
:1005F000E66E1EDDE552B20EE66E0F0EE66E96DD7D
:10060000E552E552090EDBCF14F00A0EDBCF15F0F0
:10061000D890155004E60A0E145C000E155819E324
:10062000090EDBCF16F00A0EDBCF17F0D89017506B
:1006300004E6640E165C000E17580BE2CD0EE66E53
:10064000F7DCE552B00EE66E0F0EE66E6FDDE5529A
:10065000E5520B0EE15C02E2E16AE552E16EE55221
:10066000E7CFD9FF1200D9CFE6FFE1CFD9FF070EC0
:10067000E126060EDB6AFD0EDBCF14F0FE0EDBCFAB
:1006800015F00001800E151414E02D0EE66EDEDC70
:10069000E55208680968FD0EDBCF0DF0FE0EDBCFDA
:1006A0000EF010EC05F0FD0E06C0DBFFFE0E07C0DD
:1006B000DBFFD950FD0FE96EFF0EDA20EA6EEE5037
:1006C000ED1004E1300EE66EC1DCE552FD0EDBCF2D
:1006D00014F0FE0EDBCF15F0153404E214500008C0
:1006E000000E15543CE2FD0EDBCF16F0FE0EDBCF04
:1006F00017F00A0E0D6E0E6A16C008F017C009F04A
:10070000EAEC04F004C016F005C017F0300E161223
:10071000000E1712D9CF14F0DACF15F0060EDBCF8A
:10072000F3FFDB2AF3500F011424E96E000E1520AD
:10073000EA6E16C0EFFFD950FD0FE96EFF0EDA200A
:10074000EA6E0A0E0D6E0E6AEECF08F0EDCF09F0DC
:10075000EAEC04F008C0EEFF09C0EDFFB7D7060EC3
:10076000DBCFF3FFDB06F350000811E2D9CF14F022
:10077000DACF15F0060EDB500F011424E96E000EDF
:100780001520EA6EEF50E66E61DCE552E8D7070E01
:10079000E15C02E2E16AE552E16EE552E7CFD9FFA2
:0207A000120045
:0E07A200019E08D0019E09AE05D0086C091E0C
:1007B000E86A0922018E09C003F008C002F0136A3A
:1007C000126A8E0E046E056AE6EF05F00F7E016A6E
:1007D00022EC06F03AEC06F001B6CAEF05F001A2F1
:1007E0000AD001AA03D001BECAEF05F001A4D6EFDA
:1007F00005F0D3EF05F001AA05D001ACD6EF05F066
:10080000D3EF05F001A00AD001A808D001BE04D0A2
:1008100001A402D0DFEF05F0E3EF05F0126A056AEC
:100820000F500A5C116E10E307C013F008C002F00D
:1008300009C003F00AC010F00CC007F00DC008F0AA
:100840000EC009F0013A09D00CC013F00DC002F03F
:100850000EC003F00FC010F0116C019E01BC018EA0
:1008600010C004F001B012EF06F01A0E116012EF82
:1008700006F0046A0A6A01A408D0076C081E091E63
:100880000A1EE86A082209220A2201AC08D0136C69
:10089000021E031E041EE86A022203220422066AC4
:1008A000115207E00A340932083207320632112E9B
:1008B000F9D70750132608500222095003220A5084
:1008C000042206C012F0019E04AE0BD0126C131E5F
:1008D000021E031E041EE86A1322022203220422BF
:1008E000018E04A006D0D8800332023213321232B5
:1008F000102A10C004F0E6EF05F0016A22EC06F0C1
:100900003AEC06F001B6CAEF05F001A205D001B835
:10091000CAEF05F0D1EF05F001AA05D001B0CAEF8A
:1009200005F0D1EF05F001B002D001A802D0DDEF53
:1009300005F0056A0F500A24046EE86A05227E0E4F
:10094000045EE86A055A126A136A026A036A0E5064
:100950000902F4CF03F0F3CF02F00D500902F35077
:100960001326F4500222000E03220E500802F35008
:100970001326F4500222000E03220C500902F350F9
:100980001226F4501322000E022203220D500802F8
:10099000F3501226F4501322000E022203220E50AE
:1009A0000702F3501226F4501322000E02220322F3
:1009B0000C500802F4501226000E132202220322C9
:1009C0000D500702F4501226000E132202220322B9
:1009D000E6EF05F0006A0EAEF3EF04F00D6C0E1EAC
:1009E000E86A0E22001E09AEFBEF04F0086C091E37
:1009F000E86A0922001E96EC07F009BE0BEF05F02D
:100A000000AE000C086C091EE86A0922046C051E81
:100A1000E86A0522000C00BE02EF05F00188FF0C19
:100A200009C013F008C012F008500D02F4CF07F00F
:100A3000F3CF06F009500E02F4CF09F0F3CF08F01F
:100A40000D02F3500726F4500822E86A09221250DA
:100A50000E02F3500726F4500822E86A09220EAE6F
:100A600036EF05F01250085E1350095A13AE000C11
:100A70000D50085E0E50095A000C016A22EC06F077
:100A800001B647EF05F001A20ED001B405D07F0EEC
:100A9000096EFF0E086E1FD0800E096E086A1BD00B
:100AA000096A086A18D001B0FBD78F0E0A60EDD72B
:100AB0007E0E0A64F5D78E0E0A5C05E0D8900932E6
:100AC00008320A2AF8D701A406D0086C091EE86A81
:100AD000092209AEE5D7120075EC05F001B6000C4D
:100AE00001B0000C01A4000C010C016A22EC06F01C
:100AF0003AEC06F001B6120001AE08D001A004D015
:100B000001A802D001801200019012000F500A5C6F
:100B10000BE10E50095C08E10D50085C05E10C503A
:100B2000075C02E101801200D8A002D0018E10D033
:100B30000A500FC00AF00F6E09500EC009F00E6E79
:100B400008500DC008F00D6E07500CC007F00C6E79
:100B50000F500A5C10E0FF0F09E0019001B403D0D0
:100B600001AE0184120001AE019412000F2AD89048
:100B70000E320D320C320C50075E0D50085A0E50DA
:100B8000095A09BEEAD7D8900736083609360A2E20
:100B9000F8D7C8D77F0E0A6EFF0E096E086E076E73
:100BA00012007F0E01BEFF0E0A6E02D07F0E0A6E8B
:100BB000800E096E086A076AF3D701AE04D0800E72
:100BC0000A6E096AF7D70A6A096AF4D70350021055
:100BD00013101210F8E005BEF0D703BE0CD004507D
:100BE0000510EBE0D89012361336023603360406B1
:100BF000D8A00506F2D70550D4E10428D2E012AE01
:100C000011D07F0E121402E113A00CD0132AE86A4F
:100C10000222032207E3D880033202321332042A6D
:100C20000428BFE00450C9E013C007F002C008F078
:100C30000334096E04300A6E09320A9E01BE0A8E20
:100C4000D0EF05F009360A3602E30184017E06E1A1
:100C500001800A6A096A086A076A12000A2803E022
:100C6000D88009321200D890093202E101821200C4
:100C7000018612000E360F3602E3018C017E06E17A
:100C800001880F6A0E6A0D6A0C6A12000F2803E0D1
:100C9000D8800E321200D8900E32EAE1018A12009A
:100CA000D9CFE6FFE1CFD9FF030EE126010EDB6AC3
:100CB000040EF36E020EF3CFDBFF320EE66EE66A31
:100CC00073EC07F0E552E5528150DF6EF00EDF1A4B
:100CD000DF5002E14BD02BD08286DF9EDF46DF5013
:100CE00003E0010EDB2AF9D7FE0E816E815C03E082
:100CF000020EDB6A1CD0FD0E816E815C06E0010EE7
:100D0000F36E020EF3CFDBFF12D0FB0E816E815C1F
:100D100005E0020EF36EF3CFDBFF09D0F70E816E14
:100D2000815C05E0030EF36E020EF3CFDBFF020ED3
:100D3000DB50040813E3010EDBCFE6FF020EDB50AD
:100D4000040DF350E552E724EA6A600FE96E000EE5
:100D5000EA22EF50E66E26EC00F0E552F00E815CE0
:100D600003E0F00E816EFAD7F290F286030EE15C9A
:100D700002E2E16AE552E16EE552E7CFD9FF1200E7
:100D8000DACFE4FFE2CFDAFFE9CFE4FFEACFE4FF16
:100D9000F6CFE4FFF7CFE4FFF5CFE4FFF3CFE4FFB6
:100DA000F4CFE4FFFACFE4FF00EE00F0140EE80405
:100DB00003E3EECFE4FFFBD700EE14F0100EE804DF
:100DC00003E3EECFE4FFFBD7E652F2A003D0F290AC
:100DD00050EC06F0E55200EE23F0100EE80403E3B9
:100DE000E5CFEDFFFBD700EE13F0140EE80403E3AC
:100DF000E5CFEDFFFBD7E5CFFAFFE5CFF4FFE5CF79
:100E0000F3FFE5CFF5FFE5CFF7FFE5CFF6FFE5CF41
:100E1000EAFFE5CFE9FFE5CFDAFF1100946A826AC5
:100E2000B6EC00F0070EB41234EC00F0F19EF00EB8
:100E300093129316816EF00E815C01E0FCD7F28E66
:080E4000F286F290FFD71200C8
:080E48000E0EF66E000EF76EAF
:100E5000000EF86E00010900F550756F0900F5509D
:100E6000766F03E1756701D03DD00900F550706FD2
:100E70000900F550716F0900F550726F0900090003
:100E8000F550E96E0900F550EA6E09000900090005
:100E9000F550736F0900F550746F09000900F6CF23
:100EA00077F0F7CF78F0F8CF79F070C0F6FF71C027
:100EB000F7FF72C0F8FF0001735302E1745307E0BB
:100EC0000900F550EE6E7307F8E27407F9D777C0A2
:100ED000F6FF78C0F7FF79C0F8FF00017507000E34
:060EE000765BBFD7120093
:0A0EE600D9CFE6FFE1CFD9FFE652B5
:100EF000D950FD0FE96EFF0EDA20EA6E000ED880A1
:100F0000EE54000EED540DE2FA0EDF6EDF50DF06F8
:100F1000000901E0FBD7FD0EDB06FE0E01E2DB0659
:0C0F2000E7D7E552E552E7CFD9FF1200F9
:040F2C00056A046AE4
:100F3000100EE76ED89008360936043605360D5087
:100F4000045C0E50055805E30D50045E0E50055A22
:080F5000082AE72EF0D7120079
:080F5800000EF36E00EE00F044
:100F6000060E01D81200EA6002D0EE6AFCD7F350F8
:080F7000E9601200EE6AFCD7F3
:080F780015EE00F025EE00F07B
:100F8000F86A019C24EC07F003EC00F00EEC07F08B
:040F9000FBD7120079
:0C0F9400056A080EE76ED8900936053695
:100FA0000E50055C02E3056E092AE72EF7D7120002
:050FB0002000202000DC
:0B0FB5003031323334353637383941E3
:050FC0004243444546D8
:00000001FF
