:020000040000FA
:0600000034EF03F01200D2
:020006001200E6
:0600080090EF01F0120070
:02000E000100EF
:0C00100084060000600000000E000000EC
:04001C000D7E0F6ADC
:1000200062EC01F07AEC01F00FB60AEF01F00FA2DA
:100030000AD00FAA03D00FBE0AEF01F00FA416EFEB
:1000400001F013EF01F00FAA05D00FAC16EF01F08D
:1000500013EF01F00FA00AD00FA808D00FBE04D0F4
:100060000FA402D01FEF01F023EF01F0126A036A20
:100070000D50085C116E10E305C013F006C000F0CF
:1000800007C001F008C010F00AC005F00BC006F070
:100090000CC007F00F3A09D00AC013F00BC000F0F3
:1000A0000CC001F00DC010F0116C0F9E0FBC0F8E34
:1000B00010C002F00FB052EF01F01A0E116052EFB3
:1000C00001F0026A086A0FA408D0056C061E071E1C
:1000D000081EE86A0622072208220FAC08D0136C1B
:1000E000001E011E021EE86A002201220222046A8A
:1000F000115207E008340732063205320432112E5D
:10010000F9D7055013260650002207500122085047
:10011000022204C012F00F9E02AE0BD0126C131E0E
:10012000001E011E021EE86A132200220122022282
:100130000F8E02A006D0D880013200321332123264
:10014000102A10C002F026EF01F0B5EC00F00FB657
:10015000000C0FB0010C000CB5EC00F00FB6000C59
:100160000FB0000C0FA4000C010C0F6A62EC01F040
:100170007AEC01F00FB612000FAE08D00FA004D039
:100180000FA802D00F8012000F9012000D50085CD3
:100190000BE10C50075C08E10B50065C05E10A50CE
:1001A000055C02E10F801200D8A002D00F8E10D0A3
:1001B00008500DC008F00D6E07500CC007F00C6E13
:1001C00006500BC006F00B6E05500AC005F00A6E13
:1001D0000D50085C10E0FF0F09E00F900FB403D042
:1001E0000FAE0F8412000FAE0F9412000D2AD8909C
:1001F0000C320B320A320A50055E0B50065A0C5074
:10020000075A07BEEAD7D890053606360736082EB5
:10021000F8D7C8D77F0E086EFF0E076E066E056E04
:1002200012007F0E0FBEFF0E086E02D07F0E086E0A
:10023000800E076E066A056AF3D70FAE04D0800EF3
:10024000086E076AF7D7086A076AF4D701500010EA
:1002500013101210F8E003BEF0D701BE0CD002500C
:100260000310EBE0D8901236133600360136020642
:10027000D8A00306F2D70350D4E10228D2E012AE90
:1002800011D07F0E121402E113A00CD0132AE86AD9
:100290000022012207E3D880013200321332022A01
:1002A0000228BFE00250C9E013C005F000C006F00C
:1002B0000134076E0230086E0732089E0FBE088EAA
:1002C00010EF01F00736083602E30F840F7E06E1D7
:1002D0000F80086A076A066A056A1200082803E0A8
:1002E000D88007321200D890073202E10F82120044
:1002F0000F8612000C360D3602E30F8C0F7E06E1DE
:100300000F880D6A0C6A0B6A0A6A12000D2803E056
:10031000D8800C321200D8900C32EAE10F8A120019
:10032000DACFE4FFE2CFDAFFE9CFE4FFEACFE4FF80
:10033000F6CFE4FFF7CFE4FFF3CFE4FFF4CFE4FF21
:10034000FACFE4FF00EE00F0140EE80403E3EECF72
:10035000E4FFFBD7E652D9CFE6FFE1CFD9FFE65263
:100360009EA05CD00A6A0B6A7A0E0C6E440E0D6E6B
:100370006AC005F06BC006F06CC007F06DC008F0F5
:10038000ACEC00F0010A02E181822BD00A6A0B6A10
:10039000FA0E0C6E440E0D6E6AC005F06BC006F0CE
:1003A0006CC007F06DC008F0ACEC00F0010A19E178
:1003B0000A6AE00E0B6EF90E0C6E440E0D6E6AC0EA
:1003C00005F06BC006F06CC007F06DC008F0A5EC3E
:1003D00000F0010A05E100016A6B6B6B6C6B6D6BE1
:1003E0008192CE6ACF6A9D809E906AC005F06BC0F4
:1003F00006F06CC007F06DC008F00A6A0B6A800E48
:100400000C6E3F0E0D6E0FEC00F005C06AF006C0DA
:100410006BF007C06CF008C06DF05FD0F2A45DD047
:100420000A6A400E0B6E1C0E0C6E470E0D6E66C0F7
:1004300005F067C006F068C007F069C008F0ACECD2
:1004400000F0010A02E181802DD0800E0A6E400E7C
:100450000B6E9C0E0C6E470E0D6E66C005F067C0ED
:1004600006F068C007F069C008F0ACEC00F0010AC3
:1004700019E10A6A400E0B6E9C0E0C6E470E0D6E53
:1004800066C005F067C006F068C007F069C008F0F4
:10049000A5EC00F0010A05E10001666B676B686B73
:1004A000696B8190D66AF294F28A66C005F067C0E3
:1004B00006F068C007F069C008F00A6A0B6A800E8F
:1004C0000C6E3F0E0D6E0FEC00F005C066F006C01E
:1004D00067F007C068F008C069F0E552E552E7CF61
:1004E000D9FFE55200EE13F0140EE80403E3E5CF64
:1004F000EDFFFBD7E5CFFAFFE5CFF4FFE5CFF3FF44
:10050000E5CFF7FFE5CFF6FFE5CFEAFFE5CFE9FF5F
:10051000E5CFDAFF1100936A816A00016A6B6B6BA9
:100520006C6B6D6B666B676B686B696BD58ED58C0E
:10053000D59AD598D586D594D592D590D66ACD80C2
:10054000CD8ECD98CD9ACD86CD929F80D08ECE6A1D
:10055000CF6AF28EF28C9D809E90F28AF294F184A2
:04056000FFD71200AF
:0C0564000E0EF66E000EF76E000EF86E24
:1005700000010900F550736F0900F550746F03E135
:10058000736701D03DD00900F5506E6F0900F5503A
:100590006F6F0900F550706F09000900F550E96EA2
:1005A0000900F550EA6E090009000900F550716F65
:1005B0000900F550726F09000900F6CF75F0F7CF0A
:1005C00076F0F8CF77F06EC0F6FF6FC0F7FF70C01F
:1005D000F8FF0001715302E1725307E00900F55082
:1005E000EE6E7107F8E27207F9D775C0F6FF76C0B4
:1005F000F7FF77C0F8FF00017307000E745BBFD7E9
:020600001200E6
:0E060200D9CFE6FFE1CFD9FFE652D950FD0F68
:10061000E96EFF0EDA20EA6E000ED880EE54000E6E
:10062000ED540DE2FA0EDF6EDF50DF06000901E047
:10063000FBD7FD0EDB06FE0E01E2DB06E7D7E55237
:08064000E552E7CFD9FF1200DB
:08064800000EF36E00EE00F05D
:10065000060E01D81200EA6002D0EE6AFCD7F35011
:08066000E9601200EE6AFCD70C
:0806680015EE00F025EE00F094
:10067000F86A0F9CB2EC02F003EC00F08BEC02F095
:04068000FBD7120092
:0C0684000000000000000000000000006A
:02069000000068
:00000001FF
