:0600000000308A00102808
:10000800FF000308F0000408F1000A08F2007E0867
:10001800F3000A128A113F2883177C3084007E304F
:100028000A128A111D200A128A1183010A128A11E2
:10003800252864008001840A040603190034040694
:100048001E2803108316031300300318013086009E
:10005800831203138614831603138112011281116C
:10006800011481140115831203138B178B163B2877
:100078000A128A111028831203130B1D44284528DD
:100088005D2801307D06031D4B2831307C06031D99
:100098004E284F285528023086060030FC000030D4
:1000A800FD000130FC070318FD0A0030FD070B11A5
:1000B8008B167308FE0072088A00710884007008A5
:0800C8008300FF0E7F0E09000A
:02400E000A2F77
:00000001FF
