:020000040000FA
:060000000DEF15F01200E7
:0A00060001005A2A0000600000000B
:040010004C000000A0
:0C0014008386320EE66EE66AC4EC14F03F
:10002000E552E55283961200D9CFE6FFE1CFD9FF22
:100030008394FE0EDBCFE6FFBBD8E552E552E7CF57
:10004000D9FF1200D9CFE6FFE1CFD9FF8384FE0E9E
:10005000DBCFE6FFADD8E552E552E7CFD9FF12007E
:10006000D9CFE6FFE1CFD9FF160EE126D9CFE9FFC0
:10007000DACFEAFF490EEE6E4E0EEE6E490EEE6ED0
:10008000540EEE6E490EEE6E410EEE6E4C0EEE6E9E
:10009000490EEE6E5A0EEE6E490EEE6E4E0EEE6E7E
:1000A000470EEE6E2E0EEE6EEE6EEE6EEE6EEE6E97
:1000B000EE6EEE6EEE6EEE6A800EE66EB5DFE55227
:1000C000D9CFE6FFDACFE6FF2DD8E552E552C00ED4
:1000D000E66EAADFE552150EDB6A140EF36E150EFE
:1000E000DBCFF4FFF350F45C0FE22E0EE66EAADFD6
:1000F000E552F40EE66E010EE66EC4EC14F0E55225
:10010000E552150EDB2AE9D7010EE66E8DDFE552CA
:10011000160EE15C02E2E16AE552E16EE552E7CFDC
:10012000D9FF1200D9CFE6FFE1CFD9FFFD0EDBCF1B
:10013000E9FFFE0EDBCFEAFFEF5010E0FD0EDBCF54
:10014000E9FFFE0EDBCFEAFFEF50E66E7BDFE55204
:10015000FD0EDB2AFE0E01E3DB2AE8D7E552E7CFEE
:10016000D9FF1200030E9514956E83968394030EA7
:10017000831611D8280EE66E57DFE5520C0EE66E98
:1001800053DFE552060EE66E4FDFE552010EE66ED6
:100190004BDFE5521200330EE66E46DFE552330EBA
:1001A000E66E42DFE552320EE66E3EDFE5521200A9
:1001B000D9CFE6FFE1CFD9FFFE0EDB50F00B006E8A
:1001C0000F0E83140010836E25DFFE0EDB38F00B5C
:1001D000006E0F0E83140010836E1CDF320EE66E6D
:1001E000E66AC4EC14F0E552E552E552E7CFD9FFD8
:1001F0001200D9CFE6FFE1CFD9FFFE0EDBCFE6FF3D
:1002000013DFE552640E006E00C046F0FD0EDBCF3A
:1002100041F01BEC15F0415005E1200EE66E12DFB7
:10022000E5520ED0640E006E00C046F0FD0EDBCF2E
:1002300041F01BEC15F041503009E66E03DFE5524A
:10024000640E016E01C046F0FD0EDBCF41F01BECE9
:1002500015F03DC000F00A0E026E02C046F000C06C
:1002600041F01BEC15F0415029E1640E006E00C016
:1002700046F0FD0EDBCF41F01BEC15F0415005E1DF
:10028000200EE66EDFDEE55218D0640E016E01C06E
:1002900046F0FD0EDBCF41F01BEC15F03DC000F049
:1002A0000A0E026E02C046F000C041F01BEC15F0D1
:1002B00041503009E66EC6DEE55218D0640E016E7C
:1002C00001C046F0FD0EDBCF41F01BEC15F03DC048
:1002D00000F00A0E026E02C046F000C041F01BECB6
:1002E00015F041503009E66EADDEE5520A0E006EA3
:1002F00000C046F0FD0EDBCF41F01BEC15F03D5089
:100300003009E66E9FDEE552E552E7CFD9FF1200D5
:10031000D9CFE6FFE1CFD9FF0B0EE126060EDB6A4F
:10032000FB0EDBCF00F0FC0EDBCF01F0FD0EDBCFD0
:1003300002F0FE0EDBCF03F0446A456A466A476A64
:1003400000C03FF001C040F002C041F003C042F0E5
:100350007BEC09F0010A2CE12D0EE66E73DEE5520E
:10036000FB0EDBCF00F0FC0EDBCF01F0FD0EDBCF90
:1003700002F0FE0EDBCF03F0446A456A800E466E43
:10038000BF0E476E00C03FF001C040F002C041F018
:1003900003C042F08CEC08F0FB0E3FC0DBFFFC0E0C
:1003A00040C0DBFFFD0E41C0DBFFFE0E42C0DBFFA5
:1003B000FB0EDBCF3FF0FC0EDBCF40F0FD0EDBCFC2
:1003C00041F0FE0EDBCF42F04CEC09F0070E40C0CE
:1003D000DBFF080E41C0DBFF070EDBCF40F0080E4D
:1003E000DBCF41F0090E40C0DBFF0A0E41C0DBFF4E
:1003F000070EDBCFE6FF080EDBCFE6FF30D9E55274
:10040000E5522E0EE66E1EDEE552FB0EDBCF08F047
:10041000FC0EDBCF09F0FD0EDBCF0AF0FE0EDBCFCA
:100420000BF0070EDBCF40F0080EDBCF41F08FEC76
:1004300007F03FC00CF040C00DF041C00EF042C0CC
:100440000FF00CC044F00DC045F00EC046F00FC0D8
:1004500047F008C03FF009C040F00AC041F00BC0AF
:1004600042F0A2EC07F03FC004F040C005F041C0EC
:1004700006F042C007F0446A456A800E466E3F0EA1
:10048000476E04C03FF005C040F006C041F007C011
:1004900042F0A3EC07F03FC000F040C001F041C0C3
:1004A00002F042C003F0446A456A7A0E466E440E7A
:1004B000476E00C03FF001C040F002C041F003C0F1
:1004C00042F08CEC08F0FB0E3FC0DBFFFC0E40C09E
:1004D000DBFFFD0E41C0DBFFFE0E42C0DBFFFB0E6B
:1004E000DBCF3FF0FC0EDBCF40F0FD0EDBCF41F069
:1004F000FE0EDBCF42F04CEC09F0070E40C0DBFFF4
:10050000080E41C0DBFF070EDBCF00F0080EDBCF8B
:1005100001F0013404E200500008000E01543BE2F7
:10052000070EDBCF02F0080EDBCF03F00A0E456E9C
:10053000466A02C040F003C041F0F9EC08F03CC04C
:1005400002F03DC003F0300E0226000E0322D9CF88
:1005500000F0DACF01F0060EDBCFF3FFDB2AF35019
:100560000F010024E96E000E0120EA6E02C0EFFFC9
:10057000D950070FE96EDACFEAFF0A0E456E466AD8
:10058000EECF40F0EDCF41F0F9EC08F040C0EEFFC7
:1005900041C0EDFFB8D7060EDB06060EDBCFF3FF3A
:1005A000DB06F350010811E2D9CF00F0DACF01F0F9
:1005B000060EDB500F010024E96E000E0120EA6EEA
:1005C000EF50E66E3FDDE552E8D7090EDBCF00F0D5
:1005D0000A0EDBCF01F0D890015004E60A0E005C51
:1005E000000E01580BE2CC0EE66E1EDDE552540EF5
:1005F000E66E2A0EE66E96DDE552E552090EDBCF79
:1006000000F00A0EDBCF01F0D890015004E60A0E8C
:10061000005C000E015819E3090EDBCF02F00A0E50
:10062000DBCF03F0D890035004E6640E025C000EAA
:1006300003580BE2CD0EE66EF7DCE552520EE66E85
:100640002A0EE66E6FDDE552E5520B0EE15C02E22A
:10065000E16AE552E16EE552E7CFD9FF1200D9CF4A
:10066000E6FFE1CFD9FF070EE126060EDB6AFD0E9D
:10067000DBCF00F0FE0EDBCF01F00001800E011495
:1006800014E02D0EE66EDEDCE55240684168FD0E9A
:10069000DBCF45F0FE0EDBCF46F01FEC09F0FD0E80
:1006A0003EC0DBFFFE0E3FC0DBFFD950FD0FE96E01
:1006B000FF0EDA20EA6EEE50ED1004E1300EE66E29
:1006C000C1DCE552FD0EDBCF00F0FE0EDBCF01F00A
:1006D000013404E200500008000E01543CE2FD0E1B
:1006E000DBCF02F0FE0EDBCF03F00A0E456E466A4A
:1006F00002C040F003C041F0F9EC08F03CC002F049
:100700003DC003F0300E0212000E0312D9CF00F0EC
:10071000DACF01F0060EDBCFF3FFDB2AF3500F0137
:100720000024E96E000E0120EA6E02C0EFFFD950EE
:10073000FD0FE96EFF0EDA20EA6E0A0E456E466A7C
:10074000EECF40F0EDCF41F0F9EC08F040C0EEFF05
:1007500041C0EDFFB7D7060EDBCFF3FFDB06F3504A
:10076000000811E2D9CF00F0DACF01F0060EDB501D
:100770000F010024E96E000E0120EA6EEF50E66ED4
:1007800061DCE552E8D7070EE15C02E2E16AE5527E
:0A079000E16EE552E7CFD9FF120039
:06079A00936AB2EC00F0CE
:1007A000070EB41230EC00F080C044F081C045F078
:1007B00082C046F083C047F07CC03FF07DC040F06F
:1007C0007EC041F07FC042F0A3EC07F03FC008F0CC
:1007D00040C009F041C00AF042C00BF080C044F0B4
:1007E00081C045F082C046F083C047F07CC03FF036
:1007F0007DC040F07EC041F07FC042F0A3EC07F026
:100800003FC00CF040C00DF041C00EF042C00FF0F0
:100810000CC044F00DC045F00EC046F00FC047F0CC
:1008200008C03FF009C040F00AC041F00BC042F0E0
:100830008CEC08F03FC004F040C005F041C006F069
:1008400042C007F074C044F075C045F076C046F071
:1008500077C047F074C03FF075C040F076C041F0FB
:1008600077C042F08CEC08F03FC014F040C015F0A7
:1008700041C016F042C017F078C044F079C045F08E
:100880007AC046F07BC047F078C03FF079C040F0B6
:100890007AC041F07BC042F08CEC08F03FC018F009
:1008A00040C019F041C01AF042C01BF018C044F01B
:1008B00019C045F01AC046F01BC047F014C03FF005
:1008C00015C040F016C041F017C042F0A3EC07F08D
:1008D0003FC010F040C011F041C012F042C013F010
:1008E00010C044F011C045F012C046F013C047F0EC
:1008F00004C03FF005C040F006C041F007C042F020
:10090000A2EC07F03FC000F040C001F041C002F08F
:1009100042C003F074C044F075C045F076C046F0A4
:1009200077C047F074C03FF075C040F076C041F02A
:1009300077C042F08CEC08F03FC024F040C025F0B6
:1009400041C026F042C027F078C044F079C045F09D
:100950007AC046F07BC047F078C03FF079C040F0E5
:100960007AC041F07BC042F08CEC08F03FC028F028
:1009700040C029F041C02AF042C02BF028C044F00A
:1009800029C045F02AC046F02BC047F024C03FF0F4
:1009900025C040F026C041F027C042F0A3EC07F08C
:1009A0003FC020F040C021F041C022F042C023F0FF
:1009B00080C044F081C045F082C046F083C047F05B
:1009C0007CC03FF07DC040F07EC041F07FC042F06F
:1009D000A2EC07F03FC030F040C031F041C032F02F
:1009E00042C033F080C044F081C045F082C046F080
:1009F00083C047F07CC03FF07DC040F07EC041F036
:100A00007FC042F0A2EC07F03FC034F040C035F0A8
:100A100041C036F042C037F034C044F035C045F034
:100A200036C046F037C047F030C03FF031C040F02C
:100A300032C041F033C042F08CEC08F03FC02CF0E3
:100A400040C02DF041C02EF042C02FF02CC044F029
:100A50002DC045F02EC046F02FC047F020C03FF01B
:100A600021C040F022C041F023C042F0A2EC07F0C8
:100A70003FC01CF040C01DF041C01EF042C01FF03E
:100A80001CC044F01DC045F01EC046F01FC047F01A
:100A900000C03FF001C040F002C041F003C042F08E
:100AA00039EC08F03FC094F040C095F041C096F09A
:100AB00042C097F094C0E6FF95C0E6FF96C0E6FFFF
:100AC00097C0E6FF1BEC10F0E552E552E552E55207
:100AD0003EC09CF03FC09DF040C09EF041C09FF0E2
:100AE000010EE66E14EC00F0E552800EE66E14EC9A
:100AF00000F0E55294C0E6FF95C0E6FF96C0E6FF21
:100B000097C0E6FF88EC01F0E552E552E552E55268
:100B1000C00EE66E14EC00F0E5529CC0E6FF9DC0EE
:100B2000E6FF9EC0E6FF9FC0E6FF88EC01F0E552BD
:100B3000E552E552E552400EE66E1F0EE66EC4EC3D
:100B400014F0E552E552006A016A026A400E036E33
:100B500000C0E6FF01C0E6FF02C0E6FF03C0E6FFFB
:100B60009CC0E6FF9DC0E6FF9EC0E6FF9FC0E6FF7B
:100B70008FEC0DF0E552E552E552E552E552E7CF34
:100B800003F0E552E7CF02F0E552E7CF01F0E5527E
:100B9000E7CF00F03EC004F03FC005F040C006F0D3
:100BA00041C007F004C044F005C045F006C046F05F
:100BB00007C047F000C03FF001C040F002C041F064
:100BC00003C042F08CEC08F03FC08CF040C08DF0C8
:100BD00041C08EF042C08FF0446A456A340E466EC2
:100BE000430E476E8CC03FF08DC040F08EC041F088
:100BF0008FC042F08CEC08F03FC000F040C001F024
:100C000041C002F042C003F0C30E446EF50E456EC3
:100C1000480E466E400E476E00C03FF001C040F0E7
:100C200002C041F003C042F039EC08F03FC090F040
:100C300040C091F041C092F042C093F074C044F0C3
:100C400075C045F076C046F077C047F078C03FF0F9
:100C500079C040F07AC041F07BC042F039EC08F036
:100C60003FC000F040C001F041C002F042C003F0BC
:100C700000C0E6FF01C0E6FF02C0E6FF03C0E6FFDA
:100C80008FEC0DF0E552E552E552E5523EC0A0F082
:100C90003FC0A1F040C0A2F041C0A3F08CC0E6FF6D
:100CA0008DC0E6FF8EC0E6FF8FC0E6FF75EC14F046
:100CB000E552E552E552E5523EC004F03FC005F072
:100CC00040C006F041C007F004C044F005C045F044
:100CD00006C046F007C047F080C03FF081C040F03A
:100CE00082C041F083C042F08CEC08F03FC000F0BD
:100CF00040C001F041C002F042C003F000C0E6FF76
:100D000001C0E6FF02C0E6FF03C0E6FF8CC0E6FFBD
:100D10008DC0E6FF8EC0E6FF8FC0E6FF9DEC14F0AD
:100D2000E552E552E552E552E552E7CF03F0E552D0
:100D3000E7CF02F0E552E7CF01F0E552E7CF00F050
:100D40003EC010F03FC011F040C012F041C013F09F
:100D500010C044F011C045F012C046F013C047F077
:100D600080C03FF081C040F082C041F083C042F0BB
:100D70008CEC08F03FC00CF040C00DF041C00EF00C
:100D800042C00FF00CC044F00DC045F00EC046F05C
:100D90000FC047F07CC03FF07DC040F07EC041F006
:100DA0007FC042F0A3EC07F03FC008F040C009F05C
:100DB00041C00AF042C00BF008C044F009C045F041
:100DC0000AC046F00BC047F000C03FF001C040F041
:100DD00002C041F003C042F039EC08F03FC098F087
:100DE00040C099F041C09AF042C09BF098C0E6FF25
:100DF00099C0E6FF9AC0E6FF9BC0E6FF8FEC0DF0BE
:100E0000E552E552E552E5523EC0A4F03FC0A5F0E0
:100E100040C0A6F041C0A7F0A4C044F0A5C045F072
:100E2000A6C046F0A7C047F0A0C03FF0A1C040F068
:100E3000A2C041F0A3C042F0A2EC07F03FC084F092
:100E400040C085F041C086F042C087F0446A456AE0
:100E5000340E466E430E476E84C03FF085C040F0AE
:100E600086C041F087C042F08CEC08F03FC000F033
:100E700040C001F041C002F042C003F0C30E446E16
:100E8000F50E456E480E466E400E476E00C03FF0B0
:100E900001C040F002C041F003C042F039EC08F05C
:100EA0003FC088F040C089F041C08AF042C08BF05A
:100EB000010EE66E14EC00F0E552800EE66E14ECC6
:100EC00000F0E55288C0E6FF89C0E6FF8AC0E6FF71
:100ED0008BC0E6FF88EC01F0E552E552E552E552A1
:100EE000C00EE66E14EC00F0E55290C0E6FF91C033
:100EF000E6FF92C0E6FF93C0E6FF88EC01F0E55202
:100F0000E552E552E552E80EE66E030EE66EC4ECDD
:0A0F100014F0E552E552FFD712007D
:060F1A00399E08D0399E4B
:100F200041AE05D0406C411EE86A4122398E41C075
:100F30003BF040C03AF04B6A4A6A8E0E3C6E3D6A06
:100F4000F5EF09F0477E396A31EC0AF049EC0AF016
:100F500039B6D9EF09F039A20AD039AA03D039BE7F
:100F6000D9EF09F039A4E5EF09F0E2EF09F039AA69
:100F700005D039ACE5EF09F0E2EF09F039A00AD06D
:100F800039A808D039BE04D039A402D0EEEF09F058
:100F9000F2EF09F04A6A3D6A4750425C496E10E33D
:100FA0003FC04BF040C03AF041C03BF042C048F077
:100FB00044C03FF045C040F046C041F0393A09D046
:100FC00044C04BF045C03AF046C03BF047C048F043
:100FD000496C399E39BC398E48C03CF039B021EF9C
:100FE0000AF01A0E496021EF0AF03C6A426A39A4FD
:100FF00008D03F6C401E411E421EE86A402241223A
:10100000422239AC08D04B6C3A1E3B1E3C1EE86AAB
:101010003A223B223C223E6A495207E042344132A6
:1010200040323F323E32492EF9D73F504B26405096
:101030003A2241503B2242503C223EC04AF0399E67
:101040003CAE0BD04A6C4B1E3A1E3B1E3C1EE86A5F
:101050004B223A223B223C22398E3CA006D0D8803B
:101060003B323A324B324A32482A48C03CF0F5EF24
:1010700009F0396A31EC0AF049EC0AF039B6D9EFD7
:1010800009F039A205D039BAD9EF09F0E0EF09F03B
:1010900039BAECEF09F039A005D039B8D9EF09F029
:1010A000ECEF09F039B8E0EF09F03D6A7F0E422419
:1010B0003C6EE86A3D2247503C5EE86A3D5A1A0E93
:1010C000486E426A4A6A4B6A3A6A3B6A44503F5EDB
:1010D0004550405A4650415A000E425A09E7445082
:1010E0003F264550402246504122000E422201D068
:1010F0004A8AD8903F36403641364236D8904A36F2
:101100004B363A363B36482EE1D7415040103F101F
:10111000D8A44A8AF5EF09F0396A31EC0AF049ECB3
:101120000AF039B6D9EF09F039A205D039B8D9EFAC
:1011300009F0E0EF09F039AA05D039B0D9EF09F08C
:10114000E0EF09F039B002D039A802D0ECEF09F095
:101150003D6A475042243C6EE86A3D227E0E3C5E6A
:10116000E86A3D5A4A6A4B6A3A6A3B6A465041020B
:10117000F4CF3BF0F3CF3AF045504102F3504B2609
:10118000F4503A22000E3B2246504002F3504B26C8
:10119000F4503A22000E3B2244504102F3504A26BA
:1011A000F4504B22000E3A223B2245504002F350AD
:1011B0004A26F4504B22000E3A223B2246503F0270
:1011C000F3504A26F4504B22000E3A223B22445060
:1011D0004002F4504A26000E4B223A223B22455050
:1011E0003F02F4504A26000E4B223A223B22F5EFF2
:1011F00009F0386A46AE02EF09F0456C461EE86A0F
:101200004622381E41AE0AEF09F0406C411EE86AE2
:101210004122381EE7EC14F041BE1AEF09F038AE57
:10122000000C406C411EE86A41223C6C3D1EE86A9D
:101230003D22000C38BE11EF09F03988FF0C41C087
:101240004BF040C04AF040504502F4CF3FF0F3CF9E
:101250003EF041504602F4CF41F0F3CF40F045025A
:10126000F3503F26F4504022E86A41224A50460299
:10127000F3503F26F4504022E86A412246AE45EF43
:1012800009F04A50405E4B50415A4BAE000C45505D
:10129000405E4650415A000C396A31EC0AF039B6CA
:1012A00056EF09F039A20ED039B405D07F0E416E49
:1012B000FF0E406E1FD0800E416E406A1BD0416A07
:1012C000406A18D039B0FBD78F0E4260EDD77E0E42
:1012D0004264F5D78E0E425C05E0D8904132403230
:1012E000422AF8D739A406D0406C411EE86A412250
:1012F00041AEE5D7120084EC09F039B6000C39B0E4
:10130000000C39A4000C010C396A31EC0AF049ECEC
:101310000AF039B6120039AE08D039A004D039A885
:1013200002D039801200399012004750425C0BE124
:101330004650415C08E14550405C05E144503F5C4B
:1013400002E139801200D8A002D0398E10D042506C
:1013500047C042F0476E415046C041F0466E405093
:1013600045C040F0456E3F5044C03FF0446E47508A
:10137000425C10E0FF0F09E0399039B403D039AE78
:101380003984120039AE39941200472AD890463277
:101390004532443244503F5E4550405A4650415ACF
:1013A00041BEEAD7D8903F3640364136422EF8D774
:1013B000C8D77F0E426EFF0E416E406E3F6E120028
:1013C0007F0E39BEFF0E426E02D07F0E426E800E3F
:1013D000416E406A3F6AF3D739AE04D0800E426E48
:1013E000416AF7D7426A416AF4D73B503A104B1032
:1013F0004A10F8E03DBEF0D73BBE0CD03C503D104B
:10140000EBE0D8904A364B363A363B363C06D8A00D
:101410003D06F2D73D50D4E13C28D2E04AAE11D08F
:101420007F0E4A1402E14BA00CD04B2AE86A3A2204
:101430003B2207E3D8803B323A324B323C2A3C28ED
:10144000BFE03C50C9E04BC03FF03AC040F03B34F5
:10145000416E3C30426E4132429E39BE428EDFEFD9
:1014600009F04136423602E33984397E06E139809B
:10147000426A416A406A3F6A1200422803E0D8800B
:1014800041321200D890413202E13982120039868D
:1014900012004636473602E3398C397E06E1398838
:1014A000476A466A456A446A1200472803E0D880C2
:1014B00046321200D8904632EAE1398A120084ECB2
:1014C00009F039B6000C39B0000C39B4000C010C2D
:1014D000399E0CD0399E41AE09D03E6C3F1E401E55
:1014E000411EE86A3F2240224122398E41C03BF032
:1014F00040C03AF03FC04BF03EC04AF09E0E3C6EFA
:101500003D6AF5EF09F0396A31EC0AF039B68DEF32
:101510000AF039A20FD039B407D07F0E416EFF0E0A
:10152000406E3F6E3E6E25D0800E416E01D0416A06
:10153000000EF6D739B0FBD73E6A9F0E4260EBD75C
:101540007E0E4264F4D79E0E425C07E0D890413292
:1015500040323F323E32422AF6D739A40AD03E6C9E
:101560003F1E401E411EE86A3F224022412241AEFA
:04157000DED71200B0
:0C157400D9CFE6FFDACFE6FFE1CFD9FFC8
:10158000E2CFDAFF220EE12402E3E168E652E16EE7
:10159000D950130FE66E000EDA20E66EA8DAD8EC0A
:1015A00012F0006E060EE15C02E2E16AE552E16EC5
:1015B0000050E76E0E0EE7CFDBFFDB50840B0CE034
:1015C000210E0001B66FB76B0F0EDB68100EDB68E3
:1015D000110EDB687F0E6ED08ADA36DA020E3EC05C
:1015E000DBFF030E3FC0DBFF040E40C0DBFF050E38
:1015F00041C0DBFF87DA446A100E456E490E466E25
:10160000460E14DA7BEC09F0010A32E07BDA67DA85
:101610000DDA39EC08F0BFD9060EDBCF3FF0070E2C
:10162000DBCF40F0080EDBCF41F0090EDBCF42F0FC
:1016300083EC0AF06AEC0AF0AED964DA060EDBCF6E
:1016400008F0070EDBCF09F0080EDBCF0AF0090E19
:10165000DBCF0BF044DA476E08C03FF009C040F022
:101660000AC041F00BC042F048DAA2EC07F0C4D93E
:10167000F90EDB5012E00E0EDB040BE1FA0EDBCFAD
:1016800000F0FB0EDBCF01F0FC0EDBCF02F0FD0E15
:1016900052D167D9466AF8D947D00E0EDB0419E15A
:1016A0000F0EDB6A100EDB6A800EF36E110EF3CFA5
:1016B000DBFF3F0EF36E120EF3CFDBFF0F0EDBCF1F
:1016C00000F0100EDBCF01F0110EDBCF02F0120E96
:1016D00032D1190EDB6A45D9800E466ED5D9006A23
:1016E000016A026A3F0E036ED950060FE96E000EC2
:1016F000DA20EA6EEECF3FF0EECF40F0EECF41F0D1
:10170000EFCF42F000C044F001C045F002C046F007
:1017100003C047F0A2EC07F042C0EDFF41C0EDFF6F
:1017200040C0EDFF3FC0EFFFDF50010B0AE0190E94
:10173000DB5002E0000E01D0010EE76E190EE7CF7C
:10174000DBFF8CD9060EDBCF0CF0070EDBCF0DF0E4
:10175000080EDBCF0EF0090EDBCF0FF0446A456AAE
:10176000490E466E400E476E0CC03FF00DC040F073
:101770000EC041F00FC042F08CEC08F05CD9A6D945
:1017800095D9A2EC07F077D9060EDBCF14F0070E3F
:10179000DBCF15F0080EDBCF16F0090EDBCF17F00C
:1017A000220E446EAA0E456E7D0E466E3A0E476EB0
:1017B00014C03FF015C040F016C041F017C042F011
:1017C0008CEC08F03FC010F040C011F041C012F0A6
:1017D00042C013F0EDD8A2EC07F00A0E3FC0DBFFC9
:1017E0000B0E40C0DBFF0C0E41C0DBFF0D0E42C0F4
:1017F000DBFFD9500A0FE96E000EEAD825D93EC0AA
:1018000000F03FC001F040C002F041C003F0446A64
:10181000456A800E466E390E476E3EC03FF04FD986
:101820007BEC09F0010A13E1D9500A0FE96E000EB2
:10183000DA20EA6E020EEECFDBFF030EEECFDBFF07
:10184000040EEECFDBFF050EEECFDBFF68D0E1D854
:101850000A0EDBCF44F00B0EDBCF45F00C0EDBCFD6
:1018600046F00D0EDBCF47F08CEC08F01A0E3FC0AF
:10187000DBFF1B0E40C0DBFF1C0E41C0DBFF1D0E5B
:1018800042C0DBFF5B0E3F6E9C0E406E2E0E416E23
:10189000360E426E72D8CFD8220E446EB20E456E0E
:1018A0004F0E466EB90E32D99ED83E0E446E870E4C
:1018B000456E080E466E3C0E29D9DDD8A40E446E46
:1018C000AA0E456E2A0E466EBE0E20D91E0E3FC0D1
:1018D000DBFF1F0E40C0DBFF200E41C0DBFF210EEF
:1018E00042C0DBFF0A0EDBCF00F00B0EDBCF01F0B6
:1018F0000C0EDBCF02F00D0EDBCF03F08AD81E0EEC
:10190000DBCF44F01F0EDBCF45F0200EDBCF46F0DF
:10191000210EDBCF47F0F1D8A3EC07F06DD8190EFC
:10192000DB5008E09BD8446A456A800E466EBF0EC5
:10193000F0D803D042D8DBCF03F000C03EF001C0A6
:101940003FF002C040F003C041F0220EE15C02E231
:10195000E16AE552E16EE552E5CFDAFFE7CFD9FF64
:1019600012007CD8830E446EF90E456EA20E466EB0
:101970003E0ECFD8446A456A12001A0EDBCF44F0FF
:101980001B0EDBCF45F01C0EDBCF46F01D0EDBCF70
:1019900047F08CEF08F0060E3FC0DBFF070E40C09B
:1019A000DBFF080E41C0DBFF090E42C0DBFF120067
:1019B0008DD800C03FF05FEF0DF0020EDBCF00F0DE
:1019C000030EDBCF01F0040EDBCF02F0050E120098
:1019D000DA20EA6EEECFE6FFEECFE6FFEECFE6FFCF
:1019E000EFCFE6FF12003FC004F040C005F041C059
:1019F00006F042C007F01200020E3FC0DBFF030EEC
:101A000040C0DBFF040E41C0DBFF050E42C0DBFF20
:101A100012000A0EDBCF3FF00B0EDBCF40F00C0EB6
:101A2000DBCF41F00D0EDBCF42F01200476E00C05D
:101A30003FF05FEF0DF03FC008F040C009F041C03B
:101A40000AF042C00BF0120042EC14F0E552E552ED
:101A5000E552E5521200476EA3EF07F0020EDBCF0E
:101A600004F0030EDBCF05F0040EDBCF06F0050E0D
:101A7000DBCF07F012003FC000F040C001F041C0D2
:101A800002F042C003F012003F0EE5DF4CEC09F01B
:101A900040C0DEFF41C0DDFF000EDFCF40F0010E91
:101AA000DBCF41F08FEC07F0CBEF0CF004C03FF040
:101AB00005C040F006C041F007C042F0120001C06E
:101AC00040F002C041F003C042F012003FC044F0B9
:101AD00040C045F041C046F042C047F01200DB0E66
:101AE000446E0F0E456EC90E466E400E1200D95060
:101AF000FA0FE96EFF0EE8EF0CF08CEC08F073DFE4
:101B0000D8EF0CF05ADFDBCF03F01200A4DFBDEFFB
:0E1B10000CF0476ECBDF8CEC08F03BEF0DF0D5
:021B1E00D9CF1D
:101B2000E6FFDACFE6FFE1CFD9FFE2CFDAFF1D0E05
:101B3000E12402E3E168E652E16E67DAFA0EDBCFF8
:101B4000EEFFFB0EDBCFEEFFFC0EDBCFEEFFFD0E5C
:101B5000DBCFEEFFD950040FE66E000EDA20E66E02
:101B60000BDAD8EC12F0006E060EE15C02E2E16ADC
:101B7000E552E16E0050E76E0B0EE7CFDBFFDB5066
:101B8000800807E10A0EDB6ADE68DE68DE687F0E29
:101B900013D00B0EDB0405E1DE6ADE6ADE6ADD6A65
:101BA000A6D10B0EDB50040809E1DB0EDE6E0F0E32
:101BB000DE6EC90EDE6E3F0EDD6E99D1DDD91EDA06
:101BC0003EC0DEFF3FC0DEFF40C0DEFF41C0DDFFA4
:101BD000DD52DD52DBD90DDA3F0E20DA23E13F6A18
:101BE000406A800E416E3F0E426EDECF44F0DECF83
:101BF00045F0DECF46F0DDCF47F0DD52DD5239EC67
:101C000008F03FC0DFFF010E40C0DBFF020E41C005
:101C1000DBFF030E42C0DBFF020EF36E0C0EF3CFB0
:101C2000DBFF02D00C0EDB6AB1D9A30E446E300E7E
:101C3000456E890E466E3E0EF1D96CE1AF0E3F6ED9
:101C4000670E406E3B0E416E3F0E426EB2D93FC0F2
:101C500008F040C009F041C00AF042C00BF0C9D9F9
:101C60003F0E476EA2EC07F03FC004F040C005F005
:101C700041C006F042C007F0C8D9EECF0CF0EECF5D
:101C80000DF0EECF0EF0EFCF0FF00CC044F00DC012
:101C900045F00EC046F00FC047F0A3EC07F080D926
:101CA000D70E146EB30E156EDD0E166E3F0E176E48
:101CB000ACD9EECF18F0EECF19F0EECF1AF0EFCF8F
:101CC0001BF018C044F019C045F01AC046F01BC004
:101CD00047F014C03FF015C040F016C041F0426E0E
:101CE000A3EC07F03FC010F040C011F041C012F06B
:101CF00042C013F03FC044F040C045F041C046F040
:101D000042C047F035D939EC08F05FD9DD52DD52D9
:101D10000C0EDB2A31D972D93EC000F03FC001F071
:101D200040C002F041C003F064D9390E476E3EC096
:101D30003FF07AD97BEC09F0010A01E1B5D04ED928
:101D400038D90D0E3FC0DBFF0E0E40C0DBFF0F0E7B
:101D500041C0DBFF100E42C0DBFF910E3F6E860ECE
:101D6000406E500E416EBD0E426E0D0EDBCF44F044
:101D70000E0EDBCF45F00F0EDBCF46F0100E4AD92A
:101D80000FD9F60E446E100E456EF10E466EBE0E65
:101D9000476EA3EC07F0110E3FC0DBFF120E40C0F0
:101DA000DBFF130E41C0DBFF140E42C0DBFF0D0E44
:101DB000DBCF00F00E0EDBCF01F00F0EDBCF02F019
:101DC000100EDBCF03F0D30E446ECC0E456EB40E76
:101DD000466E3F0E476ECCD8A3EC07F0150E3FC001
:101DE000DBFF160E40C0DBFF170E41C0DBFF180EF5
:101DF00042C0DBFF0D0EDBCF3FF00E0EDBCF40F01D
:101E00000F0EDBCF41F0100EDBCF42F0110EDBCF17
:101E100044F0120EDBCF45F0130EDBCF46F0140E6C
:101E2000F9D8150EDBCF44F0160EDBCF45F0170EB8
:101E3000DBCF46F0180EDBCF47F039EC08F0B0D816
:101E4000190E3FC0DBFF1A0E40C0DBFF1B0E41C066
:101E5000DBFF1C0E42C0DBFFC1D8190EDBCF44F004
:101E60001A0EDBCF45F01B0EDBCF46F01C0ED2D88E
:101E700097D8CBD8EECF3FF0EECF40F0EECF41F089
:101E8000EFCF42F000C044F001C045F002C046F080
:101E900003C047F0A3EC07F042C0EDFF41C0EDFFE7
:101EA00040C0EDFF3FC0EFFF0C0EDB0409E1920ED6
:101EB000006E0A0E016E060E3FD8A3EC07F016D096
:101EC0000C0EDB50020806E1DB0E006E0F0E016EF9
:101ED000C90E09D00C0EDB5003080BE1920E006E08
:101EE0000A0E016E860E28D8A2EC07F06ED8DD52DD
:101EF000DD520A0EDB500AE049D87BD8BF0E476E90
:101F000037D88CEC08F061D8DD52DD52DECF3EF0E0
:101F1000DECF3FF0DECF40F0DDCF41F0DD52DD52CD
:101F20001D0EE15C02E2E16AE552E16EE552E5CFA9
:101F3000DAFFE7CFD9FF1200026E3F0E036E65D8BD
:101F4000EECF04F0EECF05F0EECF06F0EFCF07F0C6
:101F500004C044F005C045F006C046F007C047F095
:101F600000C03FF001C040F002C041F0426E1200DC
:101F700000C03FF014EF10F048D8EECFE6FFEECFF0
:101F8000E6FFEECFE6FFEFCFE6FF12003ED8EECF42
:101F900000F0EECF01F0EECF02F0EFCF03F0120031
:101FA0003FC000F040C001F041C002F042C003F069
:101FB0001200000EDFCF44F0010EDBCF45F0020E21
:101FC000DBCF46F0030E0AEF10F03FC0DEFF40C04B
:101FD000DEFF41C0DEFF42C0DDFF1200DECF3FF07A
:101FE000DECF40F0DECF41F0DDCF42F0DD52DD52FA
:101FF0001200446A456A800E466E120042EC14F0EC
:10200000E552E552E552E5521200D9CFE9FFDACFA9
:10201000EAFF1200DBCF47F08CEF08F0476EA8DF35
:102020005FEC0AF0010A120001C040F002C041F06A
:0620300003C042F01200A3
:0A203600D9CFE6FFDACFE6FFE1CFD5
:10204000D9FFE2CFDAFF240EE12402E3E168E65291
:10205000E16ED950FA0FE96EFF0EDA20EA6E020E39
:10206000EECFDBFF030EEECFDBFF040EEECFDBFF88
:10207000050EEECFDBFFE8D9F2D9D8EC12F0006EF6
:10208000060EE15C02E2E16AE552E16E0050E76EA5
:102090000D0EE7CFDBFFDB50800815E0A0D9446AC6
:1020A000456A466A476A00C03FF001C040F002C07E
:1020B00041F003C042F07BEC09F0010A10E1210E6F
:1020C0000001B66FB76B020EDB68030EDB68040E0F
:1020D000DB687F0EF36E050EF3CFDBFF66D10D0ECE
:1020E000DB50050B01E061D10A0EDBCF00F00B0ED7
:1020F000DBCF01F0830E0026FF0E012200C0DEFFC1
:1021000001C0DDFFD950060F65D976D9DF50010B2C
:102110000FE0DF06010E01E2DB06D950180F5AD995
:10212000D890EF36010EEB36020EEB36030EEB368F
:10213000D9CFE9FFDACFEAFF020E456E466AEECF4D
:1021400040F0EDCF41F0F9EC08F040C0EEFF41C0A7
:10215000EDFF140EDB6A150EDB6A160EDB6A170E36
:10216000DB6A1C0EDB6A1D0EDB6A1E0EDB6A010ECB
:10217000F36E1F0EF3CFDBFF010EF36E0E0EF3CFE7
:10218000DBFF0F0EDB6A0E0EDBCF00F00F0EDBCF96
:1021900001F0D890015004E61A0E005C000E0158C0
:1021A00001E398D0180EDBCF00F0190EDBCF01F061
:1021B0001A0EDBCF02F01B0EDBCF03F0010E1F0B5C
:1021C00007E0D8900036013602360336E806F9E11A
:1021D000180E00C0DBFF190E01C0DBFF1A0E02C093
:1021E000DBFF1B0E03C0DBFF140EDBCF08F0150E68
:1021F000DBCF09F0160EDBCF0AF0170EDBCF0BF0AA
:10220000010E1F0B07E0D890083609360A360B3648
:10221000E806F9E1D9501C0FDDD80850EE24046E11
:102220000950EE20056E0A50EE20066E0B50EE208F
:10223000076ED950180FCED80450EE5C006E0550D2
:10224000EE58016E0650EE58026E0750EE58036EBF
:10225000200E00C0DBFF210E01C0DBFF220E02C0FA
:10226000DBFF230E03C0DBFF200EDBCF3FF0210E90
:10227000DBCF40F0220EDBCF41F0230EDBCF42F06C
:102280004234000E421809E6D880000E3F54000E7A
:102290004054000E4154000E425411E2D950200F18
:1022A00099D8AAD8D8D81C0EDB50EE121D0EDB50E0
:1022B000EE121E0EDB50EE121F0EDB50EE12D95046
:1022C0001C0F88D8AFD80E0EDB2A0F0E01E25BD7A9
:1022D000DB2A59D7C9D8100E00C0DBFF110E01C090
:1022E000DBFF180EDBCF40F0190EDBCF41F0120EF2
:1022F00040C0DBFF130E41C0DBFFADD893D8D950EF
:10230000100F68D8EE50ED1012E0D950120F62D8BD
:10231000EE50ED1006E1A8D8005001100210031095
:1023200006E099D8EE2A000EEE22EE22EE220C0EE6
:10233000DB6A91D8060EEECFDBFF070EEECFDBFF98
:10234000080EEECFDBFF090EEECFDBFF7E0EF36E45
:102350000A0EF3CFDBFF0B0EDB6AD950020FE66EDD
:10236000000EDA20E66E70D866EC13F0E552E55206
:10237000E552E552DECFE6FFDDCFE6FF70D83CEC5C
:1023800012F0006E060EE15C02E2E16AE552E16ED7
:102390000050020E3EC0DBFF030E3FC0DBFF040E09
:1023A00040C0DBFF050E41C0DBFF19D800C03EF086
:1023B00001C03FF002C040F003C041F0240EE15CD8
:1023C00002E2E16AE552E16EE552E5CFDAFFE7CFDE
:1023D000D9FF1200E96E000EDA20EA6E1200020E3A
:1023E000DBCF00F0030EDBCF01F0040EDBCF02F0F9
:1023F000050EDBCF03F01200180EEECFDBFF190E37
:10240000EECFDBFF1A0EEECFDBFF1B0EEECFDBFFB6
:102410001200EECFE6FFEECFE6FFEECFE6FFEFCF06
:10242000E6FF1200D890030EEB32020EEB32010EE3
:10243000EB32EF321200EE500016EE500116EE5065
:102440000216EE5003161200D950060FE66E000E6B
:10245000DA20E66E1200D950140FEAEF11F0D950CD
:10246000020FB8DF09EF12F0010E006E016A026A76
:08247000036AF1DF1BEF12F01B
:0824780096D8E1CFD9FFE2CFB5
:10248000DAFF0C0EE12402E3E168E652E16ED95076
:10249000FA0FE96EFF0EDA20EA6E080EEECFDBFFD0
:1024A000090EEECFDBFF0A0EEECFDBFF0B0EEECFF9
:1024B000DBFF79D8D950080FE96E000EDA20EA6EFA
:1024C000EECFE6FFEECFE6FFEECFE6FFEFCFE6FF83
:1024D000D8EC12F0006E060EE15C02E2E16AE55211
:1024E000E16E0050E76E070EE7CFDBFFDB50840B99
:1024F0003AE1070EDB041AE1060EDB5006E0006A43
:10250000016A026A800E036E04D0006A016A026AE0
:10251000036A080E00C0DBFF090E01C0DBFF0A0ED4
:1025200002C0DBFF0B0E03C0DBFF1DD0F80EDBCFBC
:1025300000F0F90EDBCF01F0D950040FE96E000E68
:10254000DA20EA6E0050EE260150ED22D950080F35
:10255000E66E000EDA20E66E26D866EC13F0E55241
:10256000E552E552E552080EDBCF00F0090EDBCF55
:1025700001F00A0EDBCF02F00B0EDBCF03F000C040
:102580003EF001C03FF002C040F003C041F00C0E2D
:10259000E15C02E2E16AE552E16EE552E5CFDAFF85
:1025A000E7CFD9FF1200D9CFE6FFDACFE6FF12005E
:1025B000D9CFE6FFDACFE6FFE1CFD9FFE2CFDAFFEE
:1025C000E652006801687F0E026E036AD950FA0F66
:1025D000E96EFF0EDA20EA6EEE500016EE5001169C
:1025E000EE500216EE5003166AD800C0EEFF01C08E
:1025F000EEFF02C0EEFF03C0EEFFFD0EDB50800BCE
:1026000002E0010E01D0000EE66E59D8060EE92652
:10261000000EEA22E552E750EF6EFC0EDBCF00F031
:10262000FD0EDBCF01F0D89000360136FC0E00C065
:10263000DBFFFD0E01C0DBFFDB50E66E40D8040E71
:10264000E926000EEA22E552E750EE6EED6AFD0E35
:10265000DB50006E016AFF0E001818E1015016E110
:102660002ED8EECF00F0EECF01F0EECF02F0EFCF9C
:1026700003F0005001100210031006E0210E0001CB
:10268000B66FB76B800E0BD0040E09D0FD0EDB5079
:1026900008E115D8EE6AEE6AEE6AEE6A010EDF6EA8
:1026A00006D0020EDF6E0BD8EE52EE52EE8EDF50E9
:1026B000E552E552E5CFDAFFE7CFD9FF1200F80E79
:0C26C000DBCFE9FFF90EDBCFEAFF1200D0
:0426CC00D9CFE6FF7D
:1026D000DACFE6FFE1CFD9FFE2CFDAFF5BD80134F2
:1026E00011E20050FE08000E01540CE276D805E01D
:1026F0006CD8800EEE6EEE6847D067D8800EEE6E16
:102700007F0E0ED047D8D890015004E6010E005C31
:10271000000E01580BE261D805E057D8EE6A800E32
:10272000EE6E32D052D8EE6AEE6A2ED047D8EECF97
:1027300000F0EECF01F0EECF02F0EFCF03F032D891
:1027400000C0EEFF01C0EEFF02C0EEFF03C0EEFFCF
:1027500021D80050010B05E025D8020E3AD8EF8EA3
:1027600004D020D8020E35D8EF9E14D8D89001326C
:10277000003218D8030E2DD800C0EFFF1AD804E09D
:1027800011D8030E26D8EF8EE552E5CFDAFFE7CF5A
:10279000D9FF120013D8040E1CD8EECF00F0EFCFF3
:1027A00001F01200FA0EDBCFE9FFFB0EDBCFEAFFF0
:1027B000120004D8060E0DD8EF501200FC0EDBCF2D
:1027C000E9FFFD0EDBCFEAFF1200ECDFEE6AEE6AF6
:1027D0001200E926000EEA221200220E0001B66F56
:0627E000B76BD9EF13F006
:0A27E600060EF66E000EF76E000EF0
:1027F000F86E00010900F550B16F0900F550B26F95
:1028000003E1B16701D03DD00900F550AC6F09007C
:10281000F550AD6F0900F550AE6F09000900F55095
:10282000E96E0900F550EA6E090009000900F5504B
:10283000AF6F0900F550B06F09000900F6CFB3F093
:10284000F7CFB4F0F8CFB5F0ACC0F6FFADC0F7FFEE
:10285000AEC0F8FF0001AF5302E1B05307E009003A
:10286000F550EE6EAF07F8E2B007F9D7B3C0F6FF48
:10287000B4C0F7FFB5C0F8FF0001B107000EB25BAE
:04288000BFD71200AC
:0C288400D9CFE6FFDACFE6FFE1CFD9FFA5
:10289000E2CFDAFFE652E652D950FD0F006EFF0E8E
:1028A000DA2000C0DEFFDD6EDECFE9FFDDCFEAFF1C
:1028B000EF9EFA0EDBCF00F0FB0EDBCF01F0FC0E3B
:1028C000DBCF02F0FD0EDBCF03F000C03EF001C015
:1028D0003FF002C040F003C041F0E552E552E5523E
:0A28E000E5CFDAFFE7CFD9FF1200C1
:0628EA00D9CFE6FFDACFB2
:1028F000E6FFE1CFD9FFE2CFDAFF010EE66ED95055
:10290000FA0FE96EFF0EDA20EA6EEECFE6FFEECFA9
:10291000E6FFEECFE6FFEFCFE6FFBAEC0AF0006E7F
:10292000050EE15C02E2E16AE552E16E0050E5521B
:0A293000E5CFDAFFE7CFD9FF120070
:06293A00D9CFE6FFDACF61
:10294000E6FFE1CFD9FFE2CFDAFFE66AD950FA0F0E
:10295000E96EFF0EDA20EA6EEECFE6FFEECFE6FF7D
:10296000EECFE6FFEFCFE6FFBAEC0AF0006E050E01
:10297000E15C02E2E16AE552E16E0050E552E5CF2A
:08298000DAFFE7CFD9FF1200D6
:08298800D9CFE6FFE1CFD9FF32
:10299000E652D950FD0FE96EFF0EDA20EA6E000E06
:1029A000D880EE54000EED540DE2FA0EDF6EDF50CB
:1029B000DF06000901E0FBD7FD0EDB06FE0E01E29B
:0E29C000DB06E7D7E552E552E7CFD9FF12005C
:0229CE003D6A60
:1029D0003C6A100EE76ED890403641363C363D36A4
:1029E00045503C5C46503D5805E345503C5E4650E2
:0A29F0003D5A402AE72EF0D71200EE
:0629FA00000EF36E00EE7A
:102A000000F0060E01D81200EA6002D0EE6AFCD790
:0A2A1000F350E9601200EE6AFCD7F3
:062A1A0015EE00F025EEB0
:102A200000F0F86A399CF3EC13F02CEC15F0CDECC7
:062A300003F0FBD71200C9
:0A2A36003D6A080EE76ED8904136A5
:102A40003D3646503D5C02E33D6E412AE72EF7D706
:022A5000120072
:052A520020002020001F
:022A580012006A
:062A5A0000000000000076
:102A60000000000000000000000000000000000066
:102A7000A040000070410000F04000002041000034
:102A80000000000000000000000000000000000046
:102A90000000000000000000000000000000000036
:062AA00000000000000030
:00000001FF
