:060000000A128A11562CC1
:1008AC00AD01AE0183010A128A11F52C0230F00061
:1008BC000030F1000A128A118B240A128A110800E6
:1008CC000A128A1149250A128A11D030F000073019
:1008DC00F1000A128A11D6240A128A110800031098
:1008EC00003003180130F4003F300A128A117925C8
:1008FC000A128A110630F7007708F4003F300A120A
:10090C008A1179250A128A1108000030F200003091
:10091C00F300962C0130F2070318F30A0030F307AA
:10092C0071087302031D9C2C70087202031C9F2C0F
:10093C00A02C902CA12C0800F800031000300318F8
:10094C000130F4007808B8380A128A1179250A1295
:10095C008A110630F7007708F4007808B8380A12C4
:10096C008A1179250A128A110800F8000310003048
:10097C0003180130F40078083F39C0380A128A1184
:10098C0079250A128A110630F7007708F4007808E6
:10099C003F39C0380A128A1179250A128A110800C7
:1009AC00ED2CFF30F2007208F300DD2CDD2C013051
:1009BC00F3027308FF3A031DE42CE52CDD2CE62C26
:1009CC000130F0020030031CF103F102ED2C710830
:1009DC007004031DF22CF32CD72CF42C0800831676
:1009EC000313860107083F3083120313AC002C0855
:1009FC008316031387050808CF3083120313AC004A
:100A0C002C088316031388050B2D0A128A116624F1
:100A1C000A128A112030F0004E30F1000A128A11AD
:100A2C00D6240A128A110B2D0A128A1100280030C2
:100A3C00F4000030F500222D701C252D262D2C2DB8
:100A4C007208F4070318F50A7308F5070130031050
:100A5C00F20DF30DFF3E031D2D2D01300310F10C93
:100A6C00F00CFF3E031D342D71087004031D3F2D47
:100A7C00402D222D412D7508F101F1077408F0016C
:100A8C00F007482D08000A128A1175240A128A11DF
:100A9C0000300A128A11BB240A128A110A128A1116
:100AAC003B260A128A1183120313A0010314A00D12
:100ABC000630A1009F30A20000300A128A118B264A
:100ACC000A128A11033083120313AB002B08A00007
:100ADC00F230A1009E30A20000300A128A11762753
:100AEC000A128A110800F6000030F0000030F10004
:100AFC0074080838F5007508F2000A128A11F725F7
:100B0C000A128A110A128A115C240A128A11013003
:100B1C00F0000030F1007608F5007508F2000A12BA
:100B2C008A11F7250A128A110A128A115C240A12F8
:100B3C008A110030F0000030F10074080938F5001B
:100B4C007508F2000A128A11F7250A128A110A1284
:100B5C008A115C240A128A110A128A115C240A1264
:100B6C008A110800F8007808F7007708831203133D
:100B7C00AD00403078020318C42DC52DDD2D0310B7
:100B8C00003003180130F40078083F3940380A125D
:100B9C008A1179250A128A110630F7007708F400B9
:100BAC0040300A128A1179250A128A11F62D031087
:100BBC00003003180130F4007F300A128A117925B5
:100BCC000A128A110630F7007708F4007808C03E44
:100BDC003F3940380A128A1179250A128A11F62DEA
:100BEC000800710870040319FC2DFD2D022E7208EB
:100BFC008312031386003A2E721C052E062E0B2E22
:100C0C00FE30F3007308F2050C2E7214F21C0F2E3A
:100C1C00102E152EFD30F3007308F205162EF2146B
:100C2C00F21D192E1A2E1F2EF730F3007308F20541
:100C3C00212EF215212E7208F30005300310F30D4E
:100C4C00FF3E031D242E0310730D83120313870024
:100C5C007208F30001300310F30DFF3E031D312E1B
:100C6C000310730D88003A2E08000310003003188F
:100C7C00013083120313A20008302202031C472EFA
:100C8C00482E4A2E8A2E8A2E22080A128A11A22453
:100C9C000A128A1100300A128A11B8250A128A1116
:100CAC00031000300318013083120313A1008030AD
:100CBC002102031C622E632E652E7F2E7F2E2E307A
:100CCC00F4000030F5000130F6000030F7000A1295
:100CDC008A11F8260A128A11013083120313A0001C
:100CEC002008A10780302102031C7D2E7E2E652E4C
:100CFC007F2E0130A0002008A20708302202031C1E
:100D0C00882E892E4A2E8A2E080083120313A900DE
:100D1C0029080A128A11B8250A128A1183120313A0
:100D2C0020080A128A11A2240A128A1183120313B0
:100D3C0029080A128A11B8250A128A1103100030E8
:100D4C000318013083120313AA00E52E2A08210789
:100D5C00840022080318220AFF000A168A110025B3
:100D6C000A128A11A300A4012308A7002408A800D2
:100D7C0003300310A70DA80DFF3E031DBF2E12302C
:100D8C00A3009530A40027082307A5002808031802
:100D9C00280A2407A6002508F4002608F5000830C8
:100DAC00F6000030F7000A128A11F8260A128A118E
:100DBC00013083120313A3002308AA07E52E2A0887
:100DCC002107840022080318220AFF000A168A1140
:100DDC0000250A128A110038031DF52EF62EAC2EB2
:100DEC00F72E08000030FB000030FC006A2F0030AA
:100DFC00F9000030FA004030831203132D02031C5B
:100E0C00082F092F0D2F0630F9000030FA00790851
:100E1C00F8007808FD000030F0000030F1007D088B
:100E2C00F8007808F2000A128A11F7250A128A11C2
:100E3C000A128A115C240A128A110130F000003067
:100E4C00F1007B08740784007C0803187C0A750782
:100E5C0083120313FF000A168A1100250A128A1145
:100E6C00F8007808F2000A128A11F7250A128A1182
:100E7C000A128A115C240A128A110030F000003028
:100E8C00F1007D080138F8007808F2000A128A1186
:100E9C00F7250A128A110A128A115C240A128A1185
:100EAC000130F800780883120313AD0780302D024F
:100EBC00031C612F622F642F752F752F0130FB07D8
:100ECC000318FC0A0030FC0777087C02031D702F06
:100EDC0076087B02031C732F742FFD2E752F0800D0
:100EEC0083120313A70027080A128A11B8250A12C5
:100EFC008A118312031320080A128A11A2240A12DF
:100F0C008A118312031327080A128A11B8250A12B0
:100F1C008A11031000300318013083120313AA0046
:100F2C00ED2F2A082107840022080318220AFF004B
:100F3C000A168A1100250A128A11E03EA800FF3019
:100F4C0003180030A9000530F0000030F10029082A
:100F5C00F301F3072808F201F2070A128A111D2582
:100F6C000A128A11710883120313A901A9077008C8
:100F7C00A801A8071230A3009D30A400280823075D
:100F8C00A50029080318290A2407A6002508F4003F
:100F9C002608F5000530F6000030F7000A128A1119
:100FAC00F8260A128A112E30F4000030F5000130B8
:100FBC00F6000030F7000A128A11F8260A128A117C
:100FCC00013083120313A3002308AA07ED2F2A086C
:100FDC002107840022080318220AFF000A168A112E
:100FEC0000250A128A110038031DFD2FFE2F972FA2
:040FFC00FF2F0800BB
:102A0000FF1B0A2D83137F1883170008840A0319FC
:102A1000FF0A08007F087F398A000408840A031926
:102A2000FF0A8200003400340034003400340034E3
:102A3000003400347E3481349534B134B13495346B
:102A400081347E347E34FF34EB34CF34CF34EB34F6
:102A5000FF347E340E341F343F347E343F341F3411
:102A60000E34003408341C343E347F343E341C347D
:102A7000083400341834BA34FF34FF34FF34BA3425
:102A8000183400341034B834FC34FF34FC34B83417
:102A9000103400340034003418343C343C341834DE
:102AA00000340034FF34FF34E734C334C334E73434
:102AB000FF34FF3400343C346634423442346634EC
:102AC0003C340034FF34C3349934BD34BD349934BC
:102AD000C334FF347034F83488348834FD347F34A0
:102AE00007340F3400344E345F34F134F1345F3442
:102AF0004E340034C034E034FF347F3405340534C0
:102B000007340734C034FF347F340534053465346A
:102B10007F343F3499345A343C34E734E7343C341E
:102B20005A3499347F343E343E341C341C340834D7
:102B300008340034083408341C341C343E343E3429
:102B40007F340034003424346634FF34FF34663478
:102B50002434003400345F345F34003400345F3494
:102B60005F34003406340F3409347F347F34013449
:102B70007F347F344034DA34BF34A534FD345934E3
:102B80000334023400347034703470347034703470
:102B90007034003480349434B634FF34FF34B634A7
:102BA000943480340034043406347F347F34063463
:102BB000043400340034103430347F347F34303403
:102BC000103400340834083408342A343E341C34B9
:102BD0000834003408341C343E342A3408340834B1
:102BE000083400343C343C34203420342034203445
:102BF0002034003408341C343E34083408343E3465
:102C00001C340834303438343C343E343E343C34A4
:102C10003834303406340E341E343E343E341E34E0
:102C20000E340634003400340034003400340034F0
:102C300000340034003406345F345F34063400342A
:102C400000340034003407340734003407340734C8
:102C50000034003414347F347F3414347F347F34B0
:102C60001434003424342E346B346B343A3412343C
:102C70000034003446346634303418340C3466344E
:102C80006234003430347A344F345D3437347A343B
:102C9000483400340434073403340034003400343E
:102CA0000034003400341C343E3463344134003486
:102CB000003400340034413463343E341C34003476
:102CC0000034003408342A343E341C341C343E347E
:102CD0002A340834083408343E343E340834083486
:102CE0000034003400348034E03460340034003484
:102CF0000034003408340834083408340834083404
:102D00000034003400340034603460340034003463
:102D1000003400346034303418340C340634033456
:102D2000013400343E347F34713459344D347F34AF
:102D30003E340034403442347F347F3440344034B5
:102D40000034003462347334593449346F34663497
:102D50000034003422346334493449347F34363407
:102D60000034003418341C34163453347F347F3428
:102D70005034003427346734453445347D34393495
:102D8000003400343C347E344B34493479343034AC
:102D90000034003403340334713479340F3407348D
:102DA0000034003436347F34493449347F34363487
:102DB0000034003406344F34493469343F341E340F
:102DC0000034003400340034663466340034003497
:102DD0000034003400348034E63466340034003487
:102DE0000034003408341C34363463344134003445
:102DF000003400342434243424342434243424345B
:102E00000034003400344134633436341C34083424
:102E10000034003402340334513459340F3406344E
:102E2000003400343E347F3441345D345D341F342B
:102E30001E3400347C347E34133413347E347C34BA
:102E40000034003441347F347F34493449347F3492
:102E5000363400341C343E346334413441346334FA
:102E60002234003441347F347F34413463343E347F
:102E70001C34003441347F347F3449345D34413470
:102E80006334003441347F347F3449341D34013499
:102E9000033400341C343E346334413451347334CD
:102EA000723400347F347F34083408347F347F3404
:102EB00000340034003441347F347F3441340034F2
:102EC0000034003430347034403441347F343F3483
:102ED0000134003441347F347F3408341C34773477
:102EE0006334003441347F347F34413440346034BF
:102EF000703400347F347F340E341C340E347F340D
:102F00007F3400347F347F3406340C3418347F34FB
:102F10007F3400341C343E346334413463343E34F3
:102F20001C34003441347F347F34493409340F3445
:102F3000063400341E343F34213471347F345E341F
:102F40000034003441347F347F34093419347F3401
:102F50006634003426346F344D345934733432348B
:102F600000340034033441347F347F34413403343B
:102F7000003400347F347F34403440347F347F3435
:102F8000003400341F343F34603460343F341F3425
:102F9000003400347F347F343034183430347F349C
:102FA0007F340034433467343C3418343C34673461
:102FB0004334003407344F34783478344F34073492
:102FC0000034003447346334713459344D34673439
:102FD0007334003400347F347F344134413400345E
:102FE000003400340134033406340C3418343034E3
:102FF000603400340034413441347F347F34003451
:103000000034003408340C340634033406340C34F1
:103010000834003480348034803480348034803408
:1030200080348034003400340334073404340034F2
:103030000034003420347434543454343C34783400
:103040004034003441347F343F3448344834783499
:103050003034003438347C34443444346C342834D0
:103060000034003430347834483449343F347F34C9
:103070004034003438347C34543454345C341834A0
:103080000034003448347E347F344934033402340D
:10309000003400349834BC34A434A434F8347C3480
:1030A0000434003441347F347F34083404347C34B5
:1030B00078340034003444347D347D34403400347A
:1030C000003400346034E03480348034FD347D34A6
:1030D0000034003441347F347F34103438346C345D
:1030E00044340034003441347F347F34403400347D
:1030F000003400347C347C34183438341C347C3450
:10310000783400347C347C34043404347C347834B3
:103110000034003438347C34443444347C3438341F
:10312000003400348434FC34F834A43424343C3483
:103130001834003418343C342434A434F834FC34C7
:103140008434003444347C3478344C3404341C34B7
:103150001834003448345C345434543474342434D3
:1031600000340034003404343E347F344434243496
:10317000003400343C347C34403440343C347C34BF
:10318000403400341C343C34603460343C341C34EF
:10319000003400343C347C347034383470347C3443
:1031A0003C34003444346C343834103438346C34A7
:1031B000443400349C34BC34A034A034FC347C341B
:1031C000003400344C34643474345C344C3464342F
:1031D00000340034083408343E3477344134413408
:1031E0000034003400340034003477347734003451
:1031F000003400344134413477343E3408340834E8
:103200000034003402340334013403340234033410
:1032100001340034703478344C3446344C347834CF
:10322000703400340E349F349134B134FB344A345A
:10323000003400343A347A34403440347A347A34C6
:103240004034003438347C34543455345D341934CB
:1032500000340034023423347534553455347D340D
:103260007B34423421347534543454347D347934CD
:103270004034003421347534553454347C3478343B
:103280004034003420347434573457347C34783428
:103290004034003418343C34A434A434E43440348E
:1032A0000034003402343B347D34553455345D34BD
:1032B0001B34023439347D34543454345D3419347D
:1032C0000034003439347D34553454345C3418348B
:1032D00000340034013445347C347C3441340134CE
:1032E000003400340234033445347D347D344334B7
:1032F00002340034013445347D347C3440340034AD
:103300000034003479347D341634123416347D346C
:1033100079340034703478342B342B34783470346E
:103320000034003444347C347C34553455344534D2
:103330000034003420347434543454347C347C34B9
:10334000543454347C347E340B3409347F347F3429
:103350004934003432347B34493449347B34323498
:103360000034003432347A34483448347A343234D5
:103370000034003432347A344A34483478343034C7
:10338000003400343A347B34413441347B347A3471
:10339000403400343A347A34423440347834783427
:1033A000403400349A34BA34A034A034FA347A3435
:1033B00000340034013419343C34663466343C340F
:1033C000193401343D347D34403440347D343D344F
:1033D0000034003418343C342434E734E7342434E3
:1033E0002434003468347E347F34493443346634C2
:1033F000203400342B342F34FC34FC342F342B3461
:1034000000340034FF34FF34093409342F34F634E7
:10341000F834A0344034C0348834FE347F34093466
:103420000334023420347434543455347D347934C4
:1034300040340034003444347D347D34413400342D
:10344000003400343034783448344A347A343234F6
:103450000034003438347834403442347A347A34A6
:10346000403400347A347A340A340A347A3470348A
:10347000003400347D347D34193431347D347D346E
:1034800000340034003426342F3429342F342F34C0
:1034900028340034003426342F3429342F34263491
:1034A00000340034303478344D34453460342034C2
:1034B00000340034383438340834083408340834DC
:1034C00000340034083408340834083438343834CC
:1034D000003400344F346F3430341834CC34EE348C
:1034E000BB3491344F346F34303418346C34763408
:1034F000FB34F9340034003400347B347B34003442
:103500000034003408341C343634223408341C347B
:1035100036342234223436341C34083422343634DF
:103520001C340834AA34003455340034AA3400342E
:1035300055340034AA345534AA345534AA34553499
:10354000AA345534DD34FF34AA347734DD34AA3458
:10355000FF347734003400340034FF34FF34003457
:1035600000340034103410341034FF34FF3400348D
:1035700000340034143414341434FF34FF34003471
:103580000034003410341034FF34FF340034FF347E
:10359000FF34003410341034F034F0341034F0348C
:1035A000F0340034143414341434FC34FC34003457
:1035B0000034003414341434F734F7340034FF3456
:1035C000FF34003400340034FF34FF340034FF345F
:1035D000FF34003414341434F434F4340434FC343C
:1035E000FC340034143414341734173410341F34BA
:1035F0001F340034103410341F341F3410341F347F
:103600001F3400341434143414341F341F34003481
:1036100000340034103410341034F034F0340034FA
:10362000003400340034003400341F341F341034AC
:10363000103410341034103410341F341F3410344C
:1036400010341034103410341034F034F03410349A
:1036500010341034003400340034FF34FF3410349C
:10366000103410341034103410341034103410343A
:1036700010341034103410341034FF34FF3410344C
:1036800010341034003400340034FF34FF34143468
:103690001434143400340034FF34FF340034FF3465
:1036A000FF341034003400341F341F341034173406
:1036B0001734143400340034FC34FC340434F4344F
:1036C000F4341434143414341734173410341734D5
:1036D0001734143414341434F434F4340434F43417
:1036E000F434143400340034FF34FF340034F7343D
:1036F000F7341434143414341434143414341434A7
:103700001434143414341434F734F7340034F734E4
:10371000F734143414341434143417341734143480
:1037200014341434103410341F341F3410341F3444
:103730001F341034143414341434F434F434143482
:103740001434143410341034F034F0341034F034B1
:10375000F0341034003400341F341F3410341F345C
:103760001F3410340034003400341F341F34143438
:1037700014341434003400340034FC34FC34143475
:103780001434143400340034F034F0341034F03491
:10379000F034103410341034FF34FF341034FF345C
:1037A000FF341034143414341434FF34FF3414341C
:1037B000143414341034103410341F341F340034D3
:1037C00000340034003400340034F034F034103469
:1037D00010341034FF34FF34FF34FF34FF34FF342F
:1037E000FF34FF34F034F034F034F034F034F0349B
:1037F000F034F034FF34FF34FF34FF34003400344D
:10380000003400340034003400340034FF34FF341A
:10381000FF34FF340F340F340F340F340F340F34B0
:103820000F340F3438347C3444346C3438346C34D2
:1038300044340034FC34FE342A342A343E34143404
:10384000003400347E347E340234023406340634CC
:103850000034003402347E347E3402347E347E34CC
:1038600002340034633477345D3449346334633470
:103870000034003438347C3444347C343C340434F4
:10388000043400348034FE347E34203420343E341A
:103890001E3400340434063402347E347C3406345E
:1038A000023400349934BD34E734E734BD349934FC
:1038B000003400341C343E346B3449346B343E34B1
:1038C0001C3400344C347E347334013473347E340D
:1038D0004C340034303478344A344F347D34393405
:1038E0000034003418343C3424343C343C34243424
:1038F0003C3418349834FC3464343C343E3427343B
:103900003D3418341C343E346B344934493400346B
:10391000003400347E347F34013401347F347E340B
:10392000003400342A342A342A342A342A342A34FB
:1039300000340034443444345F345F344434443419
:1039400000340034403451345B344E344434403419
:1039500000340034403444344E345B345134403409
:1039600000340034003400340034FE34FF340134B9
:10397000073406346034E0348034FF347F3400345C
:1039800000340034083408346B346B3408340834A1
:10399000003400342434363412343634243436348B
:1039A00012340034003406340F3409340F34063432
:1039B0000034003400340034003418341834003437
:1039C0000034003400340034003410341034003437
:1039D00000340034103430347034C034FF34FF34D9
:1039E0000134013400341F341F3401341F341E34B9
:1039F00000340034003419341D34173412340034C8
:103A000000340034003400343C343C343C343C3426
:103A10000034003400340034003400340034003406
:103A200000340034003400340034003400340034F6
:103A300000345F3400340034003407340034073479
:103A4000003414347F3414347F34143424342A344E
:103A50007F342A3412342334133408346434623407
:103A60003634493455342234503400340534033468
:103A70000034003400341C34223441340034003427
:103A8000413422341C34003408342A341C342A349F
:103A90000834083408343E340834083400345034D0
:103AA000303400340034083408340834083408341E
:103AB00000343034303400340034203410340834CE
:103AC000043402343E345134493445343E340034F5
:103AD00042347F3440340034423461345134493408
:103AE00046342134413445344B34313418341434A1
:103AF00012347F3410342734453445344534393456
:103B00003C344A3449344934303401347134093452
:103B100005340334363449344934493436340634B0
:103B20004934493429341E340034363436340034B0
:103B30000034003456343634003400340034083451
:103B400014342234413414341434143414341434FA
:103B500041342234143408340034023401345134F2
:103B60000934063432344934793441343E347E34B5
:103B70001134113411347E347F344934493449349A
:103B800036343E3441344134413422347F3441347C
:103B9000413422341C347F3449344934493441346B
:103BA0007F3409340934013401343E344134413422
:103BB000513432347F340834083408347F340034CC
:103BC00041347F34413400342034403441343F3474
:103BD00001347F3408341434223441347F34403487
:103BE0004034403440347F340234043402347F346F
:103BF0007F340434083410347F343E34413441344B
:103C000041343E347F3409340934093406343E34B7
:103C10004134513421345E347F3409341934293429
:103C2000463446344934493449343134013401345A
:103C30007F34013401343F344034403440343F3425
:103C40001F342034403420341F347F34203418345F
:103C500020347F346334143408341434633403342C
:103C600004347834043403346134513449344534F1
:103C70004334003400347F3441344134023404345A
:103C8000083410342034413441347F34003400345B
:103C900004340234013402340434403440344034B7
:103CA00040344034003401340234043400342034CD
:103CB00054345434543478347F34483444344434A1
:103CC000383438344434443444342034383444347C
:103CD000443448347F3438345434543454341834ED
:103CE00008347E3409340134023408341434543432
:103CF00054343C347F34083404340434783400348D
:103D000044347D34403400342034403444343D3431
:103D1000003400347F3410342834443400344134C7
:103D20007F34403400347C34043418340434783420
:103D30007C3408340434043478343834443444341F
:103D4000443438347C34143414341434083408348F
:103D50001434143418347C347C340834043404347B
:103D600008344834543454345434203404343F3404
:103D70004434403420343C344034403420347C34A7
:103D80001C342034403420341C343C34403430342F
:103D900040343C34443428341034283444340C3413
:103DA0005034503450343C344434643454344C34FF
:103DB00044340034083436344134003400340034A0
:103DC0007F34003400340034413436340834003455
:103DD000083408342A341C34083408341C342A3497
:103DE00008340834203420342034473452344134E9
:103DF000503448344934433441344C3420344C3406
:103E000043344434203420340034003420344834E3
:103E1000503453342034203445344D344234453406
:0C3E20004434443445344434203400342D
:02400E000A2F77
:00000001FF
