:020000040000FA
:06000000D4EF00F0120035
:020006001200E6
:060008005DEF00F01200A4
:02000E000100EF
:0C001000C40100006A00000002000000B3
:04001C000E0EF66E60
:10002000000EF76E000EF86E00010900F550656FC6
:100030000900F550666F03E1656701D03DD0090006
:10004000F550606F0900F550616F0900F550626F5F
:1000500009000900F550E96E0900F550EA6E090043
:1000600009000900F550636F0900F550646F09003D
:100070000900F6CF67F0F7CF68F0F8CF69F060C0FD
:10008000F6FF61C0F7FF62C0F8FF0001635302E1B1
:10009000645307E00900F550EE6E6307F8E2640769
:1000A000F9D767C0F6FF68C0F7FF69C0F8FF000125
:0A00B0006507000E665BBFD7120063
:0600BA00DACFE4FFE2CF03
:1000C000DAFFE652D9CFE6FFE1CFD9FFE652030EC1
:1000D000DF6E9EA010D00001010E6A6F6B2BDF5007
:1000E000D8806B5502E3818401D081940B0E6B5D47
:1000F00001E36B6B00D0E552E552E7CFD9FFE55243
:10010000E5CFDAFF11009F80D08ECD80CD8ECD98C7
:10011000CD9ACD86CD921200936A816AF4DFF00EFB
:10012000CE6ECF68F28EF28C9E909D8000016A5157
:1001300006E06A6BF00ECE6ECF689E909D80F6D77B
:020140001200AB
:0E014200D9CFE6FFE1CFD9FFE652D950FD0F2D
:10015000E96EFF0EDA20EA6E000ED880EE54000E33
:10016000ED540DE2FA0EDF6EDF50DF06000901E00C
:10017000FBD7FD0EDB06FE0E01E2DB06E7D7E552FC
:08018000E552E7CFD9FF1200A0
:08018800000EF36E00EE00F022
:10019000060E01D81200EA6002D0EE6AFCD7F350D6
:0801A000E9601200EE6AFCD7D1
:0801A80015EE00F025EE00F059
:1001B000F86A019C0EEC00F003EC00F08CEC00F00F
:0401C000FBD7120057
:0201C400000039
:00000001FF
