:100000000A128A111F2F00308A000408840A82070E
:10001000003449344E3449345434493441344C3436
:1000200049345A3449344E3447342E342E342E3425
:100030002E3400344E3455344D3442344534523429
:1000400053342034463452344F344D340034303439
:1000500030343034203454344F342034393439344B
:0400600039340034FB
:100C9E003034003430340034303400340A128A11C7
:100CAE0047270A128A110800F6008312031308114F
:100CBE0076080A128A1172270A128A110800F600A3
:100CCE0083120313081576080A128A1172270A1264
:100CDE008A1108008312031388150A30F0000030C1
:100CEE00F1000A128A1194260A128A118312031332
:100CFE008811080033300A128A115B260A128A11F3
:100D0E0033300A128A115B260A128A1132300A1205
:100D1E008A115B260A128A110800AB2EFF30F200F0
:100D2E007208F3009B2E9B2E0130F3027308FF3ADC
:100D3E00031DA22EA32E9B2EA42E0130F0020030F6
:100D4E00031CF103F102AB2E71087004031DB02ECB
:100D5E00B12E952EB22E0800F800C62E780884000B
:100D6E000A128A1103200A128A110A128A116626A1
:100D7E000A128A110130F7007708F807C62E780894
:100D8E0084000A128A1103200A128A110038031DE8
:100D9E00D12ED22EB52ED32E080001300A128A1172
:100DAE005B260A128A1182300A128A115B260A12F7
:100DBE008A1112300A128A11B3260A128A11C03011
:100DCE000A128A115B260A128A11C2300A128A117D
:100DDE005B260A128A111F300A128A11B3260A12D2
:100DEE008A1108000A128A1155260A128A110A124D
:100DFE008A11D4260A128A11D030F0000730F10081
:100E0E000A128A1194260A128A110D2F0A128A11B9
:100E1E009E270A128A113230F0000030F1000A12B9
:100E2E008A1194260A128A110D2F0A128A1100288D
:100E3E000A128A114F260A128A11A0000A128A116A
:100E4E0050260A128A11A1000A128A1151260A127C
:100E5E008A11F9000A128A1152260A128A11FA0010
:100E6E000A128A1153260A128A11FB000A128A11DB
:100E7E0054260A128A11FC0083010A128A11F92ED5
:100E8E00831603130808033988008312031388118D
:100E9E0008110F30F700770888050A128A1181268B
:100EAE000A128A1128300A128A115B260A128A1136
:100EBE000C300A128A115B260A128A1106300A12A7
:100ECE008A115B260A128A1101300A128A115B26D8
:100EDE000A128A110800F500F0307505F40083122D
:100EEE00031308080F39740488000A128A11712638
:100EFE000A128A117508F40004300310F40DFF3E37
:100F0E00031D842F8312031308080F3974048800FD
:100F1E000A128A1171260A128A110230F00000306C
:100F2E00F1000A128A1194260A128A110800013061
:100F3E000A128A115B260A128A11C0300A128A110D
:100F4E005B260A128A118312031320080A128A11D1
:100F5E0066260A128A117B080A128A1166260A125E
:100F6E008A1179080A128A1166260A128A113230FB
:100F7E00F0000030F1000A128A1194260A128A112A
:100F8E000130F9070318FA0A0030FA073A307906E9
:100F9E007A04031DD32FD42FFF2F3030F9000030E9
:100FAE00FA000130FB070318FC0A0030FC073A3048
:100FBE007B067C04031DE42FE52FFF2F3030FB0052
:100FCE000030FC00013083120313A0070318A10A9E
:100FDE000030A1073A3020062104031DF72FF82F09
:100FEE00FF2F3030A0000030A100FF2FFF2FFF2F6A
:020FFE000800E9
:02400E000A2F77
:00000001FF
