:0A000000A001A101A201A3019B2FA2
:100F3600831603138113860183120313860160301F
:100F4600A000EA30A100A201A3012308803AF00024
:100F560080307002031DB92F00302202031DB92F05
:100F660000302102031DB92F01302002031CD02FAF
:100F76000130F000F101F201F30183120313A00224
:100F86007108031C710FA1027208031C720FA202E2
:100F96007308031C730AA302A82FFF308600603073
:100FA600A000EA30A100A201A3012308803AF000C4
:100FB60080307002031DE92F00302202031DE92F45
:100FC60000302102031DE92F01302002031C9F2F50
:100FD6000130F000F101F201F30183120313A002C4
:100FE6007108031C710FA1027208031C720FA20282
:0A0FF6007308031C730AA302D82F2E
:02400E000A2F77
:00000001FF
