:020000040000FA
:0600000095EF03F0120071
:020006001200E6
:06000800D4EF01F012002C
:02000E000100EF
:0C001000460700006000000042000000F5
:04001C000F9E08D05B
:100020000F9E07AE05D0066C071EE86A07220F8EEA
:1000300007C001F006C000F0136A126A8E0E026E4D
:10004000036A6AEF01F00D7E0F6AA6EC01F0BEECC8
:1000500001F00FB64EEF01F00FA20AD00FAA03D0A5
:100060000FBE4EEF01F00FA45AEF01F057EF01F071
:100070000FAA05D00FAC5AEF01F057EF01F00FA017
:100080000AD00FA808D00FBE04D00FA402D063EF8F
:1000900001F067EF01F0126A036A0D50085C116EFF
:1000A00010E305C013F006C000F007C001F008C05F
:1000B00010F00AC005F00BC006F00CC007F00F3AB4
:1000C00009D00AC013F00BC000F00CC001F00DC045
:1000D00010F0116C0F9E0FBC0F8E10C002F00FB00D
:1000E00096EF01F01A0E116096EF01F0026A086AAD
:1000F0000FA408D0056C061E071E081EE86A06221B
:10010000072208220FAC08D0136C001E011E021E2D
:10011000E86A002201220222046A115207E0083430
:100120000732063205320432112EF9D70550132654
:1001300006500022075001220850022204C012F08B
:100140000F9E02AE0BD0126C131E001E011E021E6B
:10015000E86A13220022012202220F8E02A006D09A
:10016000D8800132003213321232102A10C002F04D
:100170006AEF01F00F6AA6EC01F0BEEC01F00FB6D9
:100180004EEF01F00FA205D00FB84EEF01F055EF82
:1001900001F00FAA05D00FB04EEF01F055EF01F0BE
:1001A0000FB002D00FA802D061EF01F0036A0D502A
:1001B0000824026EE86A03227E0E025EE86A035A91
:1001C000126A136A006A016A0C500702F4CF01F048
:1001D000F3CF00F00B500702F3501326F450002227
:1001E000000E01220C500602F3501326F450002298
:1001F000000E01220A500702F3501226F450132277
:10020000000E002201220B500602F3501226F45079
:100210001322000E002201220C500502F350122678
:10022000F4501322000E002201220A500602F4505C
:100230001226000E1322002201220B500502F45058
:100240001226000E1322002201226AEF01F00F6A2B
:10025000A6EC01F00FB631EF01F00FA20AD00FB4F7
:1002600003D07F0E076E19D0800E076E16D0076A76
:1002700014D00FB0FCD7870E0860F1D77E0E08644B
:10028000F6D7860E085C04E0D8900732082AF9D722
:100290000FA403D0076C07AEEAD712007F0E086EDA
:1002A000FF0E076E066E056E12007F0E0FBEFF0E6C
:1002B000086E02D07F0E086E800E076E066A056A11
:1002C000F3D70FAE04D0800E086E076AF7D7086A1E
:1002D000076AF4D70150001013101210F8E003BEA3
:1002E000F0D701BE0CD002500310EBE0D8901236CC
:1002F0001336003601360206D8A00306F2D70350A3
:10030000D4E10228D2E012AE11D07F0E121402E125
:1003100013A00CD0132AE86A0022012207E3D88038
:10032000013200321332022A0228BFE00250C9E033
:1003300013C005F000C006F00134076E0230086EED
:100340000732089E0FBE088E54EF01F007360836BC
:1003500002E30F840F7E06E10F80086A076A066ACF
:10036000056A1200082803E0D88007321200D890EE
:10037000073202E10F8212000F8612000C360D3692
:1003800002E30F8C0F7E06E10F880D6A0C6A0B6A80
:100390000A6A12000D2803E0D8800C321200D890AF
:0803A0000C32EAE10F8A1200A1
:0803A800DACFE4FFE2CFDAFF37
:1003B000E9CFE4FFEACFE4FFF6CFE4FFF7CFE4FFB5
:1003C000F3CFE4FFF4CFE4FFFACFE4FF00EE00F058
:1003D000140EE80403E3EECFE4FFFBD7E652F2A2EB
:1003E00058D00001622B000E6323120E6427000E0A
:1003F00065236451665D686F65516759696F6D0E5D
:10040000186EE70E196E7B0E1A6E3D0E1B6E68C0DD
:1004100006F069C007F010EC00F005C01CF006C043
:100420001DF007C01EF008C01FF01CC00AF01DC060
:100430000BF01EC00CF01FC00DF018C005F019C065
:1004400006F01AC007F01BC008F0BAEC00F005C0B7
:1004500014F006C015F007C016F008C017F01F0E04
:100460000A6EC50E0B6E750E0C6E430E0D6E14C02B
:1004700005F015C006F016C007F017C008F024EC10
:1004800000F027EC01F007C073F073C083FFF29215
:10049000F28800D0E55200EE13F0140EE80403E3F6
:1004A000E5CFEDFFFBD7E5CFFAFFE5CFF4FFE5CFD2
:1004B000F3FFE5CFF7FFE5CFF6FFE5CFEAFFE5CFA6
:1004C000E9FFE5CFDAFF11000A0EE66E2CEC03F02F
:1004D000E5520D0EE66E2CEC03F0E5526A0EE66E68
:1004E000000EE66E42EC03F0E552E5527F0EE66E3A
:1004F000000EE66E42EC03F0E552E5529EAAFED7EE
:1005000000017451EA6A750FE96E000EEA22AECF5F
:10051000EFFF742B7405EA6A750FE96E000EEA228C
:10052000EF504008EBE17405EA6A750FE96E000EC2
:10053000EA22200EEF6E0A0EE66E2CEC03F0E55276
:100540000D0EE66E2CEC03F0E552750EE66E000E15
:10055000E66E42EC03F0E552E552300E0001755FA5
:10056000765F775F0A0E7603F3CF20F0640E750393
:10057000F350202477259C6F9D6B9CC066F09DC036
:1005800067F01200F19EF28EF19CF292F288120056
:10059000956A836A9368D00E9416828625EC03F0E0
:0C05A00093DFF0DF82968284FFD7120008
:0405AC000E0EF66ECB
:1005B000000EF76E000EF86E00010900F550A76FEF
:1005C0000900F550A86F03E1A76701D03DD00900ED
:1005D000F550A26F0900F550A36F0900F550A46F04
:1005E00009000900F550E96E0900F550EA6E0900AE
:1005F00009000900F550A56F0900F550A66F090024
:100600000900F6CFA9F0F7CFAAF0F8CFABF0A2C05F
:10061000F6FFA3C0F7FFA4C0F8FF0001A55302E155
:10062000A65307E00900F550EE6EA507F8E2A6070D
:10063000F9D7A9C0F6FFAAC0F7FFABC0F8FF0001C9
:0A064000A707000EA85BBFD7120049
:06064A00400EAF6E900EA1
:10065000AB6E200EAC6E1200D9CFE6FFE1CFD9FF12
:100660009EB802D0FDD7FCD7FE0EDB50AD6EE55232
:10067000E7CFD9FF12009EBA02D0FDD7FCD7AE500B
:1006800000D01200D9CFE6FFE1CFD9FFFD0EDBCFBE
:10069000E9FFFE0EDBCFEAFFEF5010E0FD0EDBCFEF
:1006A000E9FFFE0EDBCFEAFFEF50E66ED5DFE55245
:1006B000FD0EDB2AFE0E01E3DB2AE8D7E552E7CF89
:0406C000D9FF12004C
:0C06C400D9CFE6FFE1CFD9FFE652D950B4
:1006D000FD0FE96EFF0EDA20EA6E000ED880EE54B0
:1006E000000EED540DE2FA0EDF6EDF50DF0600095A
:1006F00001E0FBD7FD0EDB06FE0E01E2DB06E7D7CD
:0A070000E552E552E7CFD9FF1200E1
:06070A00000EF36E00EE8C
:1007100000F0060E01D81200EA6002D0EE6AFCD7A3
:0A072000F350E9601200EE6AFCD706
:06072A0015EE00F025EEC3
:1007300000F0F86A0F9CD6EC02F003EC00F0C8EC75
:0607400002F0FBD71200DD
:0A07460000000000000000000000A9
:1007500053657269616C0A0D000000000000000022
:100760000000000000456E74657220616E676C6564
:10077000206173202D2074686574613140203A2017
:0807800000000000320000003F
:00000001FF
