:020000040000FA
:060000005DEF0BF01200A1
:0A0006000200FC16000000010000DB
:10001000C0000000FA160000CA0100000200000043
:100020008386320EE66EE66A14EC0BF0E552E5527A
:1000300083961200D9CFE6FFE1CFD9FF8394FE0E5D
:10004000DBCFE6FFBBD8E552E552E7CFD9FF120080
:10005000D9CFE6FFE1CFD9FF8384FE0EDBCFE6FFE9
:10006000ADD8E552E552E7CFD9FF1200D9CFE6FF70
:10007000E1CFD9FF160EE126D9CFE9FFDACFEAFFAB
:10008000490EEE6E4E0EEE6E490EEE6E540EEE6E94
:10009000490EEE6E410EEE6E4C0EEE6E490EEE6E99
:1000A0005A0EEE6E490EEE6E4E0EEE6E470EEE6E70
:1000B0002E0EEE6EEE6EEE6EEE6EEE6EEE6EEE6E80
:1000C000EE6EEE6A800EE66EB5DFE552D9CFE6FF42
:1000D000DACFE6FF2DD8E552E552C00EE66EAADF74
:1000E000E552150EDB6A140EF36E150EDBCFF4FF2E
:1000F000F350F45C0FE22E0EE66EAADFE552F40E2A
:10010000E66E010EE66E14EC0BF0E552E552150EAC
:10011000DB2AE9D7010EE66E8DDFE552160EE15CB3
:1001200002E2E16AE552E16EE552E7CFD9FF120043
:10013000D9CFE6FFE1CFD9FFFD0EDBCFE9FFFE0E01
:10014000DBCFEAFFEF5010E0FD0EDBCFE9FFFE0E44
:10015000DBCFEAFFEF50E66E7BDFE552FD0EDB2AD8
:10016000FE0E01E3DB2AE8D7E552E7CFD9FF120004
:10017000030E9514956E83968394030E831611D8FF
:10018000280EE66E57DFE5520C0EE66E53DFE552A1
:10019000060EE66E4FDFE552010EE66E4BDFE552CE
:1001A0001200330EE66E46DFE552330EE66E42DF96
:1001B000E552320EE66E3EDFE5521200D9CFE6FF81
:1001C000E1CFD9FFFE0EDB50F00B146E0F0E83143F
:1001D0001410836E25DFFE0EDB38F00B146E0F0E4D
:1001E00083141410836E1CDF320EE66EE66A14EC84
:1001F0000BF0E552E552E552E7CFD9FF1200D9CF17
:10020000E6FFE1CFD9FFFE0EDBCFE6FF13DFE552BD
:10021000640E146E14C00EF0FD0EDBCF09F06BEC13
:100220000BF0095005E1200EE66E12DFE5520ED00C
:10023000640E146E14C00EF0FD0EDBCF09F06BECF3
:100240000BF009503009E66E03DFE552640E156EBF
:1002500015C00EF0FD0EDBCF09F06BEC0BF005C006
:1002600014F00A0E166E16C00EF014C009F06BECF6
:100270000BF0095029E1640E146E14C00EF0FD0E4F
:10028000DBCF09F06BEC0BF0095005E1200EE66EB8
:10029000DFDEE55218D0640E156E15C00EF0FD0EAF
:1002A000DBCF09F06BEC0BF005C014F00A0E166EF4
:1002B00016C00EF014C009F06BEC0BF009503009B9
:1002C000E66EC6DEE55218D0640E156E15C00EF04F
:1002D000FD0EDBCF09F06BEC0BF005C014F00A0E3D
:1002E000166E16C00EF014C009F06BEC0BF009503E
:1002F0003009E66EADDEE5520A0E146E14C00EF043
:10030000FD0EDBCF09F06BEC0BF005503009E66E0B
:100310009FDEE552E552E7CFD9FF1200D9CFE6FFC5
:10032000E1CFD9FF0B0EE126060EDB6AFB0EDBCF19
:1003300014F0FC0EDBCF15F0FD0EDBCF16F0FE0E39
:10034000DBCF17F00C6A0D6A0E6A0F6A14C007F053
:1003500015C008F016C009F017C00AF017EC09F034
:10036000010A2CE12D0EE66E73DEE552FB0EDBCFAB
:1003700014F0FC0EDBCF15F0FD0EDBCF16F0FE0EF9
:10038000DBCF17F00C6A0D6A800E0E6EBF0E0F6E7B
:1003900014C007F015C008F016C009F017C00AF025
:1003A00028EC08F0FB0E07C0DBFFFC0E08C0DBFFEB
:1003B000FD0E09C0DBFFFE0E0AC0DBFFFB0EDBCF2C
:1003C00007F0FC0EDBCF08F0FD0EDBCF09F0FE0ED0
:1003D000DBCF0AF0E8EC08F0070E08C0DBFF080EE0
:1003E00009C0DBFF070EDBCF08F0080EDBCF09F0FA
:1003F000090E08C0DBFF0A0E09C0DBFF070EDBCFCA
:10040000E6FF080EDBCFE6FF30D9E552E5522E0EAF
:10041000E66E1EDEE552FB0EDBCF1CF0FC0EDBCFE2
:100420001DF0FD0EDBCF1EF0FE0EDBCF1FF0070E22
:10043000DBCF08F0080EDBCF09F07EEC07F007C039
:1004400020F008C021F009C022F00AC023F020C02B
:100450000CF021C00DF022C00EF023C00FF01CC024
:1004600007F01DC008F01EC009F01FC00AF091EC93
:1004700007F007C018F008C019F009C01AF00AC048
:100480001BF00C6A0D6A800E0E6E3F0E0F6E18C0C8
:1004900007F019C008F01AC009F01BC00AF092EC6E
:1004A00007F007C014F008C015F009C016F00AC024
:1004B00017F00C6A0D6A7A0E0E6E440E0F6E14C0A1
:1004C00007F015C008F016C009F017C00AF028ECB4
:1004D00008F0FB0E07C0DBFFFC0E08C0DBFFFD0EC3
:1004E00009C0DBFFFE0E0AC0DBFFFB0EDBCF07F00F
:1004F000FC0EDBCF08F0FD0EDBCF09F0FE0EDBCFEC
:100500000AF0E8EC08F0070E08C0DBFF080E09C08F
:10051000DBFF070EDBCF14F0080EDBCF15F0153430
:1005200004E214500008000E15543BE2070EDBCF26
:1005300016F0080EDBCF17F00A0E0D6E0E6A16C00D
:1005400008F017C009F095EC08F004C016F005C0DB
:1005500017F0300E1626000E1722D9CF14F0DACF7E
:1005600015F0060EDBCFF3FFDB2AF3500F01142446
:10057000E96E000E1520EA6E16C0EFFFD950070F86
:10058000E96EDACFEAFF0A0E0D6E0E6AEECF08F0C2
:10059000EDCF09F095EC08F008C0EEFF09C0EDFFC3
:1005A000B8D7060EDB06060EDBCFF3FFDB06F350F3
:1005B000010811E2D9CF14F0DACF15F0060EDB50A6
:1005C0000F011424E96E000E1520EA6EEF50E66E5E
:1005D0003FDDE552E8D7090EDBCF14F00A0EDBCF82
:1005E00015F0D890155004E60A0E145C000E15584C
:1005F0000BE2CC0EE66E1EDDE552F40EE66E160E34
:10060000E66E96DDE552E552090EDBCF14F00A0ED8
:10061000DBCF15F0D890155004E60A0E145C000EDE
:10062000155819E3090EDBCF16F00A0EDBCF17F0D1
:10063000D890175004E6640E165C000E17580BE2B3
:10064000CD0EE66EF7DCE552F20EE66E160EE66EA5
:100650006FDDE552E5520B0EE15C02E2E16AE55224
:10066000E16EE552E7CFD9FF1200D9CFE6FFE1CF27
:10067000D9FF070EE126060EDB6AFD0EDBCF14F074
:10068000FE0EDBCF15F00001800E151414E02D0EC8
:10069000E66EDEDCE55208680968FD0EDBCF0DF082
:1006A000FE0EDBCF0EF0BBEC08F0FD0E06C0DBFF4C
:1006B000FE0E07C0DBFFD950FD0FE96EFF0EDA20FA
:1006C000EA6EEE50ED1004E1300EE66EC1DCE5524C
:1006D000FD0EDBCF14F0FE0EDBCF15F0153404E277
:1006E00014500008000E15543CE2FD0EDBCF16F04E
:1006F000FE0EDBCF17F00A0E0D6E0E6A16C008F064
:1007000017C009F095EC08F004C016F005C017F00A
:10071000300E1612000E1712D9CF14F0DACF15F0E2
:10072000060EDBCFF3FFDB2AF3500F011424E96E32
:10073000000E1520EA6E16C0EFFFD950FD0FE96ECE
:10074000FF0EDA20EA6E0A0E0D6E0E6AEECF08F08A
:10075000EDCF09F095EC08F008C0EEFF09C0EDFF01
:10076000B7D7060EDBCFF3FFDB06F350000811E22C
:10077000D9CF14F0DACF15F0060EDB500F01142498
:10078000E96E000E1520EA6EEF50E66E61DCE55270
:10079000E8D7070EE15C02E2E16AE552E16EE5525C
:0607A000E7CFD9FF1200B3
:0A07A600D9CFE6FFE1CFD9FF110E15
:1007B000E126020EDB6A600EF36E030EF3CFDBFF61
:1007C000EA0EF36E040EF3CFDBFF050EDB6A060EB6
:1007D000DB6A010EE66E1AEC00F0E552280EE66EBA
:1007E000010EE66E98EC00F0E552E552D00EE66E92
:1007F000070EE66E14EC0BF0E552E552010EDB6AD3
:10080000050EF36E010EDBCFF4FFF350F45C0FE244
:10081000010EDB50EA6A000FE96E010EEA22EF508A
:10082000E66EDEEC0AF0E552010EDB2AE9D7AB8872
:10083000D950030FE96EDACFEAFFD880000EEE54EC
:10084000000EEE54000EEE54000EEE5414E29E50D4
:10085000200B11E1DF68DF50DF06000901E0FBD764
:10086000D950030FE96EDACFEAFFEE06000EEE5A1A
:10087000EE5AEE5ADDD7D950070F146EDACF15F0C5
:10088000020EDB500F011424E96E000E1520EA6EF3
:10089000AECFEFFF020EDB2AD950070F146EDACF6E
:1008A00015F0020EDB041424E96E000E1520EA6E2A
:1008B000EF504B0811E0030EDBCF16F0040EDBCF38
:1008C00017F0050EDBCF18F0060EDBCF19F016502F
:1008D000171018101910ACE1030EDBCF14F0040E42
:1008E000DBCF15F0050EDBCF16F0060EDBCF17F0D1
:1008F000145015101610171002E1010ECCD0010E85
:10090000E66E1AEC00F0E552300EE66E010EE66E71
:1009100098EC00F0E552E552D00EE66E070EE66E5A
:1009200014EC0BF0E552E552010EDB6A030EF36E98
:10093000010EDBCFF4FFF350F45C0FE2010EDB504D
:10094000EA6A050FE96E010EEA22EF50E66EDEEC70
:100950000AF0E552010EDB2AE9D7AB98AB88D950F3
:10096000030FE96EDACFEAFFD880000EEE54000ED6
:10097000EE54000EEE54000EEE5414E29E50200B86
:1009800011E1DF68DF50DF06000901E0FBD7D95035
:10099000030FE96EDACFEAFFEE06000EEE5AEE5ACA
:1009A000EE5ADDD7D950070F146EDACF15F0020ECC
:1009B000DB500F011424E96E000E1520EA6EAECF55
:1009C000EFFF020EDB2AD950070F146EDACF15F0B5
:1009D000020EDB041424E96E000E1520EA6EEF50BF
:1009E0004B0811E0030EDBCF16F0040EDBCF17F03F
:1009F000050EDBCF18F0060EDBCF19F016501710DE
:100A000018101910ACE1030EDBCF14F0040EDBCF8D
:100A100015F0050EDBCF16F0060EDBCF17F01450E5
:100A200015101610171003E1010E35D02AD0D95039
:100A3000070F146EDACF15F0020EDB041424E96EF2
:100A4000000E1520EA6EEF504B0813E1390EE66EEA
:100A5000010EE66E98EC00F0E552E552D00EE66E1F
:100A6000070EE66E14EC0BF0E552E552000E13D0C3
:100A700008D03F0EE66E010EE66E98EC00F0E552EF
:100A8000E552E80EE66E030EE66E14EC0BF0E5524E
:100A9000E552010E00D0146E110EE15C02E2E16A33
:100AA000E552E16E1450E552E7CFD9FF1200D9CFDD
:100AB000E6FFE1CFD9FF150EE126120EDB6A100E1C
:100AC000F36E130EF3CFDBFF270EF36E140EF3CF8E
:100AD000DBFF110EDB6A0A0EF36E110EDBCFF4FFA3
:100AE000F350F45C0FE2110EDB50EA6A080FE96E76
:100AF000010EEA22EF50E66EDEEC0AF0E552110E2E
:100B0000DB2AE9D7AB98AB88130EDBCF14F0140EB9
:100B1000DBCF15F0153404E214500008000E155414
:100B200013E29E50200B10E1100EDB68100EDBCF9D
:100B3000F3FFDB06F350000901E0F8D7130EDB06E4
:100B4000140E01E2DB06E0D7D9CF14F0DACF15F0AE
:100B5000120EDB500F011424E96E000E1520EA6E10
:100B6000AECFEFFF120EDB2AD9CF14F0DACF15F09B
:100B7000DB041424E96E000E1520EA6EEF504B08DA
:100B800008E0D950130FE96EDACFEAFFEE50ED100E
:100B9000BBE1010EE66E1AEC00F0E552430EE66E84
:100BA000010EE66E98EC00F0E552E552B80EE66EE6
:100BB0000B0EE66E14EC0BF0E552E552130EDBCF94
:100BC00014F0140EDBCF15F0153404E214500008B5
:100BD000000E155413E34C0EE66E010EE66E98EC13
:100BE00000F0E552E552B80EE66E0B0EE66E14EC20
:100BF0000BF0E552E552010E33D032D0D9CF14F0CC
:100C0000DACF15F0120EDB040F011424E96E000E8A
:100C10001520EA6EEF504B0812E1D9CF16F0DACF6B
:100C200017F0120EDB50FE0F1624E96E000E17208F
:100C3000EA6EEF504F0803E1000E12D011D0540EAF
:100C4000E66E010EE66E98EC00F0E552E552100EED
:100C5000E66E270EE66E14EC0BF0E552E552FFD778
:100C6000146E150EE15C02E2E16AE552E16E145089
:100C7000E552E7CFD9FF1200D9CFE6FFE1CFD9FF88
:100C8000280EE126020EDB6AD00EF36E030EF3CFC0
:100C9000DBFF070EF36E040EF3CFDBFF010EDB6A02
:100CA000160EF36E010EDBCFF4FFF350F45C0FE28F
:100CB000010EDB50EA6A120FE96E010EEA22EF50D4
:100CC000E66EDEEC0AF0E552010EDB2AE9D7AB98BE
:100CD000AB88010EDB6AEDEC0AF0E66ED950050F29
:100CE000146EDACF15F0010EDB500F011424E96EFB
:100CF000000E1520EA6EE552E750EF6E010EDB2A7A
:100D0000D950050F146EDACF15F0010EDB04142450
:100D1000E96E000E1520EA6EEF503E08DCE1010E90
:100D2000E66E1AEC00F0E552DE52040EDD6E130E94
:100D3000F36E010EDBCFF4FFF350F45C15E2D950F3
:100D4000050F146EDACF15F0010EDB500F011424DD
:100D5000E96E000E1520EA6EEF50E66E28EC00F00A
:100D6000E552010EDB2AE3D75F0EE66E010EE66E5A
:100D7000F4EC0AF0E552E5521A0EE66EDEEC0AF0EB
:100D8000E552010EE66E1AEC00F0E5525A0EE66EE0
:100D9000010EE66E98EC00F0E552E552000E146E7E
:100DA000280EE15C03E200D0E16AE552E16E1450E6
:100DB000E552E7CFD9FF1200D9CFE6FFE1CFD9FF47
:100DC000280EE126020EDB6AD00EF36E030EF3CF7F
:100DD000DBFF070EF36E040EF3CFDBFF010EDB6AC1
:100DE000160EF36E010EDBCFF4FFF350F45C0FE24E
:100DF000010EDB50EA6A120FE96E010EEA22EF5093
:100E0000E66EDEEC0AF0E552010EDB2AE9D7AB987C
:100E1000AB88010EDB6AEDEC0AF0E66ED950050FE7
:100E2000146EDACF15F0010EDB500F011424E96EB9
:100E3000000E1520EA6EE552E750EF6E010EDB2A38
:100E4000D950050F146EDACF15F0010EDB0414240F
:100E5000E96E000E1520EA6EEF503E08DCE1010E4F
:100E6000E66E1AEC00F0E552DE52040EDD6E130E53
:100E7000F36E010EDBCFF4FFF350F45C15E2D950B2
:100E8000050F146EDACF15F0010EDB500F0114249C
:100E9000E96E000E1520EA6EEF50E66E28EC00F0C9
:100EA000E552010EDB2AE3D7930EE66E010EE66EE5
:100EB000F4EC0AF0E552E5521A0EE66EDEEC0AF0AA
:100EC000E552010EE66E1AEC00F0E5525A0EE66E9F
:100ED000010EE66E98EC00F0E552E552000E146E3D
:100EE000280EE15C03E200D0E16AE552E16E1450A5
:080EF000E552E7CFD9FF120023
:080EF800019E08D0019E09AE25
:100F000005D0086C091EE86A0922018E09C003F0A9
:100F100008C002F0136A126A8E0E046E056A91EF21
:100F200009F00F7E016ACDEC09F0E5EC09F001B69D
:100F300075EF09F001A20AD001AA03D001BE75EF36
:100F400009F001A481EF09F07EEF09F001AA05D0B4
:100F500001AC81EF09F07EEF09F001A00AD001A8F1
:100F600008D001BE04D001A402D08AEF09F08EEFB0
:100F700009F0126A056A0F500A5C116E10E307C08F
:100F800013F008C002F009C003F00AC010F00CC052
:100F900007F00DC008F00EC009F0013A09D00CC0EE
:100FA00013F00DC002F00EC003F00FC010F0116C72
:100FB000019E01BC018E10C004F001B0BDEF09F02C
:100FC0001A0E1160BDEF09F0046A0A6A01A408D084
:100FD000076C081E091E0A1EE86A082209220A2256
:100FE00001AC08D0136C021E031E041EE86A022224
:100FF00003220422066A115207E00A340932083239
:1010000007320632112EF9D7075013260850022254
:10101000095003220A50042206C012F0019E04AEB9
:101020000BD0126C131E021E031E041EE86A13224C
:10103000022203220422018E04A006D0D8800332AB
:10104000023213321232102A10C004F091EF09F06C
:10105000016ACDEC09F0E5EC09F001B675EF09F095
:1010600001A205D001B875EF09F07CEF09F001AAE3
:1010700005D001B075EF09F07CEF09F001B002D0A6
:1010800001A802D088EF09F0056A0F500A24046E07
:10109000E86A05227E0E045EE86A055A126A136A3F
:1010A000026A036A0E500902F4CF03F0F3CF02F094
:1010B0000D500902F3501326F4500222000E0322B1
:1010C0000E500802F3501326F4500222000E0322A1
:1010D0000C500902F3501226F4501322000E022283
:1010E00003220D500802F3501226F4501322000E72
:1010F000022203220E500702F3501226F45013224C
:10110000000E022203220C500802F4501226000E98
:101110001322022203220D500702F4501226000E61
:1011200013220222032291EF09F0006A0EAE9EEF15
:1011300008F00D6C0E1EE86A0E22001E09AEA6EF26
:1011400008F0086C091EE86A0922001E37EC0BF053
:1011500009BEB6EF08F000AE000C086C091EE86A84
:101160000922046C051EE86A0522000C00BEADEFE2
:1011700008F00188FF0C09C013F008C012F00850F5
:101180000D02F4CF07F0F3CF06F009500E02F4CFB2
:1011900009F0F3CF08F00D02F3500726F4500822AF
:1011A000E86A092212500E02F3500726F450082272
:1011B000E86A09220EAEE1EF08F01250085E135003
:1011C000095A13AE000C0D50085E0E50095A000C5F
:1011D000016ACDEC09F001B6F2EF08F001A20ED0E1
:1011E00001B405D07F0E096EFF0E086E1FD0800E71
:1011F000096E086A1BD0096A086A18D001B0FBD7CB
:101200008F0E0A60EDD77E0E0A64F5D78E0E0A5C4B
:1012100005E0D890093208320A2AF8D701A406D08E
:10122000086C091EE86A092209AEE5D7120020EC15
:1012300009F001B6000C01B0000C01A4000C010C77
:10124000016ACDEC09F0E5EC09F001B6120001AE3F
:1012500008D001A004D001A802D0018012000190A2
:1012600012000F500A5C0BE10E50095C08E10D50B2
:10127000085C05E10C50075C02E101801200D8A077
:1012800002D0018E10D00A500FC00AF00F6E095024
:101290000EC009F00E6E08500DC008F00D6E07501C
:1012A0000CC007F00C6E0F500A5C10E0FF0F09E055
:1012B000019001B403D001AE0184120001AE01948B
:1012C00012000F2AD8900E320D320C320C50075EED
:1012D0000D50085A0E50095A09BEEAD7D890073661
:1012E000083609360A2EF8D7C8D77F0E0A6EFF0EC9
:1012F000096E086E076E12007F0E01BEFF0E0A6EA9
:1013000002D07F0E0A6E800E096E086A076AF3D754
:1013100001AE04D0800E0A6E096AF7D70A6A096A1C
:10132000F4D70350021013101210F8E005BEF0D7E6
:1013300003BE0CD004500510EBE0D89012361336E3
:10134000023603360406D8A00506F2D70550D4E1CC
:101350000428D2E012AE11D07F0E121402E113A0C5
:101360000CD0132AE86A0222032207E3D880033252
:1013700002321332042A0428BFE00450C9E013C02B
:1013800007F002C008F00334096E04300A6E093217
:101390000A9E01BE0A8E7BEF09F009360A3602E387
:1013A0000184017E06E101800A6A096A086A076A07
:1013B00012000A2803E0D88009321200D8900932BE
:1013C00002E101821200018612000E360F3602E39E
:1013D000018C017E06E101880F6A0E6A0D6A0C6AB3
:1013E00012000F2803E0D8800E321200D8900E327F
:0613F000EAE1018A12008F
:0A13F600F00E936E816A070EB41228
:1014000014D88150800B03E18150400B0CE081AC7B
:1014100004D00101010ECB6F05D081AE03D00101D4
:10142000010ECA6F13D8EDD71200C00E9412D7EC7C
:101430000AF0B8EC00F036EC00F0E80EE66E030EB1
:10144000E66E14EC0BF0E552E5521200D9CFE6FF40
:10145000E1CFD9FF020EE126DF6A010EDB6AD3EC91
:1014600003F0DF6EDF50FBE1D7EC0AF0B8EC00F0E0
:1014700057EC05F0E76E010EE7CFDBFFDB50F8E13C
:10148000D7EC0AF0B8EC00F00101CA051BE13CEC16
:1014900006F0DF6EDF5013E18182E80EE66E030E88
:1014A000E66E14EC0BF0E552E5528192E80EE66E22
:1014B000030EE66E14EC0BF0E552E552EDD7DF506B
:1014C000E6E11CD0CB051AE1DCEC06F0DF6EDF5064
:1014D00013E18182E80EE66E030EE66E14EC0BF06B
:1014E000E552E5528192E80EE66E030EE66E14ECCC
:1014F0000BF0E552E552EDD7DF50E6E1020EE15C7C
:1015000002E2E16AE552E16EE552E7CFD9FF12004F
:10151000060EF66E000EF76E000EF86E0101090061
:10152000F550C56F0900F550C66F03E1C56701D0DE
:101530003DD00900F550C06F0900F550C16F09009A
:10154000F550C26F09000900F550E96E0900F55029
:10155000EA6E090009000900F550C36F0900F55053
:10156000C46F09000900F6CFC7F1F7CFC8F1F8CF73
:10157000C9F1C0C1F6FFC1C1F7FFC2C1F8FF010147
:10158000C35302E1C45307E00900F550EE6EC307F0
:10159000F8E2C407F9D7C7C1F6FFC8C1F7FFC9C150
:0E15A000F8FF0101C507000EC65BBFD71200A1
:0215AE00400EED
:1015B000AF6E900EAB6E200EAC6E1200D9CFE6FF70
:1015C000E1CFD9FF9EB802D0FDD7FCD7FE0EDB508D
:1015D000AD6EE552E7CFD9FF12009EBA02D0FDD71B
:1015E000FCD7AE5000D01200D9CFE6FFE1CFD9FF33
:1015F000FD0EDBCFE9FFFE0EDBCFEAFFEF5010E080
:10160000FD0EDBCFE9FFFE0EDBCFEAFFEF50E66E0B
:10161000D5DFE552FD0EDB2AFE0E01E3DB2AE8D71B
:08162000E552E7CFD9FF1200EB
:08162800D9CFE6FFE1CFD9FFA5
:10163000E652D950FD0FE96EFF0EDA20EA6E000E79
:10164000D880EE54000EED540DE2FA0EDF6EDF503E
:10165000DF06000901E0FBD7FD0EDB06FE0E01E20E
:0E166000DB06E7D7E552E552E7CFD9FF1200CF
:02166E00056A0B
:10167000046A100EE76ED89008360936043605362F
:101680000D50045C0E50055805E30D50045E0E50DD
:0A169000055A082AE72EF0D71200D1
:06169A00000EF36E00EEED
:1016A00000F0060E01D81200EA6002D0EE6AFCD704
:0A16B000F350E9601200EE6AFCD767
:0616BA0015EE00F025EE24
:1016C00000F0F86A019C88EC0AF07CEC0BF0FBEC73
:0616D00009F0FBD7120037
:0A16D600056A080EE76ED890093689
:1016E00005360E50055C02E3056E092AE72EF7D792
:0216F0001200E6
:0516F200200020200093
:0216F8001200DE
:0216FA000000EE
:0416FC0041544530E0
:101700000D41540D41542B434D47463D310D41543D
:101710002B434D47533D2230393539373039353732
:101720003633220D47534D5F494E49004543484FDC
:101730005F4F46460041545F4F4B00454E440041C9
:1017400054534D535F4F4B0054494D454F55540032
:101750004552524F5200444F4E4500466C616D61F8
:10176000626C652067617320646574656374656489
:1017700020696E69746961746520656D657267655D
:101780006E63792070726F63656475726573005360
:101790006D6F6B6520646574656374656420696E44
:1017A00069746961746520656D657267656E6379DA
:0C17B0002070726F6365647572657300D1
:00000001FF
