:020000040000FA
:06000000F2EF0CF012000B
:0A0006000100021A00006000000073
:0400100030000000BC
:0C001400BADA0A0EE66EBEDAE5520D0EF6
:10002000E66EBADAE552770EE66E190EE66ECADAB9
:10003000E552E5529EAAFED700016F51EA6A600FB1
:10004000E96E000EEA22AECFEFFF6F2B6F05EA6A72
:10005000600FE96E000EEA22EF504008EBE1300E2F
:10006000605F615F635F645F0A0E6003F350612548
:10007000006E00C041F002EC03F03FC074F040C0DD
:1000800075F041C076F042C077F00A0E00016303BC
:10009000F3506425006E00C041F002EC03F03FC055
:1000A00078F040C079F041C07AF042C07BF07CC06B
:1000B00044F07DC045F07EC046F07FC047F07CC074
:1000C0003FF07DC040F07EC041F07FC042F0FDECCB
:1000D00003F03FC008F040C009F041C00AF042C040
:1000E0000BF080C044F081C045F082C046F083C070
:1000F00047F080C03FF081C040F082C041F083C033
:1001000042F0FDEC03F03FC00CF040C00DF041C0E8
:100110000EF042C00FF00CC044F00DC045F00EC010
:1001200046F00FC047F008C03FF009C040F00AC0D9
:1001300041F00BC042F014EC03F03FC004F040C0AB
:1001400005F041C006F042C007F074C044F075C02D
:1001500045F076C046F077C047F074C03FF075C0F8
:1001600040F076C041F077C042F0FDEC03F03FC0B4
:1001700014F040C015F041C016F042C017F078C02E
:1001800044F079C045F07AC046F07BC047F078C0B3
:100190003FF079C040F07AC041F07BC042F0FDEC06
:1001A00003F03FC018F040C019F041C01AF042C03F
:1001B0001BF018C044F019C045F01AC046F01BC02F
:1001C00047F014C03FF015C040F016C041F017C012
:1001D00042F014EC03F03FC010F040C011F041C0F9
:1001E00012F042C013F010C044F011C045F012C02C
:1001F00046F013C047F004C03FF005C040F006C011
:1002000041F007C042F013EC03F03FC000F040C0E3
:1002100001F041C002F042C003F074C044F075C068
:1002200045F076C046F077C047F074C03FF075C027
:1002300040F076C041F077C042F0FDEC03F03FC0E3
:1002400024F040C025F041C026F042C027F078C01D
:1002500044F079C045F07AC046F07BC047F078C0E2
:100260003FF079C040F07AC041F07BC042F0FDEC35
:1002700003F03FC028F040C029F041C02AF042C03E
:100280002BF028C044F029C045F02AC046F02BC00E
:1002900047F024C03FF025C040F026C041F027C001
:1002A00042F014EC03F03FC020F040C021F041C008
:1002B00022F042C023F07CC044F07DC045F07EC0F7
:1002C00046F07FC047F07CC03FF07DC040F07EC06C
:1002D00041F07FC042F0FDEC03F03FC030F040C081
:1002E00031F041C032F042C033F080C044F081C0F0
:1002F00045F082C046F083C047F080C03FF081C027
:1003000040F082C041F083C042F0FDEC03F03FC0FA
:1003100034F040C035F041C036F042C037F034C050
:1003200044F035C045F036C046F037C047F030C025
:100330003FF031C040F032C041F033C042F013EC26
:1003400003F03FC02CF040C02DF041C02EF042C061
:100350002FF02CC044F02DC045F02EC046F02FC029
:1003600047F020C03FF021C040F022C041F023C040
:1003700042F013EC03F03FC01CF040C01DF041C040
:100380001EF042C01FF01CC044F01DC045F01EC04E
:1003900046F01FC047F000C03FF001C040F002C06F
:1003A00041F003C042F0AAEC03F03FC088F040C027
:1003B00089F041C08AF042C08BF0006A016A026A8B
:1003C000400E036E00C0E6FF01C0E6FF02C0E6FF7C
:1003D00003C0E6FF88C0E6FF89C0E6FF8AC0E6FFEB
:1003E0008BC0E6FF38EC08F0E552E552E552E552E5
:1003F0003EC008F03FC009F040C00AF041C00BF019
:1004000008C0E6FF09C0E6FF0AC0E6FF0BC0E6FF32
:10041000ACEC05F0E552E552E552E552E552E7CF86
:1004200003F0E552E7CF02F0E552E7CF01F0E552E5
:10043000E7CF00F03EC004F03FC005F040C006F03A
:1004400041C007F004C044F005C045F006C046F0C6
:1004500007C047F000C03FF001C040F002C041F0CB
:1004600003C042F0FDEC03F03FC084F040C085F0D3
:1004700041C086F042C087F0446A456A340E466E39
:10048000430E476E84C03FF085C040F086C041F007
:1004900087C042F0FDEC03F03FC000F040C001F027
:1004A00041C002F042C003F0C30E446EF50E456E2B
:1004B000480E466E400E476E00C03FF001C040F04F
:1004C00002C041F003C042F0AAEC03F03FC084F048
:1004D00040C085F041C086F042C087F084C03FF044
:1004E00085C040F086C041F087C042F090EC04F037
:1004F00040C08CF041C08DF08CC08EF08DC08FF06C
:100500008EC000F08FC001F00A0E456E466A00C032
:1005100040F001C041F06AEC04F040C000F041C07E
:1005200001F0300E00240001706F0A0E456E466A1D
:100530008EC040F08FC041F06AEC04F03CC08EF0F9
:100540003DC08FF0300E00018E25716F0A0EE66EF1
:1005500023D8E5520D0EE66E1FD8E5526A0EE66E00
:10056000190EE66E2FD8E552E552700EE66E000EBB
:10057000E66E28D8E552E552E80EE66E030EE66E0A
:1005800092EC0CF0E552E5521200400EAF6E900E68
:10059000AB6E240EAC6E1200D9CFE6FFE1CFD9FFCF
:1005A0009EB802D0FDD7FCD7FE0EDB50AD6EE552F3
:1005B000E7CFD9FF12009EBA02D0FDD7FCD7AE50CC
:1005C00000D01200D9CFE6FFE1CFD9FFFD0EDBCF7F
:1005D000E9FFFE0EDBCFEAFFEF5010E0FD0EDBCFB0
:1005E000E9FFFE0EDBCFEAFFEF50E66ED5DFE55206
:1005F000FD0EDB2AFE0E01E3DB2AE8D7E552E7CF4A
:04060000D9FF12000C
:0C060400399E05D0399E41AE02D0416CF9
:10061000398E41C03BF03A6A4B6A4A6A860E3C6E9C
:100620003D6ADBEF04F0477E396A17EC05F02FECEA
:1006300005F039B6BFEF04F039A20AD039AA03D0C9
:1006400039BEBFEF04F039A4CBEF04F0C8EF04F0DB
:1006500039AA05D039ACCBEF04F0C8EF04F039A0CB
:100660000AD039A808D039BE04D039A402D0D4EFBA
:1006700004F0D8EF04F04A6A3D6A4750425C496E84
:1006800010E33FC04BF040C03AF041C03BF042C0E5
:1006900048F044C03FF045C040F046C041F0393A10
:1006A00009D044C04BF045C03AF046C03BF047C0CB
:1006B00048F0496C399E39BC398E48C03CF039B09D
:1006C00007EF05F01A0E496007EF05F03C6A426A31
:1006D00039A408D03F6C401E411E421EE86A4022E9
:1006E0004122422239AC08D04B6C3A1E3B1E3C1EC4
:1006F000E86A3A223B223C223E6A495207E04234F1
:10070000413240323F323E32492EF9D73F504B26DC
:1007100040503A2241503B2242503C223EC04AF0D7
:10072000399E3CAE0BD04A6C4B1E3A1E3B1E3C1E03
:10073000E86A4B223A223B223C22398E3CA006D06A
:10074000D8803B323A324B324A32482A48C03CF0D9
:10075000DBEF04F0396A17EC05F02FEC05F039B641
:10076000BFEF04F039A205D039BABFEF04F0C6EFED
:1007700004F039BAD2EF04F039A005D039B8BFEF90
:1007800004F0D2EF04F039B8C6EF04F03D6A7F0EF2
:1007900042243C6EE86A3D2247503C5EE86A3D5A7E
:1007A0001A0E486E426A4A6A4B6A3A6A3B6A445079
:1007B0003F5E4550405A4650415A000E425A09E7A2
:1007C00044503F264550402246504122000E4222CE
:1007D00001D04A8AD8903F36403641364236D890CA
:1007E0004A364B363A363B36482EE1D74150401018
:1007F0003F10D8A44A8ADBEF04F0396A17EC05F001
:100800002FEC05F039B6BFEF04F039A205D039B8A6
:10081000BFEF04F0C6EF04F039AA05D039B0BFEF3E
:1008200004F0C6EF04F039B002D039A802D0D2EFFC
:1008300004F03D6A475042243C6EE86A3D227E0E39
:100840003C5EE86A3D5A4A6A4B6A3A6A3B6A4650DD
:100850004102F4CF3BF0F3CF3AF045504102F35060
:100860004B26F4503A22000E3B2246504002F350F1
:100870004B26F4503A22000E3B2244504102F350E2
:100880004A26F4504B22000E3A223B2245504002A9
:10089000F3504A26F4504B22000E3A223B22465097
:1008A0003F02F3504A26F4504B22000E3A223B22DC
:1008B00044504002F4504A26000E4B223A223B227A
:1008C00045503F02F4504A26000E4B223A223B226A
:1008D000DBEF04F0386A46AE73EF04F0456C461E59
:1008E000E86A4622381E41AE7BEF04F0406C411EA0
:1008F000E86A4122381ECCEC0CF041BE8BEF04F0CC
:1009000038AE000C406C411EE86A41223C6C3D1E32
:10091000E86A3D22000C38BE82EF04F03988FF0CF3
:10092000396A17EC05F039B69AEF04F039A20ED007
:1009300039B405D07F0E416EFF0E406E1FD0800E81
:10094000416E406A1BD0416A406A18D039B0FBD76B
:100950008F0E4260EDD77E0E4264F5D78E0E425C5C
:1009600005E0D89041324032422AF8D739A406D067
:10097000406C411EE86A412241AEE5D712007F0E6D
:10098000426EFF0E416E406E3F6E12007F0E39BE0A
:10099000FF0E426E02D07F0E426E800E416E406AA4
:1009A0003F6AF3D739AE04D0800E426E416AF7D762
:1009B000426A416AF4D73B503A104B104A10F8E0B3
:1009C0003DBEF0D73BBE0CD03C503D10EBE0D89084
:1009D0004A364B363A363B363C06D8A03D06F2D76F
:1009E0003D50D4E13C28D2E04AAE11D07F0E4A14EB
:1009F00002E14BA00CD04B2AE86A3A223B2207E3E3
:100A0000D8803B323A324B323C2A3C28BFE03C5043
:100A1000C9E04BC03FF03AC040F03B34416E3C303F
:100A2000426E4132429E39BE428EC5EF04F04136DD
:100A3000423602E33984397E06E13980426A416AEE
:100A4000406A3F6A1200422803E0D8804132120017
:100A5000D890413202E139821200398612004636BE
:100A6000473602E3398C397E06E13988476A466A9F
:100A7000456A446A1200472803E0D88046321200D3
:100A8000D8904632EAE1398A120057EC05F039B6BF
:100A9000000C39B0000C39B4000C010C57EC05F017
:100AA00039B6000C39B0000C39A4000C010C396ABD
:100AB00017EC05F02FEC05F039B6120039AE08D06E
:100AC00039A004D039A802D0398012003990120020
:100AD0004750425C0BE14650415C08E14550405CA8
:100AE00005E144503F5C02E139801200D8A002D0F9
:100AF000398E10D0425047C042F0476E415046C038
:100B000041F0466E405045C040F0456E3F5044C0F5
:100B10003FF0446E4750425C10E0FF0F09E039900F
:100B200039B403D039AE3984120039AE3994120089
:100B3000472AD89046324532443244503F5E4550B1
:100B4000405A4650415A41BEEAD7D8903F364036C7
:080B50004136422EF8D7C8D748
:080B5800D9CFE6FFDACFE6FF7A
:100B6000E1CFD9FFE2CFDAFF1D0EE12402E3E16815
:100B7000E652E16E67DAFA0EDBCFEEFFFB0EDBCF5B
:100B8000EEFFFC0EDBCFEEFFFD0EDBCFEEFFD9500C
:100B9000040FE66E000EDA20E66E0BDAF5EC0AF0D2
:100BA000006E060EE15C02E2E16AE552E16E005081
:100BB000E76E0B0EE7CFDBFFDB50800807E10A0E84
:100BC000DB6ADE68DE68DE687F0E13D00B0EDB04A6
:100BD00005E1DE6ADE6ADE6ADD6AA6D10B0EDB5055
:100BE000040809E1DB0EDE6E0F0EDE6EC90EDE6E4E
:100BF0003F0EDD6E99D1DDD91EDA3EC0DEFF3FC06B
:100C0000DEFF40C0DEFF41C0DDFFDD52DD52DBD93B
:100C10000DDA3F0E20DA23E13F6A406A800E416E12
:100C20003F0E426EDECF44F0DECF45F0DECF46F021
:100C3000DDCF47F0DD52DD52AAEC03F03FC0DFFF0D
:100C4000010E40C0DBFF020E41C0DBFF030E42C0BD
:100C5000DBFF020EF36E0C0EF3CFDBFF02D00C0EA7
:100C6000DB6AB1D9A30E446E300E456E890E466E16
:100C70003E0EF1D96CE1AF0E3F6E670E406E3B0E3B
:100C8000416E3F0E426EB2D93FC008F040C009F03D
:100C900041C00AF042C00BF0C9D93F0E476E13ECB9
:100CA00003F03FC004F040C005F041C006F042C070
:100CB00007F0C8D9EECF0CF0EECF0DF0EECF0EF06E
:100CC000EFCF0FF00CC044F00DC045F00EC046F061
:100CD0000FC047F014EC03F080D9D70E146EB30E9A
:100CE000156EDD0E166E3F0E176EACD9EECF18F0F6
:100CF000EECF19F0EECF1AF0EFCF1BF018C044F092
:100D000019C045F01AC046F01BC047F014C03FF0B0
:100D100015C040F016C041F0426E14EC03F03FC025
:100D200010F040C011F041C012F042C013F03FC0BB
:100D300044F040C045F041C046F042C047F035D9CC
:100D4000AAEC03F05FD9DD52DD520C0EDB2A31D95B
:100D500072D93EC000F03FC001F040C002F041C077
:100D600003F064D9390E476E3EC03FF07AD94EEC9D
:100D700005F0010A01E1B5D04ED938D90D0E3FC0BA
:100D8000DBFF0E0E40C0DBFF0F0E41C0DBFF100E7D
:100D900042C0DBFF910E3F6E860E406E500E416EDC
:100DA000BD0E426E0D0EDBCF44F00E0EDBCF45F0D4
:100DB0000F0EDBCF46F0100E4AD90FD9F60E446E57
:100DC000100E456EF10E466EBE0E476E14EC03F02B
:100DD000110E3FC0DBFF120E40C0DBFF130E41C0FF
:100DE000DBFF140E42C0DBFF0D0EDBCF00F00E0E5A
:100DF000DBCF01F00F0EDBCF02F0100EDBCF03F0E4
:100E0000D30E446ECC0E456EB40E466E3F0E476E4A
:100E1000CCD814EC03F0150E3FC0DBFF160E40C01B
:100E2000DBFF170E41C0DBFF180E42C0DBFF0D0ECB
:100E3000DBCF3FF00E0EDBCF40F00F0EDBCF41F0EB
:100E4000100EDBCF42F0110EDBCF44F0120EDBCFE1
:100E500045F0130EDBCF46F0140EF9D8150EDBCF9C
:100E600044F0160EDBCF45F0170EDBCF46F0180E20
:100E7000DBCF47F0AAEC03F0B0D8190E3FC0DBFF80
:100E80001A0E40C0DBFF1B0E41C0DBFF1C0E42C030
:100E9000DBFFC1D8190EDBCF44F01A0EDBCF45F0D3
:100EA0001B0EDBCF46F01C0ED2D897D8CBD8EECF96
:100EB0003FF0EECF40F0EECF41F0EFCF42F000C078
:100EC00044F001C045F002C046F003C047F014EC06
:100ED00003F042C0EDFF41C0EDFF40C0EDFF3FC059
:100EE000EFFF0C0EDB0409E1920E006E0A0E016E9C
:100EF000060E3FD814EC03F016D00C0EDB5002089F
:100F000006E1DB0E006E0F0E016EC90E09D00C0E4D
:100F1000DB5003080BE1920E006E0A0E016E860E86
:100F200028D813EC03F06ED8DD52DD520A0EDB50E8
:100F30000AE049D87BD8BF0E476E37D8FDEC03F0E6
:100F400061D8DD52DD52DECF3EF0DECF3FF0DECFA6
:100F500040F0DDCF41F0DD52DD521D0EE15C02E2DA
:100F6000E16AE552E16EE552E5CFDAFFE7CFD9FF5E
:100F70001200026E3F0E036E65D8EECF04F0EECF86
:100F800005F0EECF06F0EFCF07F004C044F005C047
:100F900045F006C046F007C047F000C03FF001C072
:100FA00040F002C041F0426E120000C03FF031EF4D
:100FB00008F048D8EECFE6FFEECFE6FFEECFE6FF33
:100FC000EFCFE6FF12003ED8EECF00F0EECF01F0FB
:100FD000EECF02F0EFCF03F012003FC000F040C0B0
:100FE00001F041C002F042C003F01200000EDFCF5A
:100FF00044F0010EDBCF45F0020EDBCF46F0030ECE
:1010000027EF08F03FC0DEFF40C0DEFF41C0DEFF3B
:1010100042C0DDFF1200DECF3FF0DECF40F0DECF7A
:1010200041F0DDCF42F0DD52DD521200446A456AE4
:10103000800E466E12005FEC0CF0E552E552E55270
:10104000E5521200D9CFE9FFDACFEAFF1200DBCF79
:1010500047F0FDEF03F0476EA8DF45EC05F0010A0D
:10106000120001C040F002C041F003C042F0120083
:10107000D9CFE6FFDACFE6FFE1CFD9FFE2CFDAFF43
:10108000240EE12402E3E168E652E16ED950FA0F42
:10109000E96EFF0EDA20EA6E020EEECFDBFF030EE2
:1010A000EECFDBFF040EEECFDBFF050EEECFDBFF56
:1010B000E8D9F2D9F5EC0AF0006E060EE15C02E226
:1010C000E16AE552E16E0050E76E0D0EE7CFDBFFFF
:1010D000DB50800815E0A0D9446A456A466A476A31
:1010E00000C03FF001C040F002C041F003C042F038
:1010F0004EEC05F0010A10E1210E00019A6F9B6B86
:10110000020EDB68030EDB68040EDB687F0EF36EF5
:10111000050EF3CFDBFF66D10D0EDB50050B01E0B2
:1011200061D10A0EDBCF00F00B0EDBCF01F0830E96
:101130000026FF0E012200C0DEFF01C0DDFFD950F6
:10114000060F65D976D9DF50010B0FE0DF06010EDF
:1011500001E2DB06D950180F5AD9D890EF36010EAC
:10116000EB36020EEB36030EEB36D9CFE9FFDACFC2
:10117000EAFF020E456E466AEECF40F0EDCF41F039
:101180006AEC04F040C0EEFF41C0EDFF140EDB6AD4
:10119000150EDB6A160EDB6A170EDB6A1C0EDB6AA5
:1011A0001D0EDB6A1E0EDB6A010EF36E1F0EF3CFFF
:1011B000DBFF010EF36E0E0EF3CFDBFF0F0EDB6ACB
:1011C0000E0EDBCF00F00F0EDBCF01F0D8900150F8
:1011D00004E61A0E005C000E015801E398D0180EC8
:1011E000DBCF00F0190EDBCF01F01A0EDBCF02F0DF
:1011F0001B0EDBCF03F0010E1F0B07E0D89000366B
:10120000013602360336E806F9E1180E00C0DBFFAE
:10121000190E01C0DBFF1A0E02C0DBFF1B0E03C05C
:10122000DBFF140EDBCF08F0150EDBCF09F0160E36
:10123000DBCF0AF0170EDBCF0BF0010E1F0B07E020
:10124000D890083609360A360B36E806F9E1D95047
:101250001C0FDDD80850EE24046E0950EE20056EF8
:101260000A50EE20066E0B50EE20076ED950180F74
:10127000CED80450EE5C006E0550EE58016E06505C
:10128000EE58026E0750EE58036E200E00C0DBFFD2
:10129000210E01C0DBFF220E02C0DBFF230E03C0C4
:1012A000DBFF200EDBCF3FF0210EDBCF40F0220E24
:1012B000DBCF41F0230EDBCF42F04234000E421868
:1012C00009E6D880000E3F54000E4054000E4154F1
:1012D000000E425411E2D950200F99D8AAD8D8D87C
:1012E0001C0EDB50EE121D0EDB50EE121E0EDB50FC
:1012F000EE121F0EDB50EE12D9501C0F88D8AFD85B
:101300000E0EDB2A0F0E01E25BD7DB2A59D7C9D8B4
:10131000100E00C0DBFF110E01C0DBFF180EDBCF8B
:1013200040F0190EDBCF41F0120E40C0DBFF130E70
:1013300041C0DBFFADD893D8D950100F68D8EE501C
:10134000ED1012E0D950120F62D8EE50ED1006E108
:10135000A8D8005001100210031006E099D8EE2A18
:10136000000EEE22EE22EE220C0EDB6A91D8060E63
:10137000EECFDBFF070EEECFDBFF080EEECFDBFF7D
:10138000090EEECFDBFF7E0EF36E0A0EF3CFDBFF0E
:101390000B0EDB6AD950020FE66E000EDA20E66E05
:1013A00070D883EC0BF0E552E552E552E552DECF02
:1013B000E6FFDDCFE6FF70D859EC0AF0006E060EAE
:1013C000E15C02E2E16AE552E16E0050020E3EC0CD
:1013D000DBFF030E3FC0DBFF040E40C0DBFF050E4A
:1013E00041C0DBFF19D800C03EF001C03FF002C091
:1013F00040F003C041F0240EE15C02E2E16AE552F4
:10140000E16EE552E5CFDAFFE7CFD9FF1200E96ED2
:10141000000EDA20EA6E1200020EDBCF00F0030E9F
:10142000DBCF01F0040EDBCF02F0050EDBCF03F0C3
:101430001200180EEECFDBFF190EEECFDBFF1A0EF7
:10144000EECFDBFF1B0EEECFDBFF1200EECFE6FF91
:10145000EECFE6FFEECFE6FFEFCFE6FF1200D8902B
:10146000030EEB32020EEB32010EEB32EF321200C2
:10147000EE500016EE500116EE500216EE50031616
:101480001200D950060FE66E000EDA20E66E12004A
:10149000D950140F07EF0AF0D950020FB8DF26EF2A
:1014A0000AF0010E006E016A026A036AF1DF38EF8A
:0214B0000AF040
:0E14B20096D8E1CFD9FFE2CFDAFF0C0EE1248D
:1014C00002E3E168E652E16ED950FA0FE96EFF0ED1
:1014D000DA20EA6E080EEECFDBFF090EEECFDBFF5F
:1014E0000A0EEECFDBFF0B0EEECFDBFF79D8D95023
:1014F000080FE96E000EDA20EA6EEECFE6FFEECFBF
:10150000E6FFEECFE6FFEFCFE6FFF5EC0AF0006E68
:10151000060EE15C02E2E16AE552E16E0050E76E20
:10152000070EE7CFDBFFDB50840B3AE1070EDB044D
:101530001AE1060EDB5006E0006A016A026A800EBC
:10154000036E04D0006A016A026A036A080E00C0D2
:10155000DBFF090E01C0DBFF0A0E02C0DBFF0B0E32
:1015600003C0DBFF1DD0F80EDBCF00F0F90EDBCFA0
:1015700001F0D950040FE96E000EDA20EA6E005037
:10158000EE260150ED22D950080FE66E000EDA204B
:10159000E66E26D883EC0BF0E552E552E552E552B3
:1015A000080EDBCF00F0090EDBCF01F00A0EDBCF17
:1015B00002F00B0EDBCF03F000C03EF001C03FF0A5
:1015C00002C040F003C041F00C0EE15C02E2E16AAF
:1015D000E552E16EE552E5CFDAFFE7CFD9FF120021
:0A15E000D9CFE6FFDACFE6FF1200D4
:0615EA00D9CFE6FFDACFC5
:1015F000E6FFE1CFD9FFE2CFDAFFE65200680168EB
:101600007F0E026E036AD950FA0FE96EFF0EDA20E0
:10161000EA6EEE500016EE500116EE500216EE5035
:1016200003166AD800C0EEFF01C0EEFF02C0EEFF55
:1016300003C0EEFFFD0EDB50800B02E0010E01D077
:10164000000EE66E59D8060EE926000EEA22E55293
:10165000E750EF6EFC0EDBCF00F0FD0EDBCF01F0AC
:10166000D89000360136FC0E00C0DBFFFD0E01C035
:10167000DBFFDB50E66E40D8040EE926000EEA22BE
:10168000E552E750EE6EED6AFD0EDB50006E016A2A
:10169000FF0E001818E1015016E12ED8EECF00F031
:1016A000EECF01F0EECF02F0EFCF03F000500110CB
:1016B0000210031006E0210E00019A6F9B6B800E52
:1016C0000BD0040E09D0FD0EDB5008E115D8EE6AF0
:1016D000EE6AEE6AEE6A010EDF6E06D0020EDF6E73
:1016E0000BD8EE52EE52EE8EDF50E552E552E5CFCA
:1016F000DAFFE7CFD9FF1200F80EDBCFE9FFF90ED2
:06170000DBCFEAFF12003E
:0A170600D9CFE6FFDACFE6FFE1CF0E
:10171000D9FFE2CFDAFF5BD8013411E20050FE08B6
:10172000000E01540CE276D805E06CD8800EEE6E07
:10173000EE6847D067D8800EEE6E7F0E0ED047D889
:10174000D890015004E6010E005C000E01580BE237
:1017500061D805E057D8EE6A800EEE6E32D052D8CE
:10176000EE6AEE6A2ED047D8EECF00F0EECF01F051
:10177000EECF02F0EFCF03F032D800C0EEFF01C091
:10178000EEFF02C0EEFF03C0EEFF21D80050010BB8
:1017900005E025D8020E3AD8EF8E04D020D8020EEC
:1017A00035D8EF9E14D8D8900132003218D8030EE5
:1017B0002DD800C0EFFF1AD804E011D8030E26D8A8
:1017C000EF8EE552E5CFDAFFE7CFD9FF120013D84D
:1017D000040E1CD8EECF00F0EFCF01F01200FA0E8D
:1017E000DBCFE9FFFB0EDBCFEAFF120004D8060EC9
:1017F0000DD8EF501200FC0EDBCFE9FFFD0EDBCF62
:10180000EAFF1200ECDFEE6AEE6A1200E926000E33
:10181000EA221200220E00019A6F9B6BF6EF0BF08A
:10182000060EF66E000EF76E000EF86E000109004F
:10183000F550956F0900F550966F03E1956701D05B
:101840003DD00900F550906F0900F550916F0900E7
:10185000F550926F09000900F550E96E0900F55046
:10186000EA6E090009000900F550936F0900F55070
:10187000946F09000900F6CF97F0F7CF98F0F8CFF2
:1018800099F090C0F6FF91C0F7FF92C0F8FF0001F9
:10189000935302E1945307E00900F550EE6E93076D
:1018A000F8E29407F9D797C0F6FF98C0F7FF99C000
:0E18B000F8FF00019507000E965BBFD71200EF
:0218BE00D9CF80
:1018C000E6FFDACFE6FFE1CFD9FFE2CFDAFFE6525B
:1018D000E652D950FD0F006EFF0EDA2000C0DEFF89
:1018E000DD6EDECFE9FFDDCFEAFFEF9EFA0EDBCF44
:1018F00000F0FB0EDBCF01F0FC0EDBCF02F0FD0EA3
:10190000DBCF03F000C03EF001C03FF002C040F06A
:1019100003C041F0E552E552E552E5CFDAFFE7CFEB
:04192000D9FF1200D9
:0C192400D9CFE6FFE1CFD9FFE652D95041
:10193000FD0FE96EFF0EDA20EA6E000ED880EE543D
:10194000000EED540DE2FA0EDF6EDF50DF060009E7
:1019500001E0FBD7FD0EDB06FE0E01E2DB06E7D75A
:0A196000E552E552E7CFD9FF12006F
:06196A0074686574612041
:10197000322069733A2000456E74657220782C79A4
:1019800020636F2D6F7264696E6174652028414118
:081990002C424240293A2000DC
:081998003D6A3C6A100EE76E87
:1019A000D890403641363C363D3645503C5C46503A
:1019B0003D5805E345503C5E46503D5A402AE72ECF
:0419C000F0D712004A
:0C19C400000EF36E00EE00F0060E01D8DD
:1019D0001200EA6002D0EE6AFCD7F350E960120010
:0419E000EE6AFCD7D8
:0C19E40015EE00F025EE00F0F86A399CCA
:1019F00010EC0CF000EC0DF00AEC00F0FBD712003C
:021A00001200D2
:0E1A02000000000000000000000000000000D6
:101A100000000000000000000000000000000000C6
:101A2000F040000020410000000000000000000025
:021A30000000B4
:00000001FF
