:1000000083177B3084007E300A128A110D200A1279
:100010008A1183010A128A11152864008001840A5A
:1000200004060319003404060E2803108316031374
:1000300000300318013086008113031000300318CC
:100040000130850083120313FF3086000030A400C6
:100050000030A5000030A2000030A3000030A60050
:100060000030A7000030A0000030A1000030F000F8
:100070000030F1000030F2000030AD004830AE003A
:100080004230AF007008AA007108AB007208AC00E3
:100090000A128A11EA210A128A11031C50285128D7
:1000A0005228BA288312031305142108A901A907AD
:1000B0002008A801A8070A128A1160240A128A11CE
:1000C0008312031385142708A901A9072608A8018C
:1000D000A8070A128A1160240A128A1183120313D4
:1000E00005152308A901A9072208A801A8070A12D3
:1000F0008A1160240A128A118312031385152508B8
:10010000A901A9072408A801A8070A128A116024D6
:100110000A128A11831203130030AD008030AE0042
:100120003F30AF007008AA007108AB007208AC0045
:100130000A128A1142230A128A11831203132A080F
:10014000F0002B08F1002C08F2000030AD00483020
:10015000AE004230AF007008AA007108AB00720810
:10016000AC000A128A11EA210A128A11031CB9286A
:10017000BA285228831203130130A4070318A50AD2
:100180000030A5070A3024062504031DC828C92805
:1001900012290030A4000030A5000130A207031886
:1001A000A30A0030A307063022062304031DD92822
:1001B000DA2812290030A2000030A3000130A6077F
:1001C0000318A70A0030A7070A3026062704031DD4
:1001D000EA28EB2812290030A6000030A7000130E1
:1001E000A0070318A10A0030A10706302006210449
:1001F000031DFB28FC2812290030A0000030A100BC
:100200002108A701A7072008A601A6072708A30120
:10021000A3072608A201A2072308A501A507220813
:0C022000A401A40736280A128A11002845
:1003D400AC1FED29EE29FB292A08003CAA002B08B2
:1003E400031C2B0A003CAB002C08031C2C0A803C89
:1003F400AC00AF1FFE29FF290C2A2D08003CAD00DC
:100404002E08031C2E0A003CAE002F08031C2F0AE2
:10041400803CAF008030AC068030AF062F082C0241
:10042400031D1A2A2E082B02031D1A2A2D082A023C
:1004340003181D2A1F2A0314202A0310212A080046
:10044400B7003708840083130008B900840A000841
:10045400BA00840A0008BB000F300310BB0CBA0CAE
:10046400B90CFF3E031D2F2A3908B800BC0036081A
:1004740084003C088000B808031D412A422A4E2A01
:100484003708840000308000840A00308000840A29
:100494000030800000307B2A031000300318013044
:1004A400B8003708840000308004840A8030800457
:1004B400840A00308004370884000008B900840AE4
:1004C4000008BA00840A0008BB00BB1F6A2A6B2A12
:1004D4006F2A0130B9003908B80737088400FF30A3
:1004E4008005840AFF308005840A003080053808BE
:1004F4007B2A0800B700B608031D812A932A37080F
:10050400840083130008B800840A0008B900840A30
:100514000008BA003A0839043804031D922A932AC1
:100524009F2A37088400003083138000840A003037
:100534008000840A00308000412BB22A0130B800C8
:100544003808B607370884000130B800840A840AE2
:100554000310800C8403800C8403800CB80BA82A3D
:100564003708840000300005B800840A0030000514
:10057400B900840AFE300005BA003A083904380488
:10058400031DC52AC62AA02AE82A0130B800380863
:10059400B6073708840001308007840A0030031846
:1005A400013E031D8007840A00300318013E8007C2
:1005B400370884000130B800840A840A0310800CD0
:1005C4008403800C8403800CB80BDE2A3708840073
:1005D40000300005B800840A00300005B900840A20
:1005E400FF300005BA003A0839043804031DFB2A19
:1005F400FC2AC72A0D2B0130B602370884000130CB
:100604000310800D840A800D840A800D8403840302
:10061400FF3E031D022B370884000008B800840A3B
:100624000008B900840A0008BA00B91F1A2B1B2B52
:10063400FD2A36181E2B1F2B292B37088400FF3068
:100644008005840A7F308005840AFF30800503100A
:10065400B60C3608B800B901BA0110300310B80D51
:10066400B90DBA0DFF3E031D302B3708840038083E
:100674008004840A39088004840A3A088004080043
:10068400432B3430B6002A300A128A1122220A126D
:100694008A1183120313B200B408031D522B532B87
:1006A4005A2B2D08AA002E08AB002F08AC005F2C93
:1006B4003330B6002D300A128A1122220A128A110E
:1006C40083120313B000B308031D692B4E2C0630AC
:1006D400B100330834020318702B712BB02B33088C
:1006E400B5003408B50219303502031C7A2B7B2B74
:1006F400862B0030AA000030AB000030AC00330879
:10070400B4003008B200AF2B01300310AD0DAE0DB4
:10071400AF0DFF3E031D872B0130B30233083406AF
:100724000319952B962B9C2B0130B102031D9B2B97
:100734009C2B862BA92B01300310AC0CAB0CAA0C00
:10074400FF3E031D9E2B0130B5003508B407340865
:100754003306031DAE2BAF2B9D2BF02B3408330631
:100764000319B52BB62BF02B3408B5003308B502AA
:1007740019303502031CBF2BC02BC72B0030AD0032
:100784000030AE000030AF00F02B01300310AA0D92
:10079400AB0DAC0DFF3E031DC82B0130B402330872
:1007A40034060319D62BD72BDD2B0130B102031DE0
:1007B400DC2BDD2BC72BEA2B01300310AF0CAE0C66
:1007C400AD0CFF3E031DDF2B0130B5003508B30728
:1007D40034083306031DEF2BF02BDE2BB208031D68
:1007E400F42B082CFF30AA06FF30AB06FF30AC0612
:1007F4000130AA07003003110318013E031DAB07A3
:10080400003003110318013E031DAC07B008031D9B
:100814000C2C202CFF30AD06FF30AE06FF30AF06A7
:100824000130AD07003003110318013E031DAE076C
:10083400003003110318013E031DAF0703100030FD
:1008440003180130B2002D08AA072E08031103185B
:100854002E0A031DAB072F08031103182F0A031DCB
:10086400AC07AC1F362C372C4E2CFF30AA06FF30B9
:10087400AB06FF30AC060130AA07003003110318A1
:10088400013E031DAB07003003110318013E031D95
:10089400AC07B2010314B20D3408B6002A300A12B0
:1008A4008A117C220A128A1183120313B208031DCF
:1008B4005C2C5E2C8030AC065F2C080029082804D0
:1008C400031D652C662CBA2C0030FB000030FC00A4
:1008D4000030FD000030AD00A030AE004130AF006C
:1008E4007B08AA007C08AB007D08AC000A128A11C0
:1008F400EA210A128A11031C802C812C822CBA2C26
:100904008312031386130613861206128611061128
:10091400861406140030AD008030AE003F30AF00C6
:100924007B08AA007C08AB007D08AC000A128A117F
:1009340042230A128A11831203132A08FB002B088C
:10094400FC002C08FD000030AD00A030AE004130AA
:10095400AF007B08AA007C08AB007D08AC000A123B
:100964008A11EA210A128A11031CB92CBA2C822C8E
:1009740001308312031328062904031DC22CC32C3F
:10098400172D0030FB000030FC000030FD0000306B
:10099400AD00A030AE004130AF007B08AA007C0857
:1009A400AB007D08AC000A128A11EA210A128A11EE
:1009B400031CDD2CDE2CDF2C172D8312031386176A
:1009C40006138612061686150615861406140030BC
:1009D400AD008030AE003F30AF007B08AA007C0839
:1009E400AB007D08AC000A128A1142230A128A1154
:1009F400831203132A08FB002B08FC002C08FD00BB
:100A04000030AD00A030AE004130AF007B08AA003A
:100A14007C08AB007D08AC000A128A11EA210A1294
:100A24008A11031C162D172DDF2C02308312031399
:100A340028062904031D1F2D202D742D0030FB00D2
:100A44000030FC000030FD000030AD00A030AE00EE
:100A54004130AF007B08AA007C08AB007D08AC00E5
:100A64000A128A11EA210A128A11031C3A2D3B2D1B
:100A74003C2D742D83120313861306138616061257
:100A840086110615861006140030AD008030AE00C5
:100A94003F30AF007B08AA007C08AB007D08AC00A7
:100AA4000A128A1142230A128A11831203132A0892
:100AB400FB002B08FC002C08FD000030AD00A0302A
:100AC400AE004130AF007B08AA007C08AB007D0873
:100AD400AC000A128A11EA210A128A11031C732D2E
:100AE400742D3C2D03308312031328062904031D9F
:100AF4007C2D7D2DD12D0030FB000030FC0000301A
:100B0400FD000030AD00A030AE004130AF007B08E6
:100B1400AA007C08AB007D08AC000A128A11EA2105
:100B24000A128A11031C972D982D992DD12D831209
:100B340003138613061386120612861506158610ED
:100B440006140030AD008030AE003F30AF007B08AB
:100B5400AA007C08AB007D08AC000A128A1142236B
:100B64000A128A11831203132A08FB002B08FC00C3
:100B74002C08FD000030AD00A030AE004130AF00C5
:100B84007B08AA007C08AB007D08AC000A128A111D
:100B9400EA210A128A11031CD02DD12D992D04307B
:100BA4008312031328062904031DD92DDA2D2E2EB2
:100BB4000030FB000030FC000030FD000030AD00D0
:100BC400A030AE004130AF007B08AA007C08AB0027
:100BD4007D08AC000A128A11EA210A128A11031C48
:100BE400F42DF52DF62D2E2E8312031386170613DE
:100BF4008612061686150611861006140030AD00FE
:100C04008030AE003F30AF007B08AA007C08AB0008
:100C14007D08AC000A128A1142230A128A11831237
:100C240003132A08FB002B08FC002C08FD000030ED
:100C3400AD00A030AE004130AF007B08AA007C08B4
:100C4400AB007D08AC000A128A11EA210A128A114B
:100C5400031C2D2E2E2EF62D053083120313280689
:100C64002904031D362E372E8B2E0030FB00003056
:100C7400FC000030FD000030AD00A030AE0041307B
:100C8400AF007B08AA007C08AB007D08AC000A1208
:100C94008A11EA210A128A11031C512E522E532E54
:100CA4008B2E8312031386130617861206128615DB
:100CB4000611861006140030AD008030AE003F30BF
:100CC400AF007B08AA007C08AB007D08AC000A12C8
:100CD4008A1142230A128A11831203132A08FB0081
:100CE4002B08FC002C08FD000030AD00A030AE0045
:100CF4004130AF007B08AA007C08AB007D08AC0043
:100D04000A128A11EA210A128A11031C8A2E8B2ED6
:100D1400532E06308312031328062904031D932E31
:100D2400942EE82E0030FB000030FC000030FD0063
:100D34000030AD00A030AE004130AF007B08AA0007
:100D44007C08AB007D08AC000A128A11EA210A1261
:100D54008A11031CAE2EAF2EB02EE82E831203137D
:100D640086130617861206128611061186100614BB
:100D74000030AD008030AE003F30AF007B08AA00E9
:100D84007C08AB007D08AC000A128A1142230A12C7
:100D94008A11831203132A08FB002B08FC002C0879
:100DA400FD000030AD00A030AE004130AF007B0844
:100DB400AA007C08AB007D08AC000A128A11EA2163
:100DC4000A128A11031CE72EE82EB02E0730831274
:100DD400031328062904031DF02EF12E452F00309D
:100DE400FB000030FC000030FD000030AD00A030FE
:100DF400AE004130AF007B08AA007C08AB007D0840
:100E0400AC000A128A11EA210A128A11031C0B2F60
:100E14000C2F0D2F452F83120313861306138612EE
:100E2400061686150615861406140030AD008030AB
:100E3400AE003F30AF007B08AA007C08AB007D0801
:100E4400AC000A128A1142230A128A118312031374
:100E54002A08FB002B08FC002C08FD000030AD0024
:100E6400A030AE004130AF007B08AA007C08AB0084
:100E74007D08AC000A128A11EA210A128A11031CA5
:100E8400442F452F0D2F08308312031328062904FD
:100E9400031D4D2F4E2FA22F0030FB000030FC000D
:100EA4000030FD000030AD00A030AE004130AF0096
:100EB4007B08AA007C08AB007D08AC000A128A11EA
:100EC400EA210A128A11031C682F692F6A2FA22FA4
:100ED4008312031386130613861206128611061153
:100EE400861006140030AD008030AE003F30AF00F5
:100EF4007B08AA007C08AB007D08AC000A128A11AA
:100F040042230A128A11831203132A08FB002B08B6
:100F1400FC002C08FD000030AD00A030AE004130D4
:100F2400AF007B08AA007C08AB007D08AC000A1265
:100F34008A11EA210A128A11031CA12FA22F6A2FF7
:100F440009308312031328062904031DAA2FAB2F8B
:100F5400FF2F0030FB000030FC000030FD000030AB
:100F6400AD00A030AE004130AF007B08AA007C0881
:100F7400AB007D08AC000A128A11EA210A128A1118
:100F8400031CC52FC62FC72FFF2F831203138613ED
:100F940006138612061286150611861006140030F2
:100FA400AD008030AE003F30AF007B08AA007C0863
:100FB400AB007D08AC000A128A1142230A128A117E
:100FC400831203132A08FB002B08FC002C08FD00E5
:100FD4000030AD00A030AE004130AF007B08AA0065
:100FE4007C08AB007D08AC000A128A11EA210A12BF
:0C0FF4008A11031CFE2FFF2FC72F0800DE
:02400E000A2F77
:00000001FF
