:020000040000FA
:06000000F7EF00F0120012
:020006001200E6
:060008000EEF00F01200F3
:02000E000100EF
:0C0010000A0200006A0000000600000068
:04001C00DACFE4FF54
:10002000E2CFDAFFE6529EA023D000016A2B000E39
:100030006B236D516B19E8AE02D06B3504D06A5159
:100040006C5D6B516D5902E3828401D08294150E70
:100050006BAF02D0D89003D06A5D000E6B5902E3FB
:100060006A6B6B6BF00ECE6ECF689E909D8000D059
:10007000E552E5CFDAFF11009F80D08ECD80CD8E86
:10008000CD98CD9ACD86CD921200946A826A9368FB
:10009000F19EF2DFF00ECE6ECF68F28EF28C9E9063
:1000A0009D80815000016E6F6F6BFE0E6E1901E135
:1000B0006F5104E1070E6C6F6D6B15D0FC0E6E195D
:1000C00001E16F5104E10C0E6C6F6D6B0CD0F80EFA
:1000D0006E1901E16F5104E1120E6C6F6D6B03D06C
:0A00E000010E6C6F6D6BDDD712008E
:0600EA000E0EF66E000E82
:1000F000F76E000EF86E00010900F550656F0900FB
:10010000F550666F03E1656701D03DD00900F550F9
:10011000606F0900F550616F0900F550626F0900CA
:100120000900F550E96E0900F550EA6E0900090072
:100130000900F550636F0900F550646F090009006C
:10014000F6CF67F0F7CF68F0F8CF69F060C0F6FF40
:1001500061C0F7FF62C0F8FF0001635302E164531E
:1001600007E00900F550EE6E6307F8E26407F9D77F
:1001700067C0F6FF68C0F7FF69C0F8FF00016507B8
:08018000000E665BBFD7120000
:08018800D9CFE6FFE1CFD9FF5A
:10019000E652D950FD0FE96EFF0EDA20EA6E000E2E
:1001A000D880EE54000EED540DE2FA0EDF6EDF50F3
:1001B000DF06000901E0FBD7FD0EDB06FE0E01E2C3
:0E01C000DB06E7D7E552E552E7CFD9FF120084
:0201CE00000E21
:1001D000F36E00EE00F0060E01D81200EA6002D0C5
:0E01E000EE6AFCD7F350E9601200EE6AFCD71D
:0201EE0015EE0C
:1001F00000F025EE00F0F86A019C75EC00F003ECCD
:0A02000000F045EC00F0FBD71200FF
:06020A00000005000000E9
:00000001FF
