:1000000083177C3084007E300A128A110D200A1278
:100010008A1183010A128A11152864008001840A5A
:1000200004060319003404060E280A128A11F82760
:100030000A128A110A128A1171270A128A110310F0
:10004000831203170030031801308D0063308C00D9
:10005000831603178C130C15831203138B1355305F
:10006000831603178D00AA308D008C14831203139E
:100070008B17831603170C1101300A128A11F7250A
:100080000A128A1159300A128A113C260A128A1160
:10009000C0300A128A11F7250A128A118312031737
:1000A0000C080A128A11EC250A128A11B830F700DE
:1000B0000B30F8000A128A1123260A128A11031043
:1000C000831203170030031801308D0083160317C5
:1000D0008C130C1401300A128A11F7250A128A11A6
:1000E000D030F7000730F8000A128A1123260A12CE
:1000F0008A11831203170C080A128A11EC250A12BE
:100100008A11D030F7000730F8000A128A1123262E
:100110000A128A1101300A128A11F7250A128A116D
:1001200033300A128A113C260A128A118830F700ED
:100130001330F8000A128A1123260A128A110A12B1
:100140008A1159260A128A11D030F7000730F800B8
:100150000A128A1123260A128A119F280A128A116A
:02016000002875
:100BD800F40083120313081574080A128A11CE2729
:100BE8000A128A110800F20083120313081172080E
:100BF8000A128A11CE270A128A11080088150A30AB
:100C0800F7000030F8000A128A1123260A128A1106
:100C1800831203138811080033300A128A11F7254A
:100C28000A128A1133300A128A11F7250A128A1118
:100C380032300A128A11F7250A128A110800352E55
:100C4800F901F903272E0130F9027908FF3A031D4B
:100C58002E2E2F2E272E0130F7020030031CF8030A
:100C6800F80278087704031D3A2E3B2E242E08003C
:100C7800F2004D2E72080A128A1109270A128A11E7
:100C88000A128A11EC250A128A110130F30073083E
:100C9800F20772080A128A1109270A128A11003803
:100CA800031D572E582E3E2E080001300A128A11B5
:100CB800F7250A128A1123300A128A113C260A12D1
:100CC8008A11C0300A128A11F7250A128A111230C5
:100CD8000A128A113C260A128A11F430F7000130F0
:100CE800F8000A128A1123260A128A1101300A1200
:100CF8008A11F7250A128A1183300A128A11F725F8
:100D08000A128A1142300A128A113C260A128A11E2
:100D1800E830F7000330F8000A128A1123260A1275
:100D28008A11CA2E01300A128A11F7250A128A116D
:100D38004F300A128A113C260A128A116430F700D1
:100D48000030F8000A128A1123260A128A1101308B
:100D58000A128A11F7250A128A11C0300A128A115A
:100D6800F7250A128A114F300A128A113C260A12F4
:100D78008A116430F7000030F8000A128A1123261D
:100D88000A128A110130F0007008FC070A307C0250
:100D9800031CCF2ED02E962E0310003003180130DE
:100DA800FC003030F0007008FD00DA2E01300A1225
:100DB8008A11F7250A128A1183300A128A11F72537
:100DC8000A128A117D080A128A11EC250A128A1160
:100DD800F430F7000130F8000A128A1123260A12AB
:100DE8008A110130F0007008FD073B307D02031CBA
:100DF800FE2EFF2EDA2E0800FE00FE1F082F83139A
:100E08007E188317000808000408FE0007308A00CF
:100E18007E088207003449344E3449345434493406
:100E280041344C3449345A3449344E3447342E34DE
:100E38002E342E342E3400346D3461346E347934CB
:100E48002034703472346F346A34653463347434E3
:100E58007334213421342134003447346F346934F5
:100E68006E346734203474346F342034623475340B
:100E780069346C34643420340034433472346F344D
:100E88007334733465346434203445344534503411
:100E980052344F344D340034483445344C344C3497
:100EA80020345934453441344834213421342134F0
:100EB80000347434693463346B34203474346F34DC
:100EC80063346B34003463346834613472346134AD
:100ED8006334743465347234003401300A128A1170
:100EE8003C260A128A11C0300A128A11F7250A1202
:100EF8008A110310003003180130F000832F2E30C0
:100F08000A128A11EC250A128A116430F70000309F
:100F1800F8000A128A1123260A128A110130F100F8
:100F28007108F00710307002031C9B2F9C2F832F31
:100F380001300A128A11F7250A128A11080083164D
:100F48000313080803398800831203138811081152
:100F58000F30F000700888050A128A1110260A124C
:100F68008A1128300A128A11F7250A128A110C30C0
:100F78000A128A11F7250A128A1106300A128A11F2
:100F8800F7250A128A1101300A128A11F7250A1266
:100F98008A110800F5007508F039F60008080F39BD
:100FA800760488000A128A1102260A128A11750824
:100FB800F60004300310F60DFF3E031DDE2F8312EA
:100FC800031308080F39760488000A128A110226CA
:100FD8000A128A110230F7000030F8000A128A114A
:100FE80023260A128A1108000A128A11A3270A1254
:040FF8008A11080052
:02400E000A2F77
:00000001FF
